:100000000C946A000C9492000C9492000C94920050
:100010000C9492000C9492000C9492000C94920018
:100020000C9492000C9492000C9492000C94920008
:100030000C9492000C9492000C9492000C949200F8
:100040000C947E040C9492000C944C040C942604A2
:100050000C9492000C9492000C9492000C949200D8
:100060000C9492000C9492004F626972457468651A
:10007000726E65745544503A3A626567696E5061B4
:10008000636B657428636F6E73742063686172209C
:100090002A686F73742C2075696E7431365F742012
:1000A000706F7274293B206973206E6F74207375B2
:1000B00070706F727465642120536F7272792100C1
:1000C0002E004D7920495020616464726573733A43
:1000D0002000C80411241FBECFEFD8E0DEBFCDBF83
:1000E00012E0A0E0B1E0E6E2F1E102C005900D927D
:1000F000A030B107D9F723E0A0E0B2E001C01D9223
:10010000A93BB207E1F710E0CAE6D0E004C02197AE
:10011000FE010E946607C936D107C9F70E94430550
:100120000C9491080C940000AF92BF92CF92DF9292
:10013000EF92FF920F931F93CF93DF936C017B019C
:100140008B01040F151FEB015E01AE18BF08C0172D
:10015000D10759F06991D601ED91FC910190F081A0
:10016000E02DC6010995892B79F7C501DF91CF9163
:100170001F910F91FF90EF90DF90CF90BF90AF90C5
:100180000895FC01538D448D252F30E0842F90E09D
:10019000821B930B541710F0CF9608950197089582
:1001A000FC01918D828D981761F0A28DAE0FBF2F4B
:1001B000B11D5D968C91928D9F5F9F73928F90E0A1
:1001C00008958FEF9FEF0895FC01918D828D981710
:1001D00031F0828DE80FF11D858D90E008958FEF4D
:1001E0009FEF0895FC01918D228D892F90E0805C16
:1001F0009F4F821B91098F739927089589E092E0A0
:100200000E94F20021E0892B09F420E0822F08955A
:1002100080E090E0892B29F00E94FE0081110C946F
:1002200000000895FC01A48DA80FB92FB11DA35A99
:10023000BF4F2C91848D90E001968F739927848F06
:10024000A689B7892C93A089B1898C918370806429
:100250008C93938D848D981306C00288F389E02DCA
:1002600080818F7D80830895EF92FF920F931F937B
:10027000CF93DF93EC0181E0888F9B8D8C8D981359
:100280001AC0E889F989808185FF15C09FB7F89465
:10029000EE89FF896083E889F989808183708064B1
:1002A00080839FBF81E090E0DF91CF911F910F91FC
:1002B000FF90EF900895F62E0B8D10E00F5F1F4F0B
:1002C0000F731127E02E8C8D8E110CC00FB607FC1A
:1002D000FACFE889F989808185FFF5CFCE010E94A8
:1002E0001201F1CFEB8DEC0FFD2FF11DE35AFF4F03
:1002F000F0829FB7F8940B8FEA89FB898081806236
:10030000CFCFEF92FF920F931F93CF93DF938C0188
:100310007B01D0E0C0E0F701EC0FFD1F6491662384
:1003200039F0C8010E943401892B11F02196F3CFD6
:10033000CE01DF91CF911F910F91FF90EF90089523
:10034000CF93DF93EC01888D8823B9F0AA89BB890C
:10035000E889F9898C9185FD03C0808186FD0DC0F7
:100360000FB607FCF7CF8C9185FFF2CF808185FF18
:10037000EDCFCE010E941201E9CFDF91CF91089518
:1003800081E0089587E08CBF95EE9BBF1ABE8CBFBD
:1003900086EE8BBF1ABE089590E080E0089597E046
:1003A0009CBF87EE8BBF2AB79CBF88EE8BBF8AB7F6
:1003B000322F282F9CBF85EE8BBF8AB79CBF96EE4D
:1003C0009BBF9AB7892798278927821B930B4817C9
:1003D000590708F4CA01A9014751584FFB01DB0135
:1003E000A80FB91FEA17FB0739F05CBF4BBF6AB70C
:1003F00061934F5F5F4FF6CF280F391F47E04CBF27
:1004000057EE5BBF3ABF4CBF38EE3BBF2ABF0895E3
:10041000CF93DF931F92CDB7DEB7DC01ED91FC9156
:10042000028CF38DE02D41E050E0BE016F5F7F4F05
:1004300009951816190634F4898190E00F90DF9120
:10044000CF9108958FEF9FEFF9CFFC0197E09CBF0C
:1004500085EE8BBF8AB79CBF26EE2BBF6AB79CBFC9
:1004600027EE2BBF2AB79CBF98EE9BBF3AB71CBEA6
:1004700090E19BBF9AB71CBE4FE04BBF4AB71CBE72
:100480005EE05BBF5AB71CBE7DE07BBF7AB7708B66
:10049000518B428B938B1CBE91E19BBF4AB71CBE14
:1004A00092E19BBF9AB7542F492F558B448B982FBD
:1004B000862F232732272327821B930B08951CBEE8
:1004C00083E18BBF8AB71CBE94E19BBF9AB7892793
:1004D00098278927FB019C012B5E3F4FDB01A40F6E
:1004E000B51FEA17FB0739F061913CBF2BBF6ABF0C
:1004F0002F5F3F4FF6CF480F591F1CBE83E18BBFC4
:100500005ABF1CBE84E18BBF4ABF90E080E00895D3
:10051000CF93DF931F92CDB7DEB76983DC01ED91F6
:10052000FC910280F381E02D41E050E0BE016F5F5D
:100530007F4F09950F90DF91CF9108951CBE1BBE90
:100540008FEF8ABF1CBE1BBE82E08ABF90E080E0B6
:100550000895FB0132812381948185811CBE1BBEDD
:1005600061E06ABF1CBE6DE06BBF3ABF1CBE3EE0DF
:100570003BBF2ABF1CBE2FE02BBF9ABF1CBE90E121
:100580009BBF8ABF1CBE81E18BBF5ABF1CBE82E1EC
:100590008BBF4ABF81E090E008950895DC01ED91A2
:1005A000FC91008CF18DE02D09941CBE8BE08BBF7B
:1005B0007ABF1CBE8CE08BBF6ABF1CBE1BBE83E033
:1005C0008ABF81E00895FC0184899589089524E417
:1005D00031E0FC0131832083FB014089518962892C
:1005E0007389FC0142835383648375830895DC011E
:1005F000ED91FC91028CF38DE02D099490E080E068
:100600000895FB0101900020E9F73197AF01461BE7
:10061000570BDC01ED91FC910280F381E02D0994F0
:100620008F929F92AF92BF92EF92FF920F931F9380
:10063000CF93DF93CDB7DEB7A1970FB6F894DEBFA7
:100640000FBECDBF7C01FA01CB0119A2223008F404
:100650002AE08E010F5D1F4F822E912CB12CA12C10
:10066000BF01A50194010E944407F901CA016A3043
:100670000CF5605DD8016E938D01232B242B252B67
:1006800079F790E080E0109721F0BD01C7010E944A
:100690000103A1960FB6F894DEBF0FBECDBFDF9168
:1006A000CF911F910F91FF90EF90BF90AF909F90CF
:1006B0008F900895695CDECFCF92DF92EF92FF9228
:1006C000CF93DF936B017C016DE289E092E00E94A1
:1006D0003401EC0144275527BA014C195D096E0914
:1006E0007F092AE089E092E00E9410038C0F9D1F91
:1006F000DF91CF91FF90EF90DF90CF9008958F9290
:100700009F92AF92BF92CF92DF92EF92FF920F93A0
:100710001F93CF93DF937C01EB016C0182E0C80E45
:10072000D11C4701E5E08E0E911C10E000E0F601BF
:1007300041916F0150E070E060E02AE0CE010E943C
:1007400010035C01E881F9810190F081E02D6EE2F7
:10075000CE0109958A0D9B1D080F191FC814D904D5
:1007600031F7F701458150E070E060E02AE0CE010A
:100770000E941003800F911FDF91CF911F910F9165
:10078000FF90EF90DF90CF90BF90AF909F908F90B1
:100790000895BC0189E092E00C94010366E471E0E5
:1007A0000C940103CF93DF93AC01990F660B770B89
:1007B00077FF0EC0CB01BA010E945C03EC0189E017
:1007C00092E00E94CE038C0F9D1FDF91CF91089580
:1007D0002AE089E092E00E941003F0CFCF93DF93EC
:1007E000482F50E070E060E02AE089E092E00E944B
:1007F0001003EC0189E092E00E94CE038C0F9D1F54
:10080000DF91CF910895CF93DF93D0E0C0E00097C0
:1008100031F0BC0189E092E00E940103EC0189E023
:1008200092E00E94CE038C0F9D1FDF91CF9108951F
:1008300068E670E089E092E00E94810189E092E040
:100840000E94CE03989590E080E008951F920F9249
:100850000FB60F9211242F933F934F935F936F9393
:100860007F938F939F93AF93BF93EF93FF9389E011
:1008700092E00E941201FF91EF91BF91AF919F9181
:100880008F917F916F915F914F913F912F910F9039
:100890000FBE0F901F9018951F920F920FB60F92D8
:1008A00011242F938F939F93EF93FF93E09119025D
:1008B000F0911A028081E0911F02F091200282FDE6
:1008C0001BC09081809122028F5F8F732091230241
:1008D000821741F0E0912202F0E0E75FFD4F958F33
:1008E00080932202FF91EF919F918F912F910F9012
:1008F0000FBE0F901F9018958081F4CF1F920F921A
:100900000FB60F9211242F933F938F939F93AF9322
:10091000BF938091050290910602A0910702B091C9
:1009200008023091040223E0230F2D3758F5019679
:10093000A11DB11D2093040280930502909306022D
:10094000A0930702B09308028091000290910102E7
:10095000A0910202B09103020196A11DB11D8093E6
:10096000000290930102A0930202B0930302BF9190
:10097000AF919F918F913F912F910F900FBE0F904C
:100980001F90189526E8230F0296A11DB11DD2CF06
:10099000E9E0F2E01382128248EE53E060E070E09A
:1009A00044835583668377838AE091E091838083D3
:1009B00085EC90E09587848784EC90E09787868724
:1009C00080EC90E0918B808B81EC90E0938B828B1C
:1009D00082EC90E0958B848B86EC90E0978B868BF5
:1009E000118E128E138E148EE6EAF2E084E491E00A
:1009F000918380831282138214821582E4EBF2E0E9
:100A0000918380831282138214821582ECEAF2E0D1
:100A1000918380831282138214821582EAEBF2E0C2
:100A2000918380831282138214821582E0ECF2E0BB
:100A3000918380831282138214821582E9EAF3E0A3
:100A4000918380831282138214821582E6ECF2E095
:100A50001382128244835583668377832CE131E0CD
:100A60003183208397878687108A118A128A138A96
:100A700024E0208FEFEAF3E09183808312821382D7
:100A8000148215820895CF93DF93CDB7DEB7A29776
:100A90000FB6F894DEBF0FBECDBF789484B58260E8
:100AA00084BD84B5816084BD85B5826085BD85B512
:100AB000816085BD80916E00816080936E00109290
:100AC000810080918100826080938100809181000B
:100AD000816080938100809180008160809380009C
:100AE0008091B10084608093B1008091B0008160FA
:100AF0008093B00080917A00846080937A00809126
:100B00007A00826080937A0080917A00816080937D
:100B10007A0080917A00806880937A001092C100F8
:100B2000E0911902F0911A0282E08083E0911502AF
:100B3000F09116021082E0911702F091180280E104
:100B4000808310922102E0911D02F0911E0286E046
:100B50008083E0911B02F0911C0280818061808380
:100B6000E0911B02F0911C02808188608083E091FB
:100B70001B02F0911C02808180688083E0911B023F
:100B8000F0911C0280818F7D808389E491E00E9436
:100B9000030488E08093AE028093AF028093B0029A
:100BA0008093B10262EC70E089E092E00E948101E2
:100BB0008E010D5F1F4F7E0187E0E80EF11C8AE079
:100BC000A82E99E0B92E28E0C22E37E0D32E1CBE05
:100BD000ABBE8AB71CBEBBBE9AB71CBECBBE2AB783
:100BE0001CBEDBBE3AB73B832C839D838E83D8012A
:100BF0004D918D0150E070E060E02AE089E092E0E4
:100C00000E94100360EC70E089E092E00E94810194
:100C1000E016F106E1F689E092E00E94CE0362ED73
:100C200074E086EC92E00E94D50286EC92E00E948D
:100C300025024C01181619060CF017C18EE491E03C
:100C40000E940304C4010E94030444E650E061EEE4
:100C500072E086EC92E00E94CF018C018BE591E07E
:100C60000E94C903F801EA53FD4F138EE158FF4F6C
:100C7000108281EE92E00E9403041A821B821E827F
:100C80001F821A861B861E861F861A8A1B8A8091DF
:100C9000E102B82FB3704B2E8F70582EE091E20214
:100CA000EAA32090E3023090E40232242324322489
:100CB000082F10E00C5F1F4FCE0101965C017C01F4
:100CC000F801EA53FD4F838D8F70D70111968C93F5
:100CD000119712968C9312978D3071F4848D835FE7
:100CE00011968C9311970E5F1F4FF801EA53FD4F39
:100CF000838D835F12968C9386E691E00E94C903F0
:100D0000F70181810E94EE038CE691E00E94C90305
:100D1000D7011296CC908C2D0E94EE033801BFEFC4
:100D20006B1A7B0ACC2009F4ADC0D12CC6010E94FD
:100D30006C07D801AE51BD4FFC014D919F01281B9E
:100D4000390B2C153D0514F44193F7CF83010C0D9D
:100D50001D1DF801EA53FD4FD38CDA9483E791E02F
:100D60000E940304E4E0EE0EF11CFDEFFD1508F017
:100D7000A7CFC12CD12C76018BE791E00E94C9034B
:100D80002AE0B701A60189E092E00E9410038CE8F6
:100D900091E00E94C903D50111964C9150E070E09A
:100DA00060E02AE089E092E00E9410038FE991E080
:100DB0000E94C903F501428150E070E060E02AE042
:100DC00089E092E00E94100389E092E00E94CE0345
:100DD000FFEFCF1ADF0AEF0AFF0A84E0A80EB11C6A
:100DE00095E0C916D104E104F10431F68CEB91E0F1
:100DF0000E94C903C4010E94D20388EC91E00E94C2
:100E0000C903C8010E94D20389E092E00E94CE0388
:100E100085ED91E00E94C903842D0E94EE038EEDC2
:100E200091E00E94C9038AA10E94EE0384EE91E042
:100E30000E94C903852D0E94EE038EEE91E00E9470
:100E4000C903842D90E00E94D20384EF91E00E94B8
:100E5000C903A10170E060E02AE089E092E00E940D
:100E6000100389E092E00E94CE03A0E0B0E0AB2B3B
:100E700009F4DBCE0E94FE00882309F4D6CE0E943E
:100E80000000D3CE830165CFA1E21A2EAA1BBB1BA3
:100E9000FD010DC0AA1FBB1FEE1FFF1FA217B30746
:100EA000E407F50720F0A21BB30BE40BF50B661F5C
:100EB000771F881F991F1A9469F760957095809520
:100EC00090959B01AC01BD01CF010895EE0FFF1F6E
:100ED0000590F491E02D09940F931F93CF93DF9326
:100EE0008230910510F482E090E0E091B703F09138
:100EF000B80330E020E0B0E0A0E0309799F421158D
:100F0000310509F44AC0281B390B24303105D8F5C6
:100F10008A819B816115710589F1FB01938382832D
:100F2000FE0111C040815181028113814817590788
:100F3000E0F04817590799F4109761F012960C9356
:100F4000129713961C933296CF01DF91CF911F9188
:100F50000F9108950093B7031093B803F4CF2115B0
:100F6000310551F04217530738F0A901DB019A010E
:100F7000BD01DF01F801C1CFEF01F9CF9093B803B4
:100F80008093B703CDCFFE01E20FF31F81939193BE
:100F90002250310939832883D7CF2091B50330916E
:100FA000B603232B41F420910201309103013093C9
:100FB000B6032093B5032091000130910101211562
:100FC000310541F42DB73EB7409104015091050120
:100FD000241B350BE091B503F091B603E217F3073C
:100FE000A0F42E1B3F0B2817390778F0AC014E5F99
:100FF0005F4F2417350748F04E0F5F1F5093B6031D
:101000004093B503819391939FCFF0E0E0E09CCFB4
:10101000CF93DF930097E9F0FC013297138212829D
:10102000A091B703B091B803ED0130E020E0109734
:10103000A1F420813181820F931F2091B50330915B
:10104000B6032817390709F061C0F093B603E0939F
:10105000B503DF91CF910895EA01CE17DF07E8F5D8
:101060004A815B819E0141155105B1F7E901FB837E
:10107000EA8349915991C40FD51FEC17FD0761F41C
:10108000808191810296840F951FE901998388835D
:10109000828193819B838A83F0E0E0E012968D91B8
:1010A0009C9113970097B9F52D913C911197CD0123
:1010B0000296820F931F2091B5033091B603281733
:1010C000390739F6309751F51092B8031092B703EB
:1010D000B093B603A093B503BCCFD383C283408142
:1010E0005181840F951FC817D90761F44E5F5F4F78
:1010F00088819981480F591F518340838A819B8140
:10110000938382832115310509F0B0CFF093B803A2
:10111000E093B7039ECFFD01DC01C0CF13821282A2
:06112000D7CFF894FFCFC9
:101126000000B90380000000000034019400C100F3
:10113600A001F200D000E4000000000088025F0277
:10114600FE02C201CE020802CC01D502CD02A902DE
:1011560018049E022502CF01F702E702E302C0014E
:10116600000000007F030D0A0045737361005061A3
:10117600636B65742073697A6520005265636965DF
:101186007665643A200064656C7461006C656E6710
:101196006874005065746C656B6100436F61702004
:1011A6006F7074696F6E206E72203A002064656CF1
:1011B6007461206F66206F7074696F6E3A2000202C
:1011C6006C656E676874206F66206F7074696F6EE9
:1011D6002076616C7565206973203A0053697A65DB
:1011E600206F64207564700063757272656E74207A
:1011F6004279746500636F61707665722000636F73
:1012060064652000746F6B656E6C656E2000747982
:10121600706520006D657373616765496420000021
:00000001FF
