:100000000C945E000C9486000C9486000C94860080
:100010000C9486000C9486000C9486000C94860048
:100020000C9486000C9486000C9486000C94860038
:100030000C9486000C9486000C9486000C94860028
:100040000C9428150C9486000C94F6140C94D0147F
:100050000C9486000C9486000C9486000C94860008
:100060000C9486000C948600000000080002010039
:100070000003040700000000000000000000000072
:10008000250028002B0000000000240027002A0083
:10009000040404040404040402020202020203032E
:1000A0000303030301020408102040800102040836
:1000B00010200102040810207215F11911241FBE2E
:1000C000CFEFD8E0DEBFCDBF12E0A0E0B1E0ECEDB5
:1000D000F8E302C005900D92A237B107D9F723E0EB
:1000E000A2E7B2E001C01D92A43FB207E1F710E021
:1000F000CDE5D0E004C02197FE010E94591ACC350D
:10010000D107C9F70E948E160C94611C0C94000054
:1001100090E0FC01EC55FF4F249180579F4FFC016C
:100120008491882399F090E0880F991FFC01EA5789
:10013000FF4FA591B491FC01E458FF4F8591949134
:100140008FB7F894EC91E22BEC938FBF08958CBDA0
:100150009DBD0895AF92BF92CF92DF92EF92FF9232
:100160000F931F93CF93DF936C017B018B01040FDF
:10017000151FEB015E01AE18BF08C017D10759F07B
:100180006991D601ED91FC910190F081E02DC601BD
:100190000995892B79F7C501DF91CF911F910F91B7
:1001A000FF90EF90DF90CF90BF90AF900895FC014B
:1001B000538D448D252F30E0842F90E0821B930BCC
:1001C000541710F0CF96089501970895FC01918D72
:1001D000828D981761F0A28DAE0FBF2FB11D5D9675
:1001E0008C91928D9F5F9F73928F90E008958FEF17
:1001F0009FEF0895FC01918D828D981731F0828DCB
:10020000E80FF11D858D90E008958FEF9FEF089521
:10021000FC01918D228D892F90E0805C9F4F821B85
:1002200091098F739927089580EA92E00E9408014E
:1002300021E0892B09F420E0822F089580E090E0EE
:10024000892B29F00E94140181110C94000008955B
:10025000FC01A48DA80FB92FB11DA35ABF4F2C913B
:10026000848D90E001968F739927848FA689B78932
:100270002C93A089B1898C91837080648C93938D29
:10028000848D981306C00288F389E02D80818F7DCC
:1002900080830895EF92FF920F931F93CF93DF9384
:1002A000EC0181E0888F9B8D8C8D98131AC0E889B2
:1002B000F989808185FF15C09FB7F894EE89FF8981
:1002C0006083E889F98980818370806480839FBF1F
:1002D00081E090E0DF91CF911F910F91FF90EF901F
:1002E0000895F62E0B8D10E00F5F1F4F0F7311272F
:1002F000E02E8C8D8E110CC00FB607FCFACFE8896A
:10030000F989808185FFF5CFCE010E942801F1CFC8
:10031000EB8DEC0FFD2FF11DE35AFF4FF0829FB7DD
:10032000F8940B8FEA89FB8980818062CFCFCF93CD
:10033000DF93EC01888D8823B9F0AA89BB89E8890D
:10034000F9898C9185FD03C0808186FD0DC00FB6B3
:1003500007FCF7CF8C9185FFF2CF808185FFEDCF31
:10036000CE010E942801E9CFDF91CF91089590E05E
:10037000FC01E859FF4F2491FC01EC55FF4F3491EB
:10038000FC01E057FF4FE491EE23C9F0222339F03E
:10039000233001F1A8F4213019F1223029F1F0E0E5
:1003A000EE0FFF1FE458FF4FA591B4918FB7F8945B
:1003B000EC91611126C030953E233C938FBF089588
:1003C0002730A9F02830C9F0243049F78091800007
:1003D0008F7D03C0809180008F7780938000DFCF76
:1003E00084B58F7784BDDBCF84B58F7DFBCF8091C3
:1003F000B0008F778093B000D2CF8091B0008F7D16
:10040000F9CF3E2BDACF1F93CF93DF93182FEB0159
:100410000E948800209739F460E0812FDF91CF910E
:100420001F910C94B701CF3FD10511F461E0F5CFD6
:10043000E12FF0E0E859FF4FE491E33031F140F46F
:10044000E130B1F0E230E1F0C038D1057CF7E4CF23
:10045000E73029F1E83059F1E430B1F780918000BC
:10046000806280938000D0938B00C0938A0004C088
:1004700084B5806884BDC7BDDF91CF911F91089579
:1004800084B5806284BDC8BDF7CF8091800080684C
:1004900080938000D0938900C0938800EDCF809135
:1004A000B00080688093B000C093B300E5CF809126
:1004B000B00080628093B000C093B400DDCF3FB73E
:1004C000F8948091790290917A02A0917B02B09188
:1004D0007C0226B5A89B05C02F3F19F00196A11DEF
:1004E000B11D3FBFBA2FA92F982F8827BC01CD017E
:1004F000620F711D811D911D42E0660F771F881FDD
:10050000991F4A95D1F708958F929F92AF92BF920B
:10051000CF92DF92EF92FF924B015C010E945F024B
:100520006B017C010E945F026C197D098E099F0995
:10053000683E734081059105A8F321E0821A910875
:10054000A108B10888EEC80E83E0D81EE11CF11C9A
:1005500081149104A104B10429F7FF90EF90DF907A
:10056000CF90BF90AF909F908F900895FC01208115
:100570002EBD9B012150310941F051810DB407FE80
:10058000FDCF4EB55EBD4193F5CF61507109860F29
:10059000971F0DB407FEFDCF2EB5FC0120830895F3
:1005A000E0919A02F0919B02808190919902892BAF
:1005B00080830895E0919A02F0919B02908180914E
:1005C000990280958923808308958EBD00000DB423
:1005D00007FEFDCF8EB50895AF92BF92CF92DF9206
:1005E000EF92FF920F931F93CF93DF93CDB7DEB7B8
:1005F00028970FB6F894DEBF0FBECDBF8C017B01EC
:100600006A0180919D028333E1F45801A40EB51E66
:10061000A016B10609F46FC00E94DA0280EF0E94B2
:10062000E502812F0E94E502802F0E94E5020F5F04
:100630001F4FF70181917F010E94E5020E94D002C5
:10064000E7CF5B01A40EB51E8433C1F40E94DA0229
:1006500019830A838D2D80688B83CC8264E070E0DF
:10066000CE0101960E94B602AE14BF0409F441C047
:10067000F70181917F010E94E502F6CF0E94DA0224
:100680000F3F110509F028F419820A8384E08B8357
:100690000CC017FD17C019820A8333E01695079521
:1006A0003A95E1F7007E0C600B8386E0C816D10412
:1006B000A0F5F701DE011496EA15FB0599F081918A
:1006C0008D93FACFC80126E0969587952A95E1F794
:1006D000807E19830A830115104C10F48461D7CFF2
:1006E0008C61D5CFB6016D5F7F4FCE0101960E9420
:1006F000B6020E94D002C60128960FB6F894DEBF5B
:100700000FBECDBFDF91CF911F910F91FF90EF9062
:10071000DF90CF90BF90AF90089563E070E0CE017E
:1007200001960E94B602F70181917F010E94E502C5
:10073000AE14BF04C1F7DDCFCF93DF931F92CDB7C7
:10074000DEB7898341E050E0BE016F5F7F4F90E0EC
:1007500080E00E94EC020F90DF91CF91089590E02D
:1007600020919D02233339F40C96982F990F990FFD
:10077000990F80E008954896F8CFDA01E0919E0243
:10078000F0E0FE2FEE27E60FF71F90E0982F882766
:10079000A901BD018E0F9F1F0C94EC02CF93DF9334
:1007A00000D0CDB7DEB779836A8322E030E0AE01B6
:1007B0004F5F5F4F64E070E00E94BD030F900F90A9
:1007C000DF91CF910895CF93DF931F92CDB7DEB71E
:1007D00020919E0230E0322F2227260F371F90E013
:1007E000982F8827498341E050E0BE016F5F7F4F1B
:1007F000820F931F0E94EC020F90DF91CF9108951A
:100800000895CF93DF931F92CDB7DEB76983DC01E4
:10081000ED91FC910280F381E02D41E050E0BE01BA
:100820006F5F7F4F09950F90DF91CF910895FC0185
:10083000818D928D08950895DF92EF92FF920F932C
:100840001F93CF93DF9300D0CDB7DEB7FB01DC0160
:1008500057961C921E9256972281211109C023811E
:10086000211106C02481211103C02581222369F1B1
:100870004115510551F17A018F01FC01D08C80E5C1
:1008800091E00E94A700A8014E5F5F4F24E030E096
:100890006CE070E08D2D0E94BD03F982EA8222E0B7
:1008A00030E0AE014F5F5F4F60E170E08D2D0E9440
:1008B000BD0381E090E00F900F90DF91CF911F91E9
:1008C0000F91FF90EF90DF90089580E0F3CF0F93AA
:1008D0001F93CF93DF938B01EA01BC0183E00E9459
:1008E0000302B80185E00E940302BE0186E0DF91A9
:1008F000CF911F910F910C940302FC018485958583
:100900000895FC0184899589089524E531E0FC016E
:1009100031832083FB014089518962897389FC01FD
:1009200042835383648375830895DC01ED91FC91C8
:10093000048CF58DE02D099490E080E00895FB0192
:1009400001900020E9F73197AF01461B570BDC01FE
:10095000ED91FC910280F381E02D09948F929F929A
:10096000AF92BF92EF92FF920F931F93CF93DF93BB
:10097000CDB7DEB7A1970FB6F894DEBF0FBECDBFDF
:100980007C01FA01CB0119A2223008F42AE08E0181
:100990000F5D1F4F822E912CB12CA12CBF01A50100
:1009A00094010E94371AF901CA016A300CF5605DA2
:1009B000D8016E938D01232B242B252B79F790E002
:1009C00080E0109721F0BD01C7010E949F04A1960D
:1009D0000FB6F894DEBF0FBECDBFDF91CF911F9150
:1009E0000F91FF90EF90BF90AF909F908F900895E0
:1009F000695CDECF8F929F92AF92BF92CF92DF92CF
:100A0000EF92FF920F931F93CF93DF937C01EB0143
:100A10006C0182E0C80ED11C4701E5E08E0E911CEE
:100A200010E000E0F60141916F0150E070E060E0FD
:100A30002AE0CE010E94AE045C01E881F9810190B8
:100A4000F081E02D6EE2CE0109958A0D9B1D080F05
:100A5000191FC814D90431F7F701458150E070E03F
:100A600060E02AE0CE010E94AE04800F911FDF916A
:100A7000CF911F910F91FF90EF90DF90CF90BF909B
:100A8000AF909F908F900895CF93DF93BC0180EA41
:100A900092E00E949F04EC0166E571E080EA92E03A
:100AA0000E949F048C0F9D1FDF91CF9108952F927C
:100AB0003F924F925F926F927F928F929F92AF92EE
:100AC000BF92CF92DF92EF92FF920F931F93CF933B
:100AD000DF93CDB7DEB7EA970FB6F894DEBF0FBE4F
:100AE000CDBF7C017AAF69AF3A01DC0114960C915D
:100AF0001497802F8F708066898311968C9111973F
:100B00008A8318968C91189719969C9119979B83B4
:100B10008C8312966D917C916115710509F472C0F8
:100B2000003108F06FC010E0A801CE0105960E94C8
:100B3000411CE5E0F0E0EC0FFD1FE00FF11F0C5F42
:100B40001F4F4701512C412C50E040E0D7011A962D
:100B50008C911A978415150409F00CF477C0D40110
:100B60001C968C911C97A82EB12C98012B5F3F4F9F
:100B70002A0D3B1D2233310508F0D3C01B962C9063
:100B8000312C9101241B350BA90170E060E04D3040
:100B9000510561057105D8F5B22F982F8D3008F0F9
:100BA0009DE0A22FA295A07FA92BA083BD30E9F5DF
:100BB0006F0142E0C40ED11C2D5021830F5F1F4FE7
:100BC0009D3041F48D50F60180830F5F1F4FC601A9
:100BD00001966C01D4011D966D917C91A501C60111
:100BE0000E94411CF601EA0DFB1DBFEFAB1ABB0AC8
:100BF0000A0D1B1D2FEF421A520A44E0840E911C6D
:100C0000A101A4CF04E010E0FE0135969ACF4D304B
:100C1000B1E05B076105710508F490C08D3008F400
:100C200093C09DEE90839DE003C0BE3009F07CC070
:100C30004D5051406109710951836F01A3E0CA0E03
:100C4000D11C2D5022830E5F1F4FBACF17964C91A7
:100C50001797442389F050E0CA010196080F191F25
:100C60000233110508F05DC08FEF819315966D91E9
:100C70007C91CF010E94411C809173039091740379
:100C8000DC01ED91FC910488F589E02D24E531E04B
:100C90003CAB2BABA9ADBAAD12964D915D916D9168
:100CA0007C9115974DAB5EAB6FAB78AFA301BE01E6
:100CB0006D5C7F4F09958091730390917403DC0103
:100CC000ED91FC910280F381E02DA801BE016F5FE0
:100CD0007F4F09958091730390917403DC01ED912E
:100CE000FC91008CF18DE02D0995F70180859185AF
:100CF000EA960FB6F894DEBF0FBECDBFDF91CF915D
:100D00001F910F91FF90EF90DF90CF90BF90AF9029
:100D10009F908F907F906F905F904F903F902F901B
:100D2000089590E080E0E4CF6F012FEFC21AD20A5D
:100D300047CF982F906D9083982F3ACF8D30C8F37E
:100D4000ADEDA0839DE034CF982F906E9083982FC7
:100D50006FCFCF92DF92EF92FF92CF93DF93CDB719
:100D6000DEB7C154D1090FB6F894DEBF0FBECDBFB8
:100D7000F90101900020E9F73197E21BF30BDC0148
:100D80001296CD90DD90ED90FC90159782E08983CE
:100D900095E49A831C821B821D823F832E83E88701
:100DA0005A874987FE01E05CFF4F10821182FF875E
:100DB000EE878D878CE08C8781E08B8784E591E0DE
:100DC0009DAB8CABCEAADFAAE8AEF9AEAB01BE01FB
:100DD0006C5C7F4FCE0101960E945705CF5BDF4FC1
:100DE0000FB6F894DEBF0FBECDBFDF91CF91FF905D
:100DF000EF90DF90CF900895CF92DF92EF92FF9225
:100E00000F931F93CF93DF9300D000D000D0CDB7C6
:100E1000DEB76C017B018A0189E591E00E944405FF
:100E2000F6014085518584E591E09A838983F70135
:100E300082819381A481B5818B839C83AD83BE83A2
:100E40002AE831E0B801CE0101960E94A906269653
:100E50000FB6F894DEBF0FBECDBFDF91CF911F91CB
:100E60000F91FF90EF90DF90CF900895CF93DF9395
:100E7000EC01A881B981EB01E881F9811097F1F0CB
:100E80003097B1F4EC018C819D81892BC9F08C9154
:100E900090E00BC0DB0114968D919C91892B81F021
:100EA000808190E0919581959109DF91CF9108958E
:100EB000BF01CD01DF91CF910C94511C309751F7B8
:100EC00090E080E0F2CFCF92DF92EF92FF920F930B
:100ED0001F93CF93DF936C0185EBE82E83E0F82E10
:100EE000E3E7F3E0D701CD91DD917D018F010A5F4A
:100EF0001F4F209771F022853385F60184819581FB
:100F00002817390731F4B601C8010E943607892B2A
:100F100031F0F8010F5A134029F7D0E0C0E0CE01BC
:100F2000DF91CF911F910F91FF90EF90DF90CF90C5
:100F30000895FC0180819181009711F00C94FB1AB7
:100F400008950F931F93CF93DF93EC0188819981CC
:100F5000009759F02A813B812617370730F081E04E
:100F6000DF91CF911F910F9108958B016F5F7F4F9C
:100F70000E94841B009759F0998388831B830A83FE
:100F80002C813D81232B59F7FC011082E8CF80E0B2
:100F9000E7CFEF92FF920F931F93CF93DF93FB0165
:100FA00001900020E9F73197E61BF70BE1F07B0198
:100FB0008C01DC011496CD91DC91CE0FDF1FBE01B8
:100FC0000E94A107882381F0F8012081318184816A
:100FD0009581B701820F931F0E945A1CD801159664
:100FE000DC93CE93149781E0DF91CF911F910F9105
:100FF000FF90EF900895EF92FF920F931F93CF937E
:10100000DF93EC017B018A01BA010E94A1072881CC
:101010003981811114C02115310519F0C9010E94CF
:10102000FB1A198218821D821C821B821A82CE0131
:10103000DF91CF911F910F91FF90EF9008951D8345
:101040000C83B701C9010E945A1CF1CFCF93DF93E3
:10105000EC01FB018617970749F0608171816115EA
:10106000710541F0448155810E94FB07CE01DF915B
:10107000CF91089588819981009711F00E94FB1A01
:10108000198218821D821C821B821A82EFCF6F92F6
:101090007F928F929F92AF92BF92CF92DF92EF9208
:1010A000FF920F931F93CF93DF9300D000D000D017
:1010B000CDB7DEB77C011A8219821C821B821E8288
:1010C0001D82CE0101960E9426088D809E8065EBD0
:1010D000662E63E0762EE3E7F3E0530110E000E0D4
:1010E000D5018D919D915D019F012A5F3F4F69015F
:1010F000892B69F1828593858815990541F5BE0193
:101100006F5F7F4FC9010E943607892B01F5000FE1
:10111000111FF801E155FC4FF782E682CE010196DE
:101120000E94990726960FB6F894DEBF0FBECDBF7A
:10113000DF91CF911F910F91FF90EF90DF90CF90B3
:10114000BF90AF909F908F907F906F9008950F5FAA
:101150001F4FF6010A30110519F690E080E0D30127
:101160004D915D913D019C012F5F3F4F452BA9F4AF
:10117000880F991FFC01E155FC4FF782E68246E09B
:10118000429FC001439F900D1124BE016F5F7F4FAE
:101190008D589C4F0E942608C1CFC9012A303105C5
:1011A000F1F6BCCFFC0111821082138212821582EB
:1011B0001482FB0101900020E9F73197AF01461B33
:1011C000570B0C94FB076F927F928F929F92AF9276
:1011D000BF92CF92DF92EF92FF920F931F93CF9324
:1011E000DF93CDB7DEB72C970FB6F894DEBF0FBEF6
:1011F000CDBF7C015B016A016DB67EB6FC01078143
:1012000010E0C80101962DB73EB7281B390B0FB669
:10121000F8943EBF0FBE2DBF8DB79EB701964C010F
:1012200065817681A8010E94411CF401E00FF11F45
:101230001082B401CE0107960E94D208F701818185
:10124000833009F083C080EB91E00E9444058B85D8
:101250009C85892BB1F00F81188564ED71E0C80180
:101260000E94511C892B09F048C050E040E070E01A
:1012700060E08FEF90E00E9467041092730210927A
:1012800072028091720290917302009709F066C019
:10129000F7014085518584E591E09A838983F501C2
:1012A00082819381A481B5818B839C83AD83BE832E
:1012B0002CEF31E0B601CE0101960E94A906CE01C5
:1012C00007960E9499070FB6F8947EBE0FBE6DBEBA
:1012D0002C960FB6F894DEBF0FBECDBFDF91CF9135
:1012E0001F910F91FF90EF90DF90CF90BF90AF9044
:1012F0009F908F907F906F90089566E572E0C8018F
:101300000E94511C892B79F450E040E06FEF70E0AF
:1013100090E080E00E94670481E090E09093730287
:1013200080937202AECF66ED71E0C8010E94511C3D
:10133000892B09F0A6CF4FEF50E070E060E090E01D
:1013400080E00E94670482E090E0E8CF813009F0FD
:1013500098CF88ED91E00E94440593CF81309105AC
:1013600099F4F7014085518584E591E09A8389835A
:10137000F50182819381A481B5818B839C83AD83A8
:10138000BE8320E032E096CF029709F098CFF701B4
:101390004085518584E591E09A838983F5018281B6
:1013A0009381A481B5818B839C83AD83BE8326E02A
:1013B00032E080CF6F927F928F929F92AF92BF92D6
:1013C000CF92DF92EF92FF920F931F93CF93DF9311
:1013D000CDB7DEB7C45DD1090FB6F894DEBF0FBE3E
:1013E000CDBF7C014B015A016DB67EB6FC01078171
:1013F00010E0C80101962DB73EB7281B390B0FB678
:10140000F8943EBF0FBE2DBF8DB79EB701966C01FD
:1014100065817681A8010E94411CF601E00FF11F51
:101420001082B601CE0181539F4F0E94D208F7016E
:101430008181813029F58BE092E00E944405F7011B
:101440004085518584E591E0C753DF4F99838883B8
:10145000C95CD040F40182819381A481B581C553D8
:10146000DF4F88839983AA83BB83CB5CD0409E01E6
:101470002F5F3F4FB501CE0187539F4F0E94A906B2
:10148000CE0181539F4F0E9499070FB6F8947EBEFC
:101490000FBE6DBECC52DF4F0FB6F894DEBF0FBE4D
:1014A000CDBFDF91CF911F910F91FF90EF90DF9013
:1014B000CF90BF90AF909F908F907F906F90089546
:1014C000AF92BF92CF92DF92EF92FF920F931F9352
:1014D000CF93DF9300D000D0CDB7DEB78C016B0186
:1014E0007A0180919D028333E9F45B016801C40EA7
:1014F000D51EC016D106A9F10E94DA028FE00E9423
:10150000E502812F0E94E502802F0E94E5020F5F15
:101510001F4F80E00E94E502F50181935F010E9468
:10152000D002E7CF843369F50E94DA0219830A8377
:101530008F2D8F778B83EC8264E070E0CE01019673
:101540000E94B602A70170E060E0C6010E944A1C3A
:10155000E114F10421F0B701C6010E94B6020E9415
:10156000D002C7010F900F900F900F90DF91CF9195
:101570001F910F91FF90EF90DF90CF90BF90AF90B1
:1015800008950E94DA020F3F110509F030F4198224
:101590000A831B8263E070E0D1CF17FD0BC0198274
:1015A0000A8333E0169507953A95E1F7007E0860C7
:1015B0000B83F0CFC80126E0969587952A95E1F731
:1015C000807E19830A830115104C18F480618B8387
:1015D000E1CF8861FCCFCF93DF931F92CDB7DEB709
:1015E00020919E0230E0322F2227260F371F90E0F5
:1015F000982F882741E050E0BE016F5F7F4F820F38
:10160000931F0E94600A89810F90DF91CF91089506
:10161000CF93C82F462F61E070E00E94E30361E0A2
:1016200070E08C2F0E94EB0A8111F9CFCF910895C1
:10163000CF93C82F80E591E00E94A70060E170E0A1
:101640008C2FCF910C94080BCF93DF93EC01888DF6
:10165000843020F40E94180B84E0888FDF91CF91B2
:101660000895CF93FC01C08D80E591E00E94A70012
:1016700060E270E08C2F0E94080B62E070E08C2F1B
:101680000E94EB0A84FD16C062E070E08C2F0E947D
:10169000EB0A83FF0AC048E162E070E08C2F0E94F1
:1016A000E30380E090E0CF91089580E591E00E940F
:1016B000A700E3CF40E162E070E08C2F0E94E303DB
:1016C00081E0F0CFCF93DF931F92CDB7DEB741E03B
:1016D00050E0BE016F5F7F4F90E080E00E94600AA3
:1016E00089810F90DF91CF910895CF93DF93C4E16B
:1016F000D0E00E94620B882361F061E070E080E03E
:1017000090E00E9484022197A1F780E0DF91CF91C1
:10171000089581E0FBCFCF92DF92EF92FF920F937B
:101720001F93CF93DF93CDB7DEB7C454D1090FB663
:10173000F894DEBF0FBECDBFFC0182819381A481EE
:10174000B58123968CAF9DAFAEAFBFAF239721E09D
:1017500023962FAF239723964CAD5DAD6EAD7FAD35
:1017600023974BAB5CAB6DAB7EAB89AF9AAFABAFA6
:10177000BCAF8DA79EA7AFA7B8AB28AB4DA55EA504
:101780006FA578A94FA358A769A77AA72EAB4BA935
:101790005CA96DA97EA949A35AA36BA37CA38B8FD7
:1017A0009C8FAD8FBE8F44E551E05C8B4B8B3FEF40
:1017B0003D8B3E8B3F8B188E5E874D872AA7CFA02F
:1017C000D8A4E9A4FAA4CF86D88AE98AFA8A2CA3F5
:1017D00009A11AA12BA13CA109871A872B873C8755
:1017E0005A8349838B839C83AD83BE8380919F0200
:1017F0008111ABC060E372E080E090E00E9484025F
:10180000DFB6F8940AE910E03EEAE32E30E0F32E6A
:1018100080919C02811122C0F8018491F70194917A
:10182000E82FF0E0EE0FFF1FEA57FF4FA591B491AC
:101830008C91982321F461E08AE00E94B7018AE04C
:101840000E9488008CB580618CBD8CB580648CBD95
:101850008DE00E9488008BE00E94880080919C02AD
:101860008F5F80939C02DFBEF8010491E02FF0E0CF
:10187000EE0FFF1FE458FF4F8591949190939B02C8
:1018800080939A02F701E490E09299028AE00E9424
:1018900088000E94D00280E591E00E94A70084E3C6
:1018A00080939D0280E80E949C030E94750B882310
:1018B00009F481C088E00E949C030E94620B88307A
:1018C00009F079C080E10E949C030E94620B803184
:1018D00009F071C080E00E949C030E94620B182FE7
:1018E000811169C041E050E0BE016D5B7F4F8FE127
:1018F00090E00E94600A24968FAD2497833009F00F
:101900005AC080E480939E0242E06EE170E0812F35
:101910000E94E30342E06FE170E0812F0E94E30345
:101920001F5F143089F740E06EE170E0812F0E9464
:10193000E30340E06FE170E0812F0E94E3031F5F4B
:10194000183089F781E080939F0280E591E00E9442
:10195000A70046E050E062E071E089E090E00E947C
:10196000EC0244E050E0BE016D5F7F4F8FE090E0FD
:101970000E94EC0244E050E0BE01615F7F4F81E0D5
:1019800090E00E94EC0244E050E0BE016B5E7F4FAD
:1019900085E090E00E94EC0281E08C8789859A8541
:1019A000AB85BC8580935D0390935E03A0935F033A
:1019B000B09360036FC087E380939D0280E80E942C
:1019C0009C030E94750B882339F188E00E949C03D8
:1019D0000E94620B883001F580E10E949C030E9406
:1019E000620B182F8031C1F480E00E949C030E949A
:1019F000620B811111C041E050E0BE016D5B7F4F71
:101A000089E390E00E94600A24968FAD2497843089
:101A100019F410939E0296CF83E380939D0280E891
:101A20000E949C030E94750B882391F180E10E9423
:101A30009C030E94620B803159F582E10E949C0355
:101A40000E94620B823121F580E00E949C030E947B
:101A5000620B81111DC084E080939E0215E52596DE
:101A60001FAF259741E050E0BE016C5B7F4F8BE1DB
:101A700090E00E94EC0224961FAF249741E050E0D2
:101A8000BE016D5B7F4F8AE190E00E94EC025ACF6D
:101A900010929D02CC5BDF4F0FB6F894DEBF0FBEF5
:101AA000CDBFDF91CF911F910F91FF90EF90DF900D
:101AB000CF9008951F93CF93DF931F92CDB7DEB7DA
:101AC000FC01108D143020F5818D928D892B01F150
:101AD00080E591E00E94A700812F0E94AF0327E0DC
:101AE000129FF0011124E358FD4F2281338137709A
:101AF00041E050E0BE016F5F7F4F820F931F0E9455
:101B0000600A898190E00F90DF91CF911F91089535
:101B10008FEF9FEFF8CFDA01E0919E02F0E0FE2F09
:101B2000EE27E60FF71F90E0982F8827A901BD0147
:101B30008E0F9F1F0C94600A8F929F92AF92BF925C
:101B4000CF92DF92EF92FF921F93CF93DF93CDB7A7
:101B5000DEB72C970FB6F894DEBF0FBECDBF209135
:101B60009D0214E0222339F16B017C0180E591E0B4
:101B70000E94A7005E0127E0A20EB11C450110E003
:101B800063E070E0812F0E94EB0AF40181934F0122
:101B9000882349F11F5F143099F710E0F501819116
:101BA0005F018D31D9F08831C9F08A518230B0F0AF
:101BB0001F5F143099F7812F2C960FB6F894DEBF73
:101BC0000FBECDBFDF91CF911F91FF90EF90DF90BF
:101BD000CF90BF90AF909F908F90089560E170E09C
:101BE000812F0E94080BA12EB12C83EE93E0019768
:101BF000F1F742E870E060E0812F0E94E3034FEFCD
:101C000062E070E0812F0E94E303B601C114D104A9
:101C100091F4809100019091010101968115F0EC01
:101C20009F0708F464C090930101809300016091C4
:101C3000000170910101812F0E94CE0386E0EEE049
:101C4000F1E0DE01119601900D928A95E1F7F7011E
:101C500083818F778C8384818D8385818E83A70197
:101C60004E5F5F4F24E030E06CE070E0812F0E9417
:101C7000BD03DB86CC8622E030E0AE01455F5F4FDE
:101C800060E170E0812F0E94BD0326E030E0AE01EC
:101C90004F5F5F4F66E070E0812F0E94BD0361E0FF
:101CA00070E0812F0E94080B27E02A9DC0012B9D28
:101CB000900D11249C0123583D4F7901F9011182A7
:101CC000108222E030E0AE01455F5F4F68E270E0D5
:101CD000812F0E948B0D8B859C85982789279827BB
:101CE000F7019383828316821582148264CF80E089
:101CF00090EC99CFCF92DF92EF92FF920F931F93C8
:101D0000CF93DF9300D000D000D0CDB7DEB78C01E9
:101D10006B017A01FC01808D843010F40E94180B55
:101D200084E591E09A838983F60182819381A4817D
:101D3000B5818B839C83AD83BE83B701CE010196B1
:101D40000E949C0DF801808F8430A0F4F586E48613
:101D5000128E118E81E026960FB6F894DEBF0FBE6C
:101D6000CDBFDF91CF911F910F91FF90EF90DF904A
:101D7000CF90089580E0EFCFFF920F931F93CF9302
:101D8000DF9300D0CDB7DEB7F82E22E030E0AE0111
:101D90004F5F5F4F66E270E00E948B0D09811A81F0
:101DA00010270127102722E030E0AE014F5F5F4F80
:101DB00066E270E08F2D0E948B0D89819A819827B1
:101DC000892798270817190749F4C8010F900F9021
:101DD000DF91CF911F910F91FF9008958C01E3CF78
:101DE0004F925F927F928F929F92AF92BF92CF92CB
:101DF000DF92EF92FF920F931F93CF93DF9300D068
:101E0000CDB7DEB7782E6B014A01A82EB12C27E0A2
:101E1000829FC0011124FC01E358FD4F7F01008126
:101E2000118180E591E00E94A7000815190554F47E
:101E3000872D0E94BC0EF70126818C01021B11091F
:101E4000118300830115110529F563E070E0872DEA
:101E50000E94EB0A843159F0882349F001E010E038
:101E60008C3111F410E000E0119501951109C801C1
:101E70000F900F90DF91CF911F910F91FF90EF90F6
:101E8000DF90CF90BF90AF909F908F907F905F90AA
:101E90004F900895801691060CF4840187E08A9D86
:101EA000F0018B9DF00D1124E358FD4FE280F3808B
:101EB000C114D10451F12701F7E05F22872D0E9460
:101EC000AF03840D951D20919D02273309F453C063
:101ED0009801240D351D2130384008F44CC020E015
:101EE00038E0490184189508A401B6010E94600AEF
:101EF0002601480C591C6801C818D908872D0E9472
:101F0000AF03A601B2010E94600AE00EF11E87E055
:101F10008A9DF0018B9DF00D1124E358FD4FF38253
:101F2000E28220813181201B310B31832083868125
:101F3000800F912F911D8A3F910510F4232BF1F40E
:101F400087E08A9DF0018B9DF00D1124E358FD4F31
:101F50001682F982EA8222E030E0AE014F5F5F4FE5
:101F600068E270E0872D0E94BD0360E470E0872D79
:101F70000E94080B7CCFA801B601C5CF868377CF1E
:101F8000CF93DF93FC01218D328D2115310529F48A
:101F90008FEF9FEFDF91CF910895EC01808D421775
:101FA000530708F0A9010E94F00E1816190684F7CD
:101FB000298D3A8D281B390B3A8F298FEBCF0F9340
:101FC0001F93CF93DF931F92CDB7DEB7FC01218D16
:101FD000328D232B41F48FEF9FEF0F90DF91CF9144
:101FE0001F910F9108958C0141E050E0BE016F5F99
:101FF0007F4FFC01808D0E94F00E181619065CF7C9
:10200000F801818D928D0197928F818F898190E067
:10201000E4CFDF92EF92FF920F931F93CF93DF9362
:10202000CDB7DEB728970FB6F894DEBF0FBECDBF91
:102030008C01D80159964D915C915A9741155105E3
:1020400051F0ED91FC91048CF58DE02D70E060E095
:10205000C8010995EECFF801D08CF7E0DF9EC001F2
:1020600011249C0123583D4F7901D9018D919C91F8
:10207000892B59F148E050E0BE016F5F7F4FF801B6
:10208000808D0E94F00E1816190694F5D80150960E
:1020900084E0FE01319601900D928A95E1F78D81E1
:1020A00090E0982F88272E81820F911DF801958B43
:1020B000848B8F81282F30E0322F22278885820F52
:1020C000932F911D928F818F13C080E591E00E9424
:1020D000A7008D2D0E94BC0ED70116962C91169745
:1020E000821B91098D939C93892B21F690E080E0CF
:1020F00028960FB6F894DEBF0FBECDBFDF91CF910B
:102100001F910F91FF90EF90DF9008953F924F92B3
:102110005F926F927F928F929F92AF92BF92CF9277
:10212000DF92EF92FF920F931F93CF93DF9300D034
:10213000CDB7DEB75C014B01342E452EFC0166881D
:102140007788508C80E591E00E94A70022E030E083
:10215000AE014F5F5F4F60E270E0852D0E948B0DF6
:10216000C980DA80DC24CD24DC2422E030E0AE011A
:102170004F5F5F4F60E270E0852D0E948B0D89817B
:102180009A81982789279827C816D90609F079C017
:10219000E52CF12C67E0569EF0011124E358FD4F29
:1021A000D582C482032D142DC016D10608F48601F1
:1021B00022E030E0AE014F5F5F4F64E270E0852DBA
:1021C0000E948B0D89819A81982789279827680E0C
:1021D000791E9301377040919D02433309F053C03B
:1021E00088E0E80EF11CFE2CEE24FF0CFF0CFF0C27
:1021F000C9018E0D9F1D473309F449C0A901400F45
:10220000511F4130584008F442C060E078E06B0153
:10221000C21AD30AA601B4010E94EC02A8014C190B
:102220005D09B4016C0D7D1DC7010E94EC02600EBA
:10223000711E79826A8222E030E0AE014F5F5F4F0B
:1022400064E270E0852D0E94BD03F50186899789BF
:10225000800F911F978B868BC8010F900F90DF9195
:10226000CF911F910F91FF90EF90DF90CF90BF9093
:10227000AF909F908F907F906F905F904F903F9026
:1022800008956C0172CFE0E1EE0EF11CACCFA80115
:10229000B401CBCF8F929F92AF92BF92CF92DF9239
:1022A000EF92FF921F93CF93DF9300D000D000D026
:1022B000CDB7DEB76C015B01FC01808D843010F47A
:1022C0000E94180B80919D02811115C094E0F601C7
:1022D000908F26960FB6F894DEBF0FBECDBFDF916C
:1022E000CF911F91FF90EF90DF90CF90BF90AF9074
:1022F0009F908F90089580E591E00E94A7009E0135
:102300002F5F3F4F7901490110E063E070E0812FBA
:102310000E94EB0AF40181934F01882309F11F5FAA
:10232000143099F710E0F70181917F018D3199F018
:10233000883189F08A51823070F01F5F143099F72C
:10234000F601108F80E0143021F2B586A486128E3B
:10235000118E81E0BECF60E170E0812F0E94080BFA
:10236000E12EF12C83EE93E00197F1F742E070E06B
:1023700060E0812F0E94E3034FEF62E070E0812F65
:102380000E94E303B501A114B10489F48091000116
:102390009091010101968115F0EC9F0798F19093BF
:1023A0000101809300016091000170910101812F72
:1023B0000E94CE0361E070E0812F0E94080B27E0AD
:1023C0002E9DC0012F9D900D11249C0123583D4F3F
:1023D0007901F9011182108222E030E0AE014B5FF9
:1023E0005F4F68E270E0812F0E948B0D8D819E818E
:1023F000982789279827F70193838283168215826D
:1024000014829ECF80E090ECCACF6F927F928F9221
:102410009F92AF92BF92CF92DF92EF92FF920F9373
:102420001F93CF93DF93CDB7DEB7EC970FB6F89439
:10243000DEBF0FBECDBF4C018B013A0184E591E0B8
:102440009A8389831C861B8648EE53E060E070E027
:102450004D875E876F87788B2AE231E03A8729873C
:10246000988F8F8B198E1A8E1B8E1C8E24E029A3B9
:1024700099AB88AB1AAA1BAA1CAA1DAA80915D035E
:1024800090915E03A0915F03B09160038EA39FA320
:10249000A8A7B9A78B839C83AD83BE8318861F82B0
:1024A000F80120E090E080E06AE03191332309F404
:1024B00084C040ED430F4A3008F06EC0689FA00111
:1024C000699F500D1124CA01C097830F911D37FDDC
:1024D0009A958F3F910549F340F34B815C816D8163
:1024E0007E818091690390916A03A0916B03B09102
:1024F0006C03481759076A077B0709F44BC22FB7CB
:10250000F8948091750290917602A0917702B09133
:1025100078022FBF8F709927BC017C5FCE0109968E
:102520000E944A11813009F038C284E591E09DA3F0
:102530008CA38B819C81AD81BE818EA39FA3A8A714
:10254000B9A745E350E0BE016C5D7F4FCE0109960F
:102550000E941C04892B09F04EC010E000E0CE015F
:1025600009960E94240B0130110559F1C801EC961F
:102570000FB6F894DEBF0FBECDBFDF91CF911F9194
:102580000F91FF90EF90DF90CF90BF90AF909F9012
:102590008F907F906F9008953E3209F09ECF233048
:1025A00009F49BCFA2E3B0E0AC0FBD1FA20FB11D99
:1025B0008C932F5F90E080E078CF233009F08DCFAF
:1025C0008DABD401ED91FC910488F589E02D84E573
:1025D00091E09DA38CA38AA99BA9ACA9BDA98EA3B8
:1025E0009FA3A8A7B9A7A301BE016C5D7F4FC4013B
:1025F00009958C01BBCF2FB7F8948091750290910B
:102600007602A0917702B09178022FBF98878F83CE
:1026100042E050E0BE01695F7F4FCE0109960E9403
:10262000861081E090E09DA38CA342E050E0BE01C3
:102630006C5D7F4FCE0109960E94861080E091E08C
:102640009DA38CA342E050E0BE016C5D7F4FCE01A4
:1026500009960E9486101DA21CA242E050E0BE0115
:102660006C5D7F4FCE0109960E94861042E050E0DB
:10267000BE016C5D7F4FCE0109960E94861042E03C
:1026800050E0BE016C5D7F4FCE0109960E9486101E
:102690007801D8018C91882311F18701F80181918B
:1026A0006F01882311F08E32C1F45801AE18BF08B3
:1026B0001A141B0484F4AEAA41E050E0BE016A5C27
:1026C0007F4FCE0109960E948610A501B701CE0169
:1026D00009960E9486107601DCCF8601DFCF1EAA04
:1026E00041E050E0BE016A5C7F4FCE0109960E9436
:1026F000861000E011E01DA30CA342E050E0BE01F3
:102700006C5D7F4FCE0109960E9486101DA30CA31D
:1027100042E050E0BE016C5D7F4FCE0109960E9401
:102720008610CE0109960E94310B892B09F415CF32
:1027300083E0E82EF12CD7C04B815C816D817E81D6
:10274000898D9A8DAB8DBC8D481759076A077B0719
:1027500009F01AC18D8D9E8DC59709F015C18AA10A
:102760009BA10DEF1FEF0C970CF4B4C04CE050E0B0
:10277000BE016C5D7F4FCE0109960E94C00F8EA1F5
:102780009FA19827892798279BAF8AAF4F815885AB
:102790002CA13DA14217530709F0F9C097FFF7C0DC
:1027A0008F7092700BEF1FEF892B09F093C0AAA4D2
:1027B000BBA4BA24AB24BA240AEF1FEFA114B104BE
:1027C00009F488C010E000E088A599A5982789271A
:1027D00098270817190708F541E050E0BE016A5C28
:1027E0007F4FCE0109960E94C00F4EA9442339F0B5
:1027F00050E070E060E0CE0109960E94C00F8EA903
:102800008111EACF44E050E070E060E0CE0109962B
:102810000E94C00F0F5F1F4FD7CFD12CC12C41E0BA
:1028200050E0BE01645C7F4FCE0109960E94C00F4C
:102830004CAD842F807C09F084C0442339F050E0F3
:1028400070E060E0CE0109960E94C00F8CAD81114E
:10285000E6CF42E050E0BE01685C7F4FCE010996B2
:102860000E94C00F42E050E0BE016A5C7F4FCE0183
:1028700009960E94C00F44E050E070E060E0CE0195
:1028800009960E94C00F42E050E0BE01665C7F4F97
:10289000CE0109960E94C00F88AD99AD4AAD5BADDF
:1028A0008115914009F057C00EA91FA910270127D3
:1028B00010270130110509F04EC04115544009F0B0
:1028C0005DC044E050E0BE016E5C7F4FCE010996D2
:1028D0000E94C00FF1E0EF1AF10809F440CE0F3F5B
:1028E000100709F03CCE8FB7F894A0907502B09015
:1028F0007602C0907702D09078028FBFCE01099601
:102900000E940910181619060CF416CF2FB7F89468
:102910008091750290917602A0917702B091780231
:102920002FBF8A199B09AC09BD0989389341A105BC
:10293000B10538F562E370E080E090E00E94840227
:10294000DDCF41E050E070E060E0CE0109960E94EA
:10295000C00F1CAE7BCF54274527542770E060E0A2
:10296000CE0109960E94C00FEFEFCE1ADE0AAC141A
:10297000BD0409F054CF06EF1FEFACCF07EF1FEFF8
:10298000A9CF0FEF1FEFA6CF0EEF1FEFA3CF0CEFD6
:102990001FEFA0CF0EEF1FEFE9CD10E000E0E6CD76
:1029A0001F920F920FB60F9211242F933F934F93C4
:1029B0005F936F937F938F939F93AF93BF93EF93A7
:1029C000FF9380EA92E00E942801FF91EF91BF916E
:1029D000AF919F918F917F916F915F914F913F91B7
:1029E0002F910F900FBE0F901F9018951F920F926E
:1029F0000FB60F9211242F938F939F93EF93FF9312
:102A0000E091B002F091B1028081E091B602F091C4
:102A1000B70282FD1BC090818091B9028F5F8F73D6
:102A20002091BA02821741F0E091B902F0E0E0563D
:102A3000FD4F958F8093B902FF91EF919F918F91F8
:102A40002F910F900FBE0F901F9018958081F4CF9B
:102A50001F920F920FB60F9211242F933F938F93D3
:102A60009F93AF93BF938091750290917602A0914E
:102A70007702B09178023091740223E0230F2D3752
:102A800058F50196A11DB11D209374028093750223
:102A900090937602A0937702B093780280917902A6
:102AA00090917A02A0917B02B0917C020196A11DC7
:102AB000B11D8093790290937A02A0937B02B09328
:102AC0007C02BF91AF919F918F913F912F910F9079
:102AD0000FBE0F901F90189526E8230F0296A11D98
:102AE000B11DD2CF0F931F93CF93DF931092A30208
:102AF0001092A20248EE53E060E070E04093A4021E
:102B00005093A5026093A6027093A70288E191E01A
:102B10009093A1028093A00285EC90E09093AD0287
:102B20008093AC0284EC90E09093AF028093AE026D
:102B300080EC90E09093B1028093B00281EC90E041
:102B40009093B3028093B20282EC90E09093B5022E
:102B50008093B40286EC90E09093B7028093B60223
:102B60001092B9021092BA021092BB021092BC02EB
:102B700084E591E090933E0380933D0310923F03E0
:102B80001092400310924103109242039093440329
:102B9000809343031092450310924603109247031B
:102BA0001092480390934A038093490310924B0379
:102BB00010924C0310924D0310924E0390935003C9
:102BC00080934F03109251031092520310925303BB
:102BD0001092540390935603809355031092570319
:102BE000109258031092590310925A039093620363
:102BF0008093610310926303109264031092650343
:102C00001092660390935C0380935B0310925D03C4
:102C100010925E0310925F0310926003909368031A
:102C2000809367031092690310926A0310926B03FA
:102C300010926C0390936E0380936D0310926F0358
:102C40001092700310927103109272039093E50337
:102C50008093E4031092E6031092E7031092E803D6
:102C60001092E9031092CC031092CB034093CD0352
:102C70005093CE036093CF037093D0032AE231E0E8
:102C80003093CA032093C9039093D8038093D7034A
:102C90001092D9031092DA031092DB031092DC0336
:102CA00084E08093E103D0E0C0E068E571E0CE010C
:102CB00087589C4F0E94D2082696CC33D105A9F79D
:102CC00005EB13E0D0E0C0E050E040E068E571E0E3
:102CD000CE0187589C4F0E94FB07F8011192119278
:102CE0008F012696CC33D10579F789EC93E0909348
:102CF00074038093730384E591E09093EB038093D6
:102D0000EA031092EC031092ED031092EE0310927E
:102D1000EF03DF91CF911F910F910895CF93DF9330
:102D2000CDB7DEB7CC5AD1090FB6F894DEBF0FBECF
:102D3000CDBF789484B5826084BD84B5816084BD44
:102D400085B5826085BD85B5816085BD80916E0049
:102D5000816080936E00109281008091810082607A
:102D600080938100809181008160809381008091B7
:102D700080008160809380008091B10084608093A6
:102D8000B1008091B00081608093B00080917A00A2
:102D9000846080937A0080917A00826080937A00C8
:102DA00080917A00816080937A0080917A008068B7
:102DB00080937A001092C100E091B002F091B102CC
:102DC00082E08083E091AC02F091AD021082E0914C
:102DD000AE02F091AF028FEC80831092B802E091C6
:102DE000B402F091B50286E08083E091B202F091E6
:102DF000B302808180618083E091B202F091B302DE
:102E0000808188608083E091B202F091B30280817A
:102E100080688083E091B202F091B30280818F7D5F
:102E2000808384E591E09DAB8CAB20EC2EAB28EA4F
:102E30002FAB21E028AF24E229AF9A8389838EA9A2
:102E40009FA9A8ADB9AD8B839C83AD83BE83CE0112
:102E500001960E948B0B60E372E080EA92E00E9490
:102E60009F0460EA72E0CE01C4960E94FA0466E50F
:102E700071E080EA92E00E949F0488E392E00E9461
:102E800044056EE472E0CE0101960E94D208BE01B4
:102E90006F5F7F4F83EE98E00E944708CE01019656
:102EA0000E94990762E572E0CE0101960E94D20865
:102EB000BE016F5F7F4F8AED99E00E944708CE0107
:102EC00001960E94990768E572E0CE0101960E9482
:102ED000D208BE016F5F7F4F8CEF96E00E944708DB
:102EE000CE0101960E94990780917303909174031B
:102EF000DC01ED91FC910684F785E02D63E376E13A
:102F0000099589E692E00E944405E7E62E2E312CD1
:102F10002C0E3D1EB4E02B0E311C6E01EBEACE0EE2
:102F2000D11C74E5472E71E0572E80917303909168
:102F30007403DC01ED91FC91028CF38DE02D099579
:102F4000092E000CAA0BBB0B181619061A061B0635
:102F50000CF01CC12091730330917403AC01BD01CE
:102F6000433351056105710524F042E350E060E010
:102F700070E0D901ED91FC91048CF58DE02DBE013E
:102F800069597F4FC90109958430910574F2A8965B
:102F9000EFADA8972E2F22952695269523702130E8
:102FA00021F62E2F30E064E0359527956A95E1F7FC
:102FB000B22FB370BB2EBCABEF70E8AFA9962FADAC
:102FC000A9972DABAA962FADAA97AB963FADAB971D
:102FD0002327322723273DAF2CAFE1119EC01FAA24
:102FE0001EAAF0E03496E817F9070CF06DC027E64A
:102FF00030E02C0F3D1F820F931FE20FF31FDE0105
:10300000D496F12CE12C10E000E020812F3F09F450
:103010004AC0E817F90708F046C0BC016E1B7F0BD9
:1030200009F4B4C0422F42954F702F70A22E4D303C
:1030300009F079C06130710509F4A8C0218130E040
:10304000235F3F4F319652E0952E4DE0A41283C08E
:1030500093949616170611F008F098C0418150E03D
:10306000435F5F4F3196BA016F5F7F4F6E0F7F1FD7
:103070008617970708F48AC05E2D520F1B965C9343
:103080001B9731961E96FC93EE931D971C964C93BE
:103090001C97E20EF31E0F5F1F4F1496FB010A30C0
:1030A000110509F0B2CF0EAF9F012F5F3F4F2817D8
:1030B000390708F078C040814F3F09F074C03AAF3B
:1030C00029AF821B930B8BAF22E0B21270C000912C
:1030D0007503109176038091730390917403DC0162
:1030E000ED91FC9102A0F3A1E02D09957C01609186
:1030F000730370917403DB01ED91FC9100A0F1A1C9
:10310000E02DCE0101960995A701BE016F5F7F4FAB
:10311000CE01C496F801099508CFE93008F005CF33
:103120003FAA2EAA5ECF242F30E04E3071F46330D8
:10313000710560F121813281322723273227235FF5
:103140003E4F329643E0942E80CF2F303105F1F080
:10315000992493947ACF4A2D50E00F2EFEE08F2EC3
:10316000F02DA8100FC0939493949616170609F0AB
:1031700068F441815281542745275427435F5E4FAD
:10318000329671CF4F30510509F06DCF80E090E05D
:10319000892B09F4CACE0E941401882309F4C1CEF8
:1031A0000E940000BACE1AAE19AE1BAE8DCFB11080
:1031B000BCCE68E571E0CE018B559F4F0E94D208CE
:1031C0009E012C5C3F4F7901B12CA12C8EAD8A154C
:1031D0001B0409F00CF44AC0D7011B968C911B9775
:1031E0008B30E9F51C960C911C970023C1F16DB64C
:1031F0007EB610E0C8010196EDB7FEB7E81BF90BEB
:103200000FB6F894FEBF0FBEEDBF2DB73EB72F5FD0
:103210003F4F49011D966D917C91A801C9010E9403
:10322000411CF401E00FF11F1082C755DF4F888168
:103230009981C95AD040892B39F060E772E0CE01FC
:103240008B559F4F0E94C907B401CE018B559F4FEC
:103250000E94C9070FB6F8947EBE0FBE6DBE3FEF49
:10326000A31AB30A44E0E40EF11CB0CF1A8219820B
:103270001C821B821E821D82BE016B557F4FCE01B8
:1032800001960E942608CE0101960E9463078C01D8
:10329000CE0101960E949907012B09F05BC0ECACAE
:1032A000FDAC8091730390917403DC01ED91FC916E
:1032B00002A0F3A1E02D09958C0160917303709138
:1032C0007403DB01ED91FC9100A0F1A1E02DCE0192
:1032D00081569F4F0995B2E0B983E4E8EA831C82E6
:1032E0001B821D821F821E821886FA86E986EFEFF6
:1032F000D601EC93FFEF1196FC93DF86CE8682E039
:10330000882E8D868CE08C8781E08B87C756DF4FB7
:1033100059824882C959D040CF55DF4F8881998161
:10332000AA81BB81C15AD040C556DF4F888399839B
:10333000AA83BB83CB59D040A801BE0167567F4FFB
:10334000CE0101960E945705CE018B559F4F0E94DA
:103350009907EBCDC756DF4F19821882C959D04063
:10336000C556DF4F19821882CB59D040C356DF4F64
:1033700019821882CD59D040BE016B557F4FCE01C6
:1033800087569F4F0E942608CE0187569F4F0E9466
:1033900063078C018091730390917403DC01ED91BC
:1033A000FC9102A0F3A1E02D09957C0160917303CB
:1033B00070917403DB01ED91FC9100A0F1A1E02D6F
:1033C000CE0101960995A701BE016F5F7F4FCE0127
:1033D000C496F8010995CE0187569F4F0E94990720
:1033E000B3CFCF93DF93C5EBD3E02697CE010E94F6
:1033F000990783E0C937D807C1F7DF91CF910895C6
:103400002F923F924F925F926F927F928F929F92F4
:10341000AF92BF92CF92DF92EF92FF920F931F93E2
:10342000CF93DF93CDB7DEB7CA1BDB0B0FB6F89493
:10343000DEBF0FBECDBF09942A88398848885F84D3
:103440006E847D848C849B84AA84B984C884DF8044
:10345000EE80FD800C811B81AA81B981CE0FD11D28
:103460000FB6F894DEBF0FBECDBFED010895A1E207
:103470001A2EAA1BBB1BFD010DC0AA1FBB1FEE1FEE
:10348000FF1FA217B307E407F50720F0A21BB30B39
:10349000E40BF50B661F771F881F991F1A9469F7B5
:1034A00060957095809590959B01AC01BD01CF0111
:1034B0000895EE0FFF1F0590F491E02D09940F93EE
:1034C0001F93CF93DF938230910510F482E090E058
:1034D000E091F203F091F30330E020E0B0E0A0E0EF
:1034E000309799F42115310509F44AC0281B390B8E
:1034F00024303105D8F58A819B816115710589F1E8
:10350000FB0193838283FE0111C0408151810281BE
:10351000138148175907E0F04817590799F4109795
:1035200061F012960C93129713961C933296CF016A
:10353000DF91CF911F910F9108950093F2031093A3
:10354000F303F4CF2115310551F04217530738F03A
:10355000A901DB019A01BD01DF01F801C1CFEF0133
:10356000F9CF9093F3038093F203CDCFFE01E20FE6
:10357000F31F819391932250310939832883D7CF48
:103580002091F0033091F103232B41F420910A01A3
:1035900030910B013093F1032093F0032091080147
:1035A000309109012115310541F42DB73EB7409105
:1035B0000C0150910D01241B350BE091F003F091AB
:1035C000F103E217F307A0F42E1B3F0B281739076E
:1035D00078F0AC014E5F5F4F2417350748F04E0F6F
:1035E0005F1F5093F1034093F003819391939FCF1A
:1035F000F0E0E0E09CCFCF93DF930097E9F0FC018F
:10360000329713821282A091F203B091F303ED017D
:1036100030E020E01097A1F420813181820F931FC8
:103620002091F0033091F1032817390709F061C0A8
:10363000F093F103E093F003DF91CF910895EA0155
:10364000CE17DF07E8F54A815B819E0141155105E0
:10365000B1F7E901FB83EA8349915991C40FD51F62
:10366000EC17FD0761F4808191810296840F951F0C
:10367000E90199838883828193819B838A83F0E027
:10368000E0E012968D919C9113970097B9F52D91DA
:103690003C911197CD010296820F931F2091F00368
:1036A0003091F1032817390739F6309751F5109208
:1036B000F3031092F203B093F103A093F003BCCF95
:1036C000D383C28340815181840F951FC817D907C6
:1036D00061F44E5F5F4F88819981480F591F518374
:1036E00040838A819B81938382832115310509F070
:1036F000B0CFF093F303E093F2039ECFFD01DC0122
:10370000C0CF13821282D7CFB0E0A0E0EAE8FBE19D
:103710000C94021A8C01009751F4CB010E945F1A9D
:103720008C01C801CDB7DEB7E0E10C941E1AFC0194
:10373000E60FF71F9C0122503109E217F30708F446
:103740009DC0D901CD91DC911197C617D70798F08C
:10375000C530D10530F3CE0104978617970708F3DB
:10376000C61BD70B2297C193D1936D937C93CF0146
:103770000E94FB1AD6CF5B01AC1ABD0A4C018C0E1D
:103780009D1EA091F203B091F303512C412CF12C1A
:10379000E12C109731F58091F0039091F103881599
:1037A000990509F05CC04616570608F058C080918C
:1037B000080190910901009741F48DB79EB740919F
:1037C0000C0150910D01841B950BE817F90708F0C7
:1037D00055C0F093F103E093F003F9017183608326
:1037E000A0CF8D919C91119712966C901297139681
:1037F0007C901397A815B90559F56C0142E0C40EE9
:10380000D11CCA14DB0420F1AC014A195B09DA01AE
:103810001296159780F06282738251834083D9019A
:103820006D937C93E114F10471F0D7011396FC932E
:10383000EE93129776CF22968C0F9D1FF9019183FC
:103840008083F301EFCFF093F303E093F20369CFAA
:103850004816590608F42C017D01D3019ACFCB01FB
:103860000E945F1A7C01009749F0AE01B8010E94E6
:10387000411CC8010E94FB1A870153CF10E000E0F1
:1038800050CFFB01DC0102C001900D92415050402D
:10389000D8F70895DC0101C06D9341505040E0F726
:1038A0000895FB01DC018D91019080190110D9F37D
:1038B000990B0895FB01DC0101900D920020E1F7C6
:1038C000089510E0CDE5D0E004C0FE010E94591A31
:0C38D0002196CE35D107C9F7F894FFCF40
:1038DC0000C03C4937070D450000F403800001008F
:1038EC005E000000000000004A01AA00D70097010A
:1038FC000801E600FA0000000000010486109C0498
:10390C0000041704DF0F5A0D4A117A0E240B1C0405
:10391C000512310B0910C00F9504850481047D0438
:10392C0000000000FA040D0A0052656365697665B3
:10393C0064207265717565737420666F72202F2E0A
:10394C0077656C6C2D6B6E6F776E2F636F72652065
:10395C007265736F7572636573003C2F2E77656C9F
:10396C006C2D6B6E6F776E2F636F72653E2C203CE7
:10397C002F6C65643E2C203C2F64687431313E0002
:10398C005265636569766564205055542072657183
:10399C007565737420666F72206C656420636F6C40
:1039AC006F722E0030003200526563656976656473
:1039BC0020474554207265717565737420666F726B
:1039CC00206C656420636F6C6F722E00526564000E
:1039DC00477265656E00426C75650052656365697A
:1039EC007665642047455420726571756573742043
:1039FC00666F72206468742073656E736F722E002C
:103A0C004D792069703A20005374617274696E6745
:103A1C0020656E64706F696E74732E2E2E006C654B
:103A2C0064006468743131002E77656C6C2D6B6E9C
:103A3C006F776E2F636F72650052656164792E002B
:023A4C002F0049
:00000001FF
