:100000000C94FB000C9423010C9423010C94230109
:100010000C9423010C9423010C9423010C942301D0
:100020000C9423010C9423010C9423010C942301C0
:100030000C9423010C9423010C9423010C942301B0
:100040000C9447050C9423010C9415050C94EF04B3
:100050000C9423010C9423010C9423010C94230190
:100060000C9423010C94230107634236B79BD8A755
:100070001A39685618AEBAAB558C1D3CB7CC5763CD
:10008000BD6DEDFD753EF6177231BF000000803F7B
:1000900008000000BE922449123EABAAAA2ABECD97
:1000A000CCCC4C3E00000080BEABAAAAAA3E000009
:1000B0000000BF000000803F000000000008417801
:1000C000D3BB4387D1133D190E3CC3BD4282AD2B38
:1000D0003E68EC8276BED98FE1A93E4C80EFFFBE30
:1000E00001C4FF7F3F00000000004F626972457449
:1000F0006865726E65745544503A3A626567696E18
:100100005061636B657428636F6E737420636861FC
:1001100072202A686F73742C2075696E7431365F93
:100120007420706F7274293B206973206E6F742085
:10013000737570706F727465642120536F72727979
:1001400021002E004D79204950206164647265734E
:10015000733A20005D0030303A32353A3537002CA2
:1001600020004170722032362032303230002C2094
:1001700000433A5C55736572735C6164616D735CD6
:1001800074656D705C4164616D5F536D6F6C696E19
:10019000736B695C454253696D556E6F4574685C5D
:1001A000756E6F2D6F6269722D736F757263655C0A
:1001B0004F6269724574685F7A6164332E696E6F4D
:1001C0005C4F6269724574685F7A6164332E696E50
:1001D0006F2E696E6F006F6269722065746820759A
:1001E00064702073657276657220696E69742E2E54
:1001F0002E205B00910511241FBECFEFD8E0DEBF9B
:10020000CDBF11E0A0E0B1E0E4E7F9E102C0059064
:100210000D92A23AB107D9F722E0A2EAB1E001C0FB
:100220001D92A33FB207E1F710E0CBEFD0E004C08E
:100230002197FE010E94A10CCA3FD107C9F70E9475
:1002400004060C94B80C0C940000AF92BF92CF92AD
:10025000DF92EF92FF920F931F93CF93DF936C0186
:100260007B018B01040F151FEB015E01AE18BF0867
:10027000C017D10759F06991D601ED91FC91019019
:10028000F081E02DC6010995892B79F7C501DF9131
:10029000CF911F910F91FF90EF90DF90CF90BF9083
:1002A000AF900895FC01538D448D252F30E0842FAD
:1002B00090E0821B930B541710F0CF96089501978E
:1002C0000895FC01918D828D981761F0A28DAE0F7B
:1002D000BF2FB11D5D968C91928D9F5F9F73928F02
:1002E00090E008958FEF9FEF0895FC01918D828D2E
:1002F000981731F0828DE80FF11D858D90E00895FB
:100300008FEF9FEF0895FC01918D228D892F90E052
:10031000805C9F4F821B91098F739927089583E119
:1003200092E00E94830121E0892B09F420E0822FD2
:10033000089580E090E0892B29F00E948F018111BF
:100340000C9400000895FC01A48DA80FB92FB11DD5
:10035000A35ABF4F2C91848D90E001968F739927FB
:10036000848FA689B7892C93A089B1898C918370D9
:1003700080648C93938D848D981306C00288F389D2
:10038000E02D80818F7D80830895EF92FF920F93FF
:100390001F93CF93DF93EC0181E0888F9B8D8C8D31
:1003A00098131AC0E889F989808185FF15C09FB725
:1003B000F894EE89FF896083E889F98980818370E8
:1003C000806480839FBF81E090E0DF91CF911F9197
:1003D0000F91FF90EF900895F62E0B8D10E00F5FB8
:1003E0001F4F0F731127E02E8C8D8E110CC00FB68E
:1003F00007FCFACFE889F989808185FFF5CFCE0126
:100400000E94A301F1CFEB8DEC0FFD2FF11DE35AFC
:10041000FF4FF0829FB7F8940B8FEA89FB898081A8
:100420008062CFCFEF92FF920F931F93CF93DF9312
:100430008C017B01D0E0C0E0F701EC0FFD1F64915F
:10044000662339F0C8010E94C501892B11F021965D
:10045000F3CFCE01DF91CF911F910F91FF90EF90DD
:100460000895CF93DF93EC01888D8823B9F0AA8992
:10047000BB89E889F9898C9185FD03C0808186FD5F
:100480000DC00FB607FCF7CF8C9185FFF2CF8081AE
:1004900085FFEDCFCE010E94A301E9CFDF91CF917F
:1004A000089581E0089587E08CBF95EE9BBF1ABE4A
:1004B0008CBF86EE8BBF1ABE089590E080E0089551
:1004C00097E09CBF87EE8BBF2AB79CBF88EE8BBF9F
:1004D0008AB7322F282F9CBF85EE8BBF8AB79CBF6F
:1004E00096EE9BBF9AB7892798278927821B930B83
:1004F0004817590708F4CA01A9014751584FFB0191
:10050000DB01A80FB91FEA17FB0739F05CBF4BBF2F
:100510006AB761934F5F5F4FF6CF280F391F47E0EF
:100520004CBF57EE5BBF3ABF4CBF38EE3BBF2ABF54
:100530000895CF93DF931F92CDB7DEB7DC01ED9125
:10054000FC91028CF38DE02D41E050E0BE016F5F25
:100550007F4F09951816190634F4898190E00F90A1
:10056000DF91CF9108958FEF9FEFF9CFFC0197E0D6
:100570009CBF85EE8BBF8AB79CBF26EE2BBF6AB7A8
:100580009CBF27EE2BBF2AB79CBF98EE9BBF3AB704
:100590001CBE90E19BBF9AB71CBE4FE04BBF4AB751
:1005A0001CBE5EE05BBF5AB71CBE7DE07BBF7AB766
:1005B000708B518B428B938B1CBE91E19BBF4AB7D2
:1005C0001CBE92E19BBF9AB7542F492F558B448B89
:1005D000982F862F232732272327821B930B0895DA
:1005E0001CBE83E18BBF8AB71CBE94E19BBF9AB748
:1005F000892798278927FB019C012B5E3F4FDB0150
:10060000A40FB51FEA17FB0739F061913CBF2BBF60
:100610006ABF2F5F3F4FF6CF480F591F1CBE83E1C3
:100620008BBF5ABF1CBE84E18BBF4ABF90E080E005
:100630000895CF93DF931F92CDB7DEB76983DC01B6
:10064000ED91FC910280F381E02D41E050E0BE018C
:100650006F5F7F4F09950F90DF91CF9108951CBE7A
:100660001BBE8FEF8ABF1CBE1BBE82E08ABF90E01C
:1006700080E00895FB0132812381948185811CBE35
:100680001BBE61E06ABF1CBE6DE06BBF3ABF1CBE03
:100690003EE03BBF2ABF1CBE2FE02BBF9ABF1CBE53
:1006A00090E19BBF8ABF1CBE81E18BBF5ABF1CBEBD
:1006B00082E18BBF4ABF81E090E008950895DC019C
:1006C000ED91FC91008CF18DE02D09941CBE8BE026
:1006D0008BBF7ABF1CBE8CE08BBF6ABF1CBE1BBE2B
:1006E00083E08ABF81E00895FC018489958908959B
:1006F0002EE331E0FC0131832083FB0140895189E5
:1007000062897389FC0142835383648375830895EE
:10071000DC01ED91FC91028CF38DE02D099490E0C9
:1007200080E00895FB0101900020E9F73197AF01C7
:10073000461B570BDC01ED91FC910280F381E02D0B
:1007400009948F929F92AF92BF92EF92FF920F9374
:100750001F93CF93DF93CDB7DEB7A1970FB6F89471
:10076000DEBF0FBECDBF7C01FA01CB0119A2223042
:1007700008F42AE08E010F5D1F4F822E912CB12CC0
:10078000A12CBF01A50194010E94C208F901CA0170
:100790006A300CF5605DD8016E938D01232B242BFC
:1007A000252B79F790E080E0109721F0BD01C7017B
:1007B0000E949203A1960FB6F894DEBF0FBECDBF84
:1007C000DF91CF911F910F91FF90EF90BF90AF906D
:1007D0009F908F900895695CDECFCF92DF92EF9269
:1007E000FF92CF93DF936C01990FEE08FF08F7FE9D
:1007F0001BC06DE283E192E00E94C501EC01442739
:100800005527BA014C195D096E097F092AE083E179
:1008100092E00E94A1038C0F9D1FDF91CF91FF906A
:10082000EF90DF90CF9008952AE0B701A60183E111
:1008300092E0DF91CF91FF90EF90DF90CF900C94FA
:10084000A1038F929F92AF92BF92CF92DF92EF92CD
:10085000FF920F931F93CF93DF937C01EB016C0109
:1008600082E0C80ED11C4701E5E08E0E911C10E01D
:1008700000E0F60141916F0150E070E060E02AE095
:10088000CE010E94A1035C01E881F9810190F08111
:10089000E02D6EE2CE0109958A0D9B1D080F191FF0
:1008A000C814D90431F7F701458150E070E060E0E9
:1008B0002AE0CE010E94A103800F911FDF91CF910A
:1008C0001F910F91FF90EF90DF90CF90BF90AF906E
:1008D0009F908F900895009729F0BC0183E192E0EA
:1008E0000C94920390E080E008956AEE70E083E15A
:1008F00092E00E94120260E471E083E192E00E94C3
:100900009203989590E080E008956F927F928F9285
:100910009F92AF92BF92CF92DF92EF92FF920F938E
:100920001F93CF93DF938C01F12CE12CD0E0C0E03A
:100930008AE0C82ED12C01151105B1F1B7010F2C99
:10094000000C880B990B0E9489099B01AC0160E0A7
:1009500070E080E091E40E94820A4B015C01C801D2
:10096000B6010E94790C3B01BC01990F880B990BD1
:100970000E948909A50194010E94150A4B015C019E
:10098000BE01DD0F880B990B0E9489099B01AC0108
:10099000C501B4010E94E5080E945109EB018FEFE7
:1009A000E81AF80A8301C7CFCE0DDF1D21979D2FCE
:1009B000990F990B9E01492F592F692F792F892F54
:1009C000DF91CF911F910F91FF90EF90DF90CF902B
:1009D000BF90AF909F908F907F906F9008951F92DF
:1009E0000F920FB60F9211242F933F934F935F9363
:1009F0006F937F938F939F93AF93BF93EF93FF93E7
:100A000083E192E00E94A301FF91EF91BF91AF912A
:100A10009F918F917F916F915F914F913F912F9116
:100A20000F900FBE0F901F9018951F920F920FB648
:100A30000F9211242F938F939F93EF93FF93E09145
:100A40002302F09124028081E0912902F0912A0290
:100A500082FD1BC0908180912C028F5F8F7320914B
:100A60002D02821741F0E0912C02F0E0ED5EFD4F87
:100A7000958F80932C02FF91EF919F918F912F91F1
:100A80000F900FBE0F901F9018958081F4CF1F928A
:100A90000F920FB60F9211242F933F938F939F9332
:100AA000AF93BF938091A7019091A801A091A90154
:100AB000B091AA013091A60123E0230F2D3758F5FC
:100AC0000196A11DB11D2093A6018093A7019093CB
:100AD000A801A093A901B093AA018091A2019091CD
:100AE000A301A091A401B091A5010196A11DB11D82
:100AF0008093A2019093A301A093A401B093A501B8
:100B0000BF91AF919F918F913F912F910F900FBE09
:100B10000F901F90189526E8230F0296A11DB11D76
:100B2000D2CFE3E1F2E01382128248EE53E060E0BC
:100B300070E0448355836683778384E091E09183FA
:100B4000808385EC90E09587848784EC90E097879C
:100B5000868780EC90E0918B808B81EC90E0938B8A
:100B6000828B82EC90E0958B848B86EC90E0978B67
:100B7000868B118E128E138E148EE0EBF2E08EE3D4
:100B800091E0918380831282138214821582EEEBAE
:100B9000F2E0918380831282138214821582E6EB45
:100BA000F2E0918380831282138214821582E4EC36
:100BB000F2E0918380831282138214821582EAEC20
:100BC000F2E0918380831282138214821582EBEE0D
:100BD000F2E0918380831282138214821582E0ED09
:100BE000F2E013821282448355836683778326E181
:100BF00031E03183208397878687108A118A128A91
:100C0000138A84E0808F0895CF93DF93CDB7DEB74A
:100C1000EA970FB6F894DEBF0FBECDBF789484B5C7
:100C2000826084BD84B5816084BD85B5826085BDE8
:100C300085B5816085BD80916E00816080936E0076
:100C40001092810080918100826080938100809168
:100C50008100816080938100809180008160809319
:100C600080008091B10084608093B1008091B000D9
:100C700081608093B00080917A00846080937A00D4
:100C800080917A00826080937A0080917A008160FE
:100C900080937A0080917A00806880937A00109225
:100CA000C100E0912302F091240282E08083E09170
:100CB0001F02F09120021082E0912102F0912202A5
:100CC00080E1808310922B02E0912702F0912802AC
:100CD00086E08083E0912502F09126028081806188
:100CE0008083E0912502F0912602808188608083D4
:100CF000E0912502F0912602808180688083E09156
:100D00002502F091260280818F7D808366ED71E05F
:100D100083E192E00E94120261E771E083E192E0D8
:100D20000E9412026EE671E083E192E00E941202DC
:100D300062E671E083E192E00E9412026FE571E0E9
:100D400083E192E00E94120266E571E083E192E0A5
:100D50000E94120264E571E083E192E00E941202B7
:100D600060E471E083E192E00E94920388E0809366
:100D7000B8028093B9028093BA028093BB0264E404
:100D800071E083E192E00E9412028E010D5F1F4F1D
:100D90007E0147E0E40EF11C6AE0A62E79E0B72E52
:100DA000E8E0CE2EF7E0DF2E1CBEABBE8AB71CBE3D
:100DB000BBBE9AB71CBECBBE2AB71CBEDBBE3AB7C1
:100DC0003B832C839D838E83F80141918F0150E0FA
:100DD00070E060E02AE083E192E00E94A10362E417
:100DE00071E083E192E00E941202E016F106E1F662
:100DF00060E471E083E192E00E94920363E479E0B1
:100E000080ED92E00E94660338E0632E712C40E290
:100E1000C42ED12C5EE3A52E51E0B52E20E0822E0B
:100E200020E0922E9AE0592E80ED92E00E94B602C8
:100E3000181619060CF013C144E650E06FEA71E091
:100E400080ED92E00E9460027C0183E491E00E94C8
:100E50006B04F701E155FE4F10826FEA71E083E108
:100E600092E00E94920360E471E083E192E00E94CC
:100E700092030FEA11E0C8018F5A91408E159F0529
:100E800054F4F80181918F0190E00E94A70CF801C1
:100E900031978083F0CFDAAEC9AEBE01675C7F4F79
:100EA0008FEA91E00E9459088C010E946B0481E452
:100EB00091E00E946B046EE471E0C8010E94AF0CE7
:100EC000892BE9F4C8010E946B0484E591E00E943B
:100ED0006B04BE01675C7F4F90E080E00E94590880
:100EE0000E943B080E948504C9012093AD019093A4
:100EF000AE010E94ED0381E491E00E946B0461E683
:100F000071E0C8010E94AF0C892BE9F4C8010E946E
:100F10006B0487E691E00E946B04BE01675C7F4F23
:100F200090E080E00E9459080E943B080E948504DE
:100F3000C9012093AB019093AC010E94ED0381E4C1
:100F400091E00E946B0467E771E0C8010E94AF0C5A
:100F50008C01892B09F083C02091AD013091AE0145
:100F60008091AB019091AC01AC01249FC001259F01
:100F7000900D349F900D11240E94ED038BE791E0BA
:100F80000E946B044091AD015091AE018091AB0184
:100F90009091AC01489F9001499F300D589F300DB2
:100FA0001124E1E0F0E021153105E9F0C901B301B8
:100FB0000E94790C8E9FA0018F9F500D9E9F500D17
:100FC0001124040F151F37FF02C0295F3F4F83E034
:100FD000359527958A95E1F7CF01589EF001599EE6
:100FE000F00D1124E0CF4AE0BE016F5F7F4FC801D2
:100FF0000E9485088C010E946B048FE891E00E949A
:101000006B0481E491E00E946B044091E4025091F2
:10101000E502BCAAABAA8091E0029091E102A09106
:10102000E202B091E3028DAB9EABAFABB8AFBE01B5
:101030006D5C7F4F80ED92E00E943A03F8010190D1
:101040000020E9F73197AF01401B510BB80180ED4B
:1010500092E00E94F00280ED92E00E942F03811442
:10106000910409F4E1CE0E948F01882309F4DACEBD
:101070000E940000D3CEFC0188279927E894219193
:101080002032E9F3293010F02E30C8F32B3241F032
:101090002D3239F4689404C00E949008820F911D8B
:1010A000219120532A30C0F31EF4909581959F4FD3
:1010B000089541EF52E00E945E080895FA01A1915F
:1010C000B081009719F41097E1F0CD01DC01CD015A
:1010D0000D90002011F4C00113C0FB0121912223C7
:1010E00019F02015D9F7F3CFFB012191201519F440
:1010F0001E92119606C02223C1F70D900020A1F781
:10110000D001FA01A193B0830895BB274A3031F48E
:10111000992322F4BDE2909581959F4F0C949908F4
:101120007AE0979F902D879F802D910D112408952F
:10113000BB27FB015527AA27880F991FAA1FA417B1
:1011400010F0A41B83955051B9F7A05DAA3308F0A5
:10115000A95DA193009779F7B111B1931192CB01D9
:101160000C94B208DC01FC01672F71917723E1F741
:10117000329704C07C916D9370836291AE17BF0764
:10118000C8F30895A1E21A2EAA1BBB1BFD010DC0D6
:10119000AA1FBB1FEE1FFF1FA217B307E407F50727
:1011A00020F0A21BB30BE40BF50B661F771F881F03
:1011B000991F1A9469F760957095809590959B0199
:1011C000AC01BD01CF0108955058BB27AA270E944A
:1011D000FC080C94DB090E94CD0938F00E94D40968
:1011E00020F039F49F3F19F426F40C94CA090EF448
:1011F000E095E7FB0C94C409E92F0E94EC0958F331
:10120000BA17620773078407950720F079F4A6F5EB
:101210000C940E0A0EF4E0950B2EBA2FA02D0B01A4
:10122000B90190010C01CA01A0011124FF27591B2B
:1012300099F0593F50F4503E68F11A16F040A22F31
:10124000232F342F4427585FF3CF469537952795A2
:10125000A795F0405395C9F77EF41F16BA0B620BA1
:10126000730B840BBAF09150A1F0FF0FBB1F661FE8
:10127000771F881FC2F70EC0BA0F621F731F841F2B
:1012800048F4879577956795B795F7959E3F08F051
:10129000B0CF9395880F08F09927EE0F9795879513
:1012A00008950E9458096894B1110C940F0A08958A
:1012B0000E94F40988F09F5798F0B92F9927B751E9
:1012C000B0F0E1F0660F771F881F991F1AF0BA95EA
:1012D000C9F714C0B13091F00E940E0AB1E0089530
:1012E0000C940E0A672F782F8827B85F39F0B93F22
:1012F000CCF3869577956795B395D9F73EF490959D
:101300008095709561957F4F8F4F9F4F0895E8941A
:1013100009C097FB3EF490958095709561957F4F3D
:101320008F4F9F4F9923A9F0F92F96E9BB279395EB
:10133000F695879577956795B795F111F8CFFAF4FB
:10134000BB0F11F460FF1BC06F5F7F4F8F4F9F4F2C
:1013500016C0882311F096E911C0772321F09EE88A
:10136000872F762F05C0662371F096E8862F70E0F0
:1013700060E02AF09A95660F771F881FDAF7880FCA
:101380009695879597F9089597F99F6780E870E09B
:1013900060E008959FEF80EC089500240A941616EB
:1013A000170618060906089500240A941216130653
:1013B000140605060895092E0394000C11F48823E1
:1013C00052F0BB0F40F4BF2B11F460FF04C06F5FFD
:1013D0007F4F8F4F9F4F089557FD9058440F551FD3
:1013E00059F05F3F71F04795880F97FB991F61F0A7
:1013F0009F3F79F087950895121613061406551F1E
:10140000F2CF4695F1DF08C0161617061806991F89
:10141000F1CF86957105610508940895E894BB277E
:1014200066277727CB0197F908950E94280A0C9424
:10143000DB090E94CD0938F00E94D40920F09523E1
:1014400011F00C94C4090C94CA0911240C940F0ACD
:101450000E94EC0970F3959FC1F3950F50E0551F62
:10146000629FF001729FBB27F00DB11D639FAA27F9
:10147000F00DB11DAA1F649F6627B00DA11D661F48
:10148000829F2227B00DA11D621F739FB00DA11D69
:10149000621F839FA00D611D221F749F3327A00D23
:1014A000611D231F849F600D211D822F762F6A2FBF
:1014B00011249F5750409AF0F1F088234AF0EE0F24
:1014C000FF1FBB1F661F771F881F91505040A9F751
:1014D0009E3F510580F00C94C4090C940F0A5F3FA5
:1014E000E4F3983ED4F3869577956795B795F7958D
:1014F000E7959F5FC1F7FE2B880F911D9695879505
:1015000097F90895FA01EE0FFF1F30962105310576
:10151000A1F16115710561F48038BFE39B0749F1C2
:1015200068949038810561F08038BFEF9B0741F0E7
:1015300099234AF5FF3FE1053105210519F1E894AA
:101540000894E795D901AA2329F4AB2FBE2FF85FA1
:10155000D0F310C0FF5F70F4A695E0F7F73950F0B4
:1015600019F0FF3A38F49F779F930DD00F9007FC46
:101570009058089546F00C94CA0960E070E080E845
:101580009FE308954FE79F775F934F933F932F9388
:101590000E947D0B2F913F914F915F910E94150A00
:1015A0000C94DA0A29F416F00C94C4090C940E0A6F
:1015B0000C94CA090E94F409A8F39638A0F707F81A
:1015C0000F92E8942BE33AEA48EB5FE70E942B0A7C
:1015D0000F920F920F924DB75EB70F920E94C50BFC
:1015E000E8E6F0E00E940C0B4F915F91EF91FF91C4
:1015F000E595EE1FFF1F49F0FE57E0684427EE0F08
:10160000441FFA95E1F74195550B0E943F0B0F904F
:1016100007FE0C94330B0895DF93CF931F930F9322
:10162000FF92EF92DF927B018C01689406C0DA2E64
:10163000EF010E94280AFE01E894A59125913591B9
:1016400045915591A6F3EF010E94FC08FE01970118
:10165000A801DA9469F7DF90EF90FF900F911F9146
:10166000CF91DF9108959B01AC0160E070E080E8CC
:101670009FE30C94F90B0C94C4090C946B0C0E941E
:10168000F409D8F39923C9F3940F511DA3F3915092
:10169000504094F059F0882332F0660F771F881F6E
:1016A00091505040C1F79E3F51052CF7880F911D76
:1016B0009695879597F908955F3FACF0983E9CF01A
:1016C000BB27869577956795B79508F4B160939594
:1016D000C1F7BB0F58F711F460FFE8CF6F5F7F4F82
:1016E0008F4F9F4FE3CF0C940F0A16F00C946B0CA6
:1016F0000C94CA0968940C94C4090E94F409A8F3D4
:101700009923C1F3AEF3DF93CF931F930F93FF920F
:10171000C92FDD2788232AF02197660F771F881F9E
:10172000DAF720E030E040E85FEB9FE3883920F013
:10173000803E38F021968F770E94E508E0E9F0E0DE
:1017400004C00E94E508EDEBF0E00E940C0B8B0159
:10175000BE01EC01FB2E6F5771097595771F880B41
:10176000990B0E94890928E132E741E35FE30E9477
:10177000280AAF2D9801AE01FF900F911F91CF91D4
:10178000DF910E94FC080C94DB09FA01DC01AA0F2E
:10179000BB1F9B01AC01BF5728F4222733274427E6
:1017A000507820C0B75190F4AB2F00244695379560
:1017B0002795011CA395D2F3002071F0220F331F4F
:1017C000441FB395DAF30ED00C94E4086130710530
:1017D000A0E88A07B94630F49B01AC016627772759
:1017E00088279078309621F0208331834283538379
:1017F00008950E940D0C0C94DB090E94D40958F046
:101800000E94CD0940F029F45F3F29F00C94C409EF
:1018100051110C940F0A0C94CA090E94EC0968F348
:101820009923B1F3552391F3951B550BBB27AA2799
:1018300062177307840738F09F5F5F4F220F331FD3
:10184000441FAA1FA9F335D00E2E3AF0E0E832D09B
:1018500091505040E695001CCAF72BD0FE2F29D09E
:10186000660F771F881FBB1F261737074807AB0770
:10187000B0E809F0BB0B802DBF01FF2793585F4FE5
:101880003AF09E3F510578F00C94C4090C940F0A6D
:101890005F3FE4F3983ED4F3869577956795B795C7
:1018A000F7959F5FC9F7880F911D9695879597F9D2
:1018B0000895E1E0660F771F881FBB1F621773074B
:1018C0008407BA0720F0621B730B840BBA0BEE1F60
:1018D00088F7E09508959F3F31F0915020F4879567
:1018E00077956795B795880F911D9695879597F988
:1018F000089597FB072E16F4009407D077FD09D0C2
:101900000E948D0C07FC05D03EF4909581959F4F69
:101910000895709561957F4F0895AA1BBB1B51E1F7
:1019200007C0AA1FBB1FA617B70710F0A61BB70B4F
:10193000881F991F5A95A9F780959095BC01CD01F4
:101940000895EE0FFF1F0590F491E02D0994911179
:10195000089581568A5108F4805285580895FB01F4
:10196000DC018D91019080190110D9F3990B089534
:04197000F894FFCF19
:1019740000000000C501250152013102830161010B
:101984007501000000001903F0028F0353025F0386
:1019940099025D0266035E033A0375042F03B602DF
:1019A40060028803780374035102000000002104DC
:1019B4000D0A0052656365697665643A20005055E6
:1019C40053484E00202D3E20646563696D616C2090
:1019D40000505553484D00202D3E20696E2064650B
:1019E40063696D616C200047455400203C2D204103
:1019F4006E7377657220696E20444543540A002053
:101A04003C2D20416E7377657220696E204F4354DC
:021A14000000D0
:00000001FF
