:100000000C9467000C948F000C948F000C948F005C
:100010000C948F000C948F000C948F000C948F0024
:100020000C948F000C948F000C948F000C948F0014
:100030000C948F000C948F000C948F000C948F0004
:100040000C94151D0C948F000C94E31C0C94BD1C97
:100050000C948F000C948F000C948F000C948F00E4
:100060000C948F000C948F00000102030405000023
:100070000000250028002B000404040404040404E8
:100080000202020202020303030303030102040843
:1000900010204080010204081020010204081020F2
:1000A0000000000800020100000304070000000037
:1000B0000000000050727A79647A69656C6F6E791D
:1000C0002061647265732049503A20005F1D11243D
:1000D0001FBECFEFD8E0DEBFCDBF12E0A0E0B1E0A1
:1000E000EEE6F7E402C005900D92A23BB107D9F706
:1000F00025E0A2EBB2E001C01D92A538B207E1F7FE
:1001000010E0C7E6D0E004C02197FE010E943E2225
:10011000C636D107C9F70E945F1E0C94B5230C9414
:1001200000008CBD9DBD0895FC01408151818281FC
:10013000823040F081E0838380E05183408382837A
:1001400081E008952091610530916205B901642331
:10015000752380912304909124046817790739F05E
:1001600040915E0550915F0580916005E6CFC90121
:100170008095909563E0880F991F6A95E1F7842335
:100180009523892B41F083E0220F331F8A95E1F7F5
:1001900027604223532385E0D0CF8230910538F089
:1001A000880F991F880F991F05970197F1F70895F8
:1001B000AF92BF92CF92DF92EF92FF920F931F9375
:1001C000CF93DF936C017B018B01040F151FEB01B3
:1001D0005E01AE18BF08C017D10759F06991D6016A
:1001E000ED91FC910190F081E02DC6010995892BDC
:1001F00079F7C501DF91CF911F910F91FF90EF909B
:10020000DF90CF90BF90AF900895FC01538D448D47
:10021000252F30E0842F90E0821B930B541710F0B1
:10022000CF96089501970895FC01918D828D9817BE
:1002300061F0A28DAE0FBF2FB11D5D968C91928D96
:100240009F5F9F73928F90E008958FEF9FEF0895C7
:10025000FC01918D828D981731F0828DE80FF11D90
:10026000858D90E008958FEF9FEF0895FC01918DAB
:10027000228D892F90E0805C9F4F821B91098F73A4
:10028000992708958BEE92E00E94360121E0892B98
:1002900009F420E0822F089580E090E0892B29F076
:1002A0000E94420181110C9400000895FC01A48D6C
:1002B000A80FB92FB11DA35ABF4F2C91848D90E088
:1002C00001968F739927848FA689B7892C93A0896B
:1002D000B1898C91837080648C93938D848D9813F5
:1002E00006C00288F389E02D80818F7D8083089588
:1002F000EF92FF920F931F93CF93DF93EC0181E076
:10030000888F9B8D8C8D98131AC0E889F98980811C
:1003100085FF15C09FB7F894EE89FF896083E8894F
:10032000F98980818370806480839FBF81E090E041
:10033000DF91CF911F910F91FF90EF900895F62ECE
:100340000B8D10E00F5F1F4F0F731127E02E8C8D68
:100350008E110CC00FB607FCFACFE889F9898081AD
:1003600085FFF5CFCE010E945601F1CFEB8DEC0F4A
:10037000FD2FF11DE35AFF4FF0829FB7F8940B8FCA
:10038000EA89FB8980818062CFCFCF93DF93EC0134
:10039000888D8823B9F0AA89BB89E889F9898C916D
:1003A00085FD03C0808186FD0DC00FB607FCF7CF29
:1003B0008C9185FFF2CF808185FFEDCFCE010E9429
:1003C0005601E9CFDF91CF91089590E0FC01E0560E
:1003D000FF4F2491FC01E457FF4F3491FC01E85892
:1003E000FF4FE491EE23C9F0222339F0233001F1CD
:1003F000A8F4213019F1223029F1F0E0EE0FFF1FAF
:10040000E259FF4FA591B4918FB7F894EC91611127
:1004100026C030953E233C938FBF08952730A9F026
:100420002830C9F0243049F7809180008F7D03C0C7
:10043000809180008F7780938000DFCF84B58F77A5
:1004400084BDDBCF84B58F7DFBCF8091B0008F77EB
:100450008093B000D2CF8091B0008F7DF9CF3E2B3A
:10046000DACF3FB7F8948091CB029091CC02A09163
:10047000CD02B091CE0226B5A89B05C02F3F19F042
:100480000196A11DB11D3FBFBA2FA92F982F882714
:10049000BC01CD01620F711D811D911D42E0660FEF
:1004A000771F881F991F4A95D1F708958F929F92C1
:1004B000AF92BF92CF92DF92EF92FF926B017C01DD
:1004C0000E9431024B015C01C114D104E104F1042A
:1004D000B9F00E943102681979098A099B09683EBE
:1004E00073408105910580F321E0C21AD108E1082B
:1004F000F10888EE880E83E0981EA11CB11CE4CFA1
:10050000FF90EF90DF90CF90BF90AF909F908F9033
:1005100008952FB7F8946091C7027091C802809136
:10052000C9029091CA022FBF0895FC012081318138
:10053000828193812817390719F0822F0C94E501E5
:100540000895CF93DF93EC018CB58F7D8CBD8CB576
:10055000837F8CBD8CB58C7F8CBD8DB581608DBD4E
:100560008A810E94E5018C899D89DF91CF910C944D
:10057000CD0061E00C94A10260E00C94A102FC01AA
:1005800020812EBD9B012150310941F051810DB4D4
:1005900007FEFDCF4EB55EBD4193F5CF61507109A9
:1005A000860F971F0DB407FEFDCF2EB5FC012083EB
:1005B0000895F0E0E0E0808180830895F0E0E0E0DD
:1005C0008081808308958EBD00000DB407FEFDCFAD
:1005D0008EB508951F93CF93DF93EC01162F0E94E1
:1005E000BC02812F0E94E302182FCE010E94B902A3
:1005F000812FDF91CF911F9108950F931F93CF9378
:10060000DF93EC01162F042F0E94BC02812F806221
:100610000E94E302182F802F0E94E302CE010E9465
:10062000B902812FDF91CF911F910F910895CF9241
:10063000DF92EF92FF920F931F93CF93DF937C0192
:10064000C62F6A01122F0E94BC028C2F80620E946A
:10065000E302082FE601115020F089910E94E30285
:10066000FACFC7010E94B902802FDF91CF911F916D
:100670000F91FF90EF90DF90CF9008951F93CF934D
:10068000DF93EC01162F0E94BC02812F0E94E3022F
:100690008FEF0E94E302182FCE010E94B902812F32
:1006A000DF91CF911F9108951F93CF93DF93EC01BA
:1006B000162F61E00E943E03482F112341F0416054
:1006C00061E0CE01DF91CF911F910C94FD024E7F2E
:1006D000F7CFCF93DF93EC0160E00E949502888909
:1006E00099890E94CD006DE1CE010E943E0381FFF9
:1006F00008C0888999890E94CD0061EECE010E94D0
:10070000EA0260E0CE010E943E03482F4E7F60E087
:10071000CE010E94FD0262E0CE010E943E03E8E6A7
:10072000F0E0E49141E050E001C0440FEA95EAF7BF
:10073000482B62E0CE01DF91CF910C94FD02CF9364
:10074000DF93EC0160E00E943E0381FD0CC0482F66
:10075000426060E0CE010E94FD0265E070E080E052
:1007600090E00E94560260E0CE010E943E03482FB6
:10077000416060E0CE010E94FD0240E767E0CE01EB
:100780000E94FD0261E0CE010E94950289858823C6
:10079000A1F02E85AE01475F5F4F6AE0CE010E9457
:1007A00017036DE1CE010E943E0381FF1BC061EE85
:1007B000CE01DF91CF910C94EA0262E0CE010E945B
:1007C0003E03E8E6F0E0E49121E030E001C0220FD2
:1007D000EA95EAF72095422F482362E0CE010E9475
:1007E000FD02DFCFDF91CF910895CF92DF92EF929C
:1007F000FF920F931F93CF93DF93CDB7DEB7289768
:100800000FB6F894DEBF0FBECDBF8C017B016A012D
:100810000E94DE020F3F110509F028F419820A83B5
:1008200084E08B830CC017FD1AC019820A8333E061
:10083000169507953A95E1F7007E0C600B838701CA
:100840000C0D1D1DE6E0CE16D10490F5F701DE017A
:1008500014960E171F0799F081918D93FACFC80156
:1008600026E0969587952A95E1F7807E19830A837D
:100870000115104C10F48461D4CF8C61D2CFB60135
:100880006D5F7F4FCE0101960E94BF020E94D90288
:10089000C60128960FB6F894DEBF0FBECDBFDF911C
:1008A000CF911F910F91FF90EF90DF90CF9008951F
:1008B00063E070E0CE0101960E94BF02F7018191D2
:1008C0007F010E94E302E016F106C1F7DFCF982F07
:1008D000990F990F990F80E090540895FB01BA0188
:1008E00090E0982F8827A9018E0F9F1F0C94F50385
:1008F000CF93DF9300D0CDB7DEB779836A8322E050
:1009000030E0AE014F5F5F4F64E070E00E946E0424
:100910000F900F90DF91CF910895CF93DF931F92A7
:10092000CDB7DEB79B01498390E0982F882741E03F
:1009300050E0BE016F5F7F4F820F931F0E94F5034F
:100940000F90DF91CF9108950895CF93DF931F9279
:10095000CDB7DEB76983DC01ED91FC910280F381B4
:10096000E02D41E050E0BE016F5F7F4F09950F9091
:10097000DF91CF910895FC01818D928D08950895A6
:10098000DF92EF92FF920F931F93CF93DF9300D0EC
:10099000CDB7DEB7FB01DC0157961C921E9256972D
:1009A0002281211109C02381211106C02481211136
:1009B00003C02581222369F14115510551F17A01C6
:1009C0008F01FC01D08C80E591E00E949100A8018C
:1009D0004E5F5F4F24E030E06CE070E08D2D0E94B0
:1009E0006E04F982EA8222E030E0AE014F5F5F4F91
:1009F00060E170E08D2D0E946E0481E090E00F9028
:100A00000F90DF91CF911F910F91FF90EF90DF90AA
:100A1000089580E0F3CFFC019081DB018C91981365
:100A200005C081E0218111969C91291380E00895F1
:100A3000FC01848595850895FC0184899589089534
:100A40002AE631E0FC0131832083FB014089518992
:100A500062897389FC01428353836483758308959B
:100A6000DC01ED91FC91048CF58DE02D099490E072
:100A700080E008954F925F926F927F928F929F9243
:100A8000AF92BF92CF92DF92EF92FF92CF93DF931C
:100A9000EC014A015B010E9489026B017C01240187
:100AA00035018FE5480E511C611C711C67E1CE01B8
:100AB0000E943E0384FD45C06FEFCE010E94EA0212
:100AC00084FF30C040E167E0CE010E94FD0260E09B
:100AD000CE010E94950261E0CE010E9495020E9423
:100AE00089026C197D098E099F09681579058A05A7
:100AF0009B05C0F060E0CE010E94950261EECE0140
:100B00000E94EA0280E0DF91CF91FF90EF90DF90AA
:100B1000CF90BF90AF909F908F907F906F905F909D
:100B20004F9008950E9489026C197D098E099F09D2
:100B3000461657066806790608F0B8CF81E08F8719
:100B4000E1CF60E0CE010E94950281E0DCCF8F9280
:100B50009F92AF92BF92CF92DF92EF92FF920F934C
:100B60001F93CF93DF93CDB7DEB728970FB6F894D6
:100B7000DEBF0FBECDBFDC01142F9CEC99839A839E
:100B80009B839C839D831E821F8218869D0151E05A
:100B900021153105D1F0611102C0109779F4C90116
:100BA000877099278D5D9E4FFC01408181E090E028
:100BB0008C0F9D1F850F911DFC01408393E036959E
:100BC00027959A95E1F75F5FE3CF611103C0AB2BE7
:100BD00009F090C0E62FF0E0ED5DFE4F8081898343
:100BE000C980DA808B809C80AD80BE80EF80F884E5
:100BF00080911B0482FD06C0809120049091210405
:100C00000E946903809120049091210460E01111F9
:100C100001C061E00E94540300912004109121045E
:100C2000C982DA828B829C82AD82BE82EF82F88694
:100C3000F8012685AE014F5F5F4F6AE0C8010E9450
:100C40001703F8012685AE014F5F5F4F60E1C801D1
:100C50000E941703F801478161E1C8010E94FD026B
:100C60000091200410912104E09025040E94890243
:100C70004B015C016FEFC8010E94EA0280FF51C086
:100C80006FEFC8010E94EA0284FF3BC040E167E0C9
:100C9000C8010E94FD0210E080911B0482FD16C075
:100CA0004091F2035091F3036091F4037091F503C6
:100CB00080912004909121040E943A05182F60E051
:100CC00080912004909121040E945403812F289642
:100CD0000FB6F894DEBF0FBECDBFDF91CF911F914D
:100CE0000F91FF90EF90DF90CF90BF90AF909F90CB
:100CF0008F900895E52FF0E0EE5DFE4F80818A83AE
:100D00006FCF0E948902681979098A099B096036A8
:100D100071058105910508F4ADCF81E0F801878761
:100D2000BACFF801F780FE1408F4EF2CF8018085A3
:100D3000FE188111F12CC8010E94BC0280EA0E94B9
:100D4000E30288EFA82E83E0B82EEA94FFEFEF16B7
:100D500031F0F50181915F010E94E302F6CFFA9430
:100D6000FFEFFF1621F080E00E94E302F8CFC801F8
:100D70000E94B90261E0C8010E94950211E08CCF87
:100D8000EF92FF920F931F93CF93DF938C01E0902C
:100D90002504F12CE7012897FC0196818CE6890F48
:100DA0008330D8F0983C09F471C0933809F0F6C04C
:100DB00088E0E8EFF3E0A2ECB4E001900D928A95B0
:100DC000E1F780E094E09093CD048093CC04D0933D
:100DD000CB04C093CA0482E052C0943909F056C0D3
:100DE0008781873020F01092C90480E048C040918C
:100DF000C6045091C704248135814217530749F432
:100E00004091C2045091C30420813181421753079D
:100E1000A9F1F8E18F9FC00111244091C0045091C5
:100E2000C10426EB34E0241B350B281739075CF48A
:100E300080911B04816080931B0480912004909119
:100E400021040E94690388E0E8EFF3E0A2ECB4E03B
:100E500001900D928A95E1F7AE0160E074E0809117
:100E6000CC049091CD040E946923D093CB04C0930D
:100E7000CA048091C90481508093C90481E0DF9144
:100E8000CF911F910F91FF90EF9008958BE6890FFE
:100E9000823018F0983C09F081C02091CA0430914A
:100EA000CB04AE01420F531F4139510508F09BCFCF
:100EB0008091C904882309F498CF963921F0F8016C
:100EC0009781891392CF4091C6045091C704F801CD
:100ED000848195814817590709F087CF8091CC0408
:100EE0009091CD04AE0160E074E0820F931F0E94E8
:100EF00069238091CA049091CB04C80FD91FD09365
:100F0000CB04C093CA04F8018681863909F0B1CFB9
:100F10001092C90487818093C804833809F45BCF99
:100F2000A091C004B091C10486EB94E08A1B9B0B96
:100F30008C179D0738F18AE0E2ECF4E001900D9205
:100F40008A95E1F78091C0049091C1046091CC042E
:100F50007091CD044091CA045091CB040A960E942E
:100F600069232091CA043091CB04265F3F4F8091C2
:100F7000C0049091C104820F931F9093C104809389
:100F8000C0047CCF80912004909121040E946903C9
:100F900080911B04816080931B0427CFA091C00423
:100FA000B091C104CD01865294408C0F9D1F8B39A6
:100FB000910508F01ACF88E0E8EFF3E001900D9278
:100FC0008A95E1F7E091C004F091C104D187C08710
:100FD0008091C0049091C104AE0160E074E00A9673
:100FE0000E946923F2E0EF0EF11C8091C004909101
:100FF000C104E80EF91EF092C104E092C0043ECF95
:101000003F924F925F926F927F928F929F92AF9298
:10101000BF92CF92DF92EF92FF920F931F93CF93E5
:10102000DF9380911B0481FD15C02091C004309195
:10103000C10480FD06C0A9014652544049375105FC
:101040004CF000E02652344011F008F0C5C08E7F0D
:1010500080931B040E9489024B015C0100E0442440
:101060004394512CFBE7EF2EF5E2FF2EA4E2CA2EAB
:10107000A9E0DA2EC0912004D091210488819981C1
:101080008F3F910509F4A8C08A819B818F3F91050C
:1010900009F4A2C067E1CE010E943E0380FD9CC01E
:1010A0006FEFCE010E94EA020E9489026819790955
:1010B0008A099B09683E73408105910508F08CC040
:1010C000C0912004D0912104CE010E94BC0280E690
:1010D0000E94E3028FEF0E94E302182FCE010E94CC
:1010E000B902113298F062EECE010E94EA0262E08B
:1010F00070E080E090E00E945602109225046AE0C1
:1011000070E080E090E00E945602B4CF1093250476
:101110001830A8F3C0912004D09121043F803116EB
:1011200008F4132D8885311A8111312CCE010E94CB
:10113000BC0281E60E94E30278EF672E73E0772E0F
:10114000115038F08FEF0E94E302F30181933F01C9
:10115000F7CF3A94FFEF3F1621F08FEF0E94E302A2
:10116000F8CFCE010E94B90240E767E0CE010E94AD
:10117000FD028091FA039091FB03EC01209709F4A2
:10118000B0C02C2F2770263008F074CF63E0D695BE
:10119000C7956A95E1F7F2CF033C81F4009771F0AF
:1011A0009093F9038093F8031092FB031092FA03D3
:1011B00060E090E080E00E949A095CCF80911A0480
:1011C0008823E9F007FF1DC08CE6800F8330C8F04C
:1011D000083CB9F00338A9F0802FDF91CF911F911F
:1011E0000F91FF90EF90DF90CF90BF90AF909F90C6
:1011F0008F907F906F905F904F903F900895013C4B
:1012000019F388EF93E00E94C006823009F032CFD4
:1012100003E8E2CF8034910509F061C0023CD9F4C3
:1012200080911B0483FD26CF243249E0340709F462
:1012300021CF8091F8039091F9039093FB03809361
:10124000FA033093F9032093F8036091600570E08E
:1012500090E080E067C088EF93E00E94C006182FFE
:101260008091F1038823B9F18091230490912404A3
:101270009C0153E0369527955A95E1F7232B19F0F9
:10128000F7013197F1F783709927FC0128E532E0E7
:10129000E29FC001E39F900DF29F900D11240E94E8
:1012A000CD0080912204882369F08150990B9C0124
:1012B000220F331F820F931FE20102C0CC0FDD1FEC
:1012C0008A95E2F764E0CE0123E0880F991F2A9502
:1012D000E1F70E949A09123009F0CCCE99CF61E073
:1012E0006ACF0091FE0320912304309124048217D9
:1012F000930709F08FCF023809F4BCCE003809F00B
:101300004BCF8432994009F459CFD092FB03C0925D
:10131000FA0362E084E299E00E949A096AE070E0D0
:1013200080E090E00E94560262E08091FA03909182
:10133000FB0341CFCF92DF92EF92FF920F931F9367
:10134000CF93DF9300D000D0CDB7DEB79C0121153D
:10135000310509F45AC0422F4770463008F053C097
:1013600043E0369527954A95E1F7F1CF81118AC080
:1013700010E08FC0112319F0133009F089C00F3726
:1013800008F086C080911B0482FF1AC04091F203CE
:101390005091F3036091F4037091F5038091200460
:1013A000909121040E943A0580911B048B7F8093C9
:1013B0001B0460E080912004909121040E9454035A
:1013C00080912004909121040E949F030E94890231
:1013D0006B017C010E940008813C09F459C00E9405
:1013E0008902AB01BC014C195D096E097F0980912E
:1013F000F6039091F703B0E0A0E084179507A607E5
:10140000B70740F7B5CF10E04EC0162F7C01009112
:10141000FE0301541C821B829A8389836B83CE0155
:1014200001960E9494004C816B8189819A810E946F
:10143000A705113009F09ACF882309F499CF898143
:101440009A81E816F906F1F40F37E0F481EC809305
:10145000FE038091F8039091F9039093FB0380932E
:10146000FA039A8389831B831C82CE0101960E9412
:10147000940088E0809325044C816B8189819A8156
:101480000E94A70589819A81E816F90609F072CFB2
:1014900011E080911B0482FD06C080912004909190
:1014A00021040E949F03812F0F900F900F900F90A7
:1014B000DF91CF911F910F91FF90EF90DF90CF9030
:1014C0000895CF93DF93DC019A018091C00490913D
:1014D000C104D0E0C0E08652944079F170F198E008
:1014E000E6E2F4E001900D929A95E1F7C0912E04A6
:1014F000D0912F04AE012C173D0708F4A901CB01B0
:1015000060E374E00E94692326EF3FEF2C1B3D0B44
:101510008091C0049091C104820F931F9093C104E5
:101520008093C0044AE950E04C1B5D0BBE01605D36
:101530007B4F86E294E00E947223CE01DF91CF912F
:101540000895FB0101900020E9F73197AF01461B98
:10155000570BDC01ED91FC910280F381E02D0994A1
:101560008F929F92AF92BF92EF92FF920F931F9331
:10157000CF93DF93CDB7DEB7A1970FB6F894DEBF58
:101580000FBECDBF7C01FA01CB0119A2223008F4B5
:101590002AE08E010F5D1F4F822E912CB12CA12CC1
:1015A000BF01A50194010E94F421F901CA016A302A
:1015B0000CF5605DD8016E938D01232B242B252B18
:1015C00079F790E080E0109721F0BD01C7010E94FB
:1015D000A10AA1960FB6F894DEBF0FBECDBFDF9172
:1015E000CF911F910F91FF90EF90BF90AF909F9080
:1015F0008F900895695CDECF8F929F92AF92BF92D9
:10160000CF92DF92EF92FF920F931F93CF93DF93CE
:101610007C01EB016C0182E0C80ED11C4701E5E0C2
:101620008E0E911C10E000E0F60141916F0150E038
:1016300070E060E02AE0CE010E94B00A5C01E8811F
:10164000F9810190F081E02D6EE2CE0109958A0DBD
:101650009B1D080F191FC814D90431F7F7014581E4
:1016600050E070E060E02AE0CE010E94B00A800FF6
:10167000911FDF91CF911F910F91FF90EF90DF901D
:10168000CF90BF90AF909F908F900895CF92DF92B0
:10169000EF92FF920F931F93CF93DF9300D000D070
:1016A000CDB7DEB78C016B017A010E94DE020F3FDD
:1016B000110509F030F519820A831B8263E070E09E
:1016C000CE0101960E94BF02A70170E060E0C60152
:1016D0000E948423E114F10421F0B701C6010E94A5
:1016E000BF020E94D902C7010F900F900F900F9078
:1016F000DF91CF911F910F91FF90EF90DF90CF90EE
:10170000089517FD0BC019820A8333E016950795DB
:101710003A95E1F7007E08600B83D0CFC80126E040
:10172000969587952A95E1F7807E19830A8301159E
:10173000104C18F480618B83C1CF8861FCCFCF93AC
:10174000DF931F92CDB7DEB79B0190E0982F8827DB
:1017500041E050E0BE016F5F7F4F820F931F0E94F8
:10176000460B89810F90DF91CF910895CF93C82FB9
:10177000462F61E070E00E948D0461E070E08C2FE4
:101780000E949F0B8111F9CFCF910895CF93C82F5D
:1017900080E591E00E94910060E170E08C2FCF9194
:1017A0000C94B60BCF93DF93EC01888D843020F43A
:1017B0000E94C60B84E0888FDF91CF910895CF936C
:1017C000FC01C08D80E591E00E94910060E270E034
:1017D0008C2F0E94B60B62E070E08C2F0E949F0B52
:1017E00084FD16C062E070E08C2F0E949F0B83FF87
:1017F0000AC048E162E070E08C2F0E948D0480E016
:1018000090E0CF91089580E591E00E949100E3CFB0
:1018100040E162E070E08C2F0E948D0481E0F0CF07
:101820001F93CF93DF931F92CDB7DEB7FC01108DCE
:10183000143020F5818D928D892B01F180E591E0A6
:101840000E949100812F0E94670427E0129FF001FF
:101850001124E153FD4F22813381377041E050E084
:10186000BE016F5F7F4F820F931F0E94460B8981DD
:1018700090E00F90DF91CF911F9108958FEF9FEF30
:10188000F8CFFB01BA0190E0982F8827A9018E0FAD
:101890009F1F0C94460B84E00895EF92FF920F93E4
:1018A0001F93CF93DF9300D000D000D0CDB7DEB729
:1018B0008C017A01FC01808D843010F40E94C60BEB
:1018C000B701CE0101960E944B0CF801808F843045
:1018D00090F4F586E486128E118E81E026960FB67E
:1018E000F894DEBF0FBECDBFDF91CF911F910F9156
:1018F000FF90EF90089580E0F1CFFF920F931F9338
:10190000CF93DF9300D0CDB7DEB7F82E22E030E0E2
:10191000AE014F5F5F4F66E270E00E94410C0981AB
:101920001A8110270127102722E030E0AE014F5F17
:101930005F4F66E270E08F2D0E94410C89819A8191
:101940009827892798270817190749F4C8010F9085
:101950000F90DF91CF911F910F91FF9008958C010F
:10196000E3CF3F924F925F926F927F928F929F92BE
:10197000AF92BF92CF92DF92EF92FF920F931F939D
:10198000CF93DF9300D0CDB7DEB7382E6B017A014D
:10199000A82EB12C27E0829FC0011124FC01E15345
:1019A000FD4F4F010081118180E591E00E9491007F
:1019B0000E151F0554F4832D0E947D0CF401268121
:1019C0008C01021B1109118300830115110539F5E2
:1019D00063E070E0832D0E949F0B843159F08823CF
:1019E00049F001E010E08C3111F410E000E01195B5
:1019F00001951109C8010F900F90DF91CF911F91B0
:101A00000F91FF90EF90DF90CF90BF90AF909F909D
:101A10008F907F906F905F904F903F900895E01669
:101A2000F1060CF4870187E08A9DF0018B9DF00D93
:101A30001124E153FD4F42805380C114D10419F1A8
:101A40003201F7E07F22832D0E9467044C01C3011D
:101A5000880D991D9801260D371D2130384008F456
:101A600048C060E078E07B01E618F708A701B601FE
:101A70000E94460BA8014E195F09B6016E0D7F1D2D
:101A8000C4010E94460B400E511E87E08A9DF00162
:101A90008B9DF00D1124E153FD4F53824282208132
:101AA0003181201B310B318320838681800F912F60
:101AB000911D8A3F910510F4232BF1F487E08A9D54
:101AC000F0018B9DF00D1124E153FD4F16825982D8
:101AD0004A8222E030E0AE014F5F5F4F68E270E083
:101AE000832D0E946E0460E470E0832D0E94B60B8B
:101AF00081CFA801B601C5CF86837CCFCF93DF937A
:101B0000FC01218D328D2115310529F48FEF9FEFD6
:101B1000DF91CF910895EC01808D4217530708F0B3
:101B2000A9010E94B10C1816190684F7298D3A8D67
:101B3000281B390B3A8F298FEBCF0F931F93CF932D
:101B4000DF931F92CDB7DEB7FC01218D328D232BA1
:101B500041F48FEF9FEF0F90DF91CF911F910F9185
:101B600008958C0141E050E0BE016F5F7F4FFC01A2
:101B7000808D0E94B10C181619065CF7F801818D52
:101B8000928D0197928F818F898190E0E4CFDF92CF
:101B9000EF92FF920F931F93CF93DF93CDB7DEB7F2
:101BA00028970FB6F894DEBF0FBECDBF8C01D801C9
:101BB00059964D915C915A974115510551F0ED910F
:101BC000FC91048CF58DE02D70E060E0C801099572
:101BD000EECFF801D08CF7E0DF9EC00111249C010C
:101BE00021533D4F7901D9018D919C91892B59F158
:101BF00048E050E0BE016F5F7F4FF801808D0E948A
:101C0000B10C1816190694F5D801509684E0FE011F
:101C1000319601900D928A95E1F78D8190E0982F91
:101C200088272E81820F911DF801958B848B8F81DF
:101C3000282F30E0322F22278885820F932F911D85
:101C4000928F818F13C080E591E00E9491008D2DCD
:101C50000E947D0CD70116962C911697821B910934
:101C60008D939C93892B21F690E080E028960FB607
:101C7000F894DEBF0FBECDBFDF91CF911F910F91C2
:101C8000FF90EF90DF9008953F924F925F926F9296
:101C90007F928F929F92AF92BF92CF92DF92EF92FC
:101CA000FF920F931F93CF93DF9300D0CDB7DEB792
:101CB0005C014B01342E452EFC0166887788508CE0
:101CC00080E591E00E94910022E030E0AE014F5F9C
:101CD0005F4F60E270E0852D0E94410CE980FA8040
:101CE000FE24EF24FE2422E030E0AE014F5F5F4F80
:101CF00060E270E0852D0E94410C89819A819827CD
:101D000089279827E816F90609F070C0C52CD12C50
:101D100067E0569EF0011124E153FD4FF582E48205
:101D2000032D142DE016F10608F4870122E030E0BF
:101D3000AE014F5F5F4F64E270E0852D0E94410C61
:101D400089819A81982789279827680E791E93019F
:101D5000377080E1C80ED11CDC2CCC24DD0CDD0CEE
:101D6000DD0CC9018C0D9D1DA901400F511F413093
:101D70005840F0F160E078E07B01E21AF30AA70135
:101D8000B4010E94F503A8014E195F09B4016E0D5C
:101D90007F1DC6010E94F503600E711E79826A8262
:101DA00022E030E0AE014F5F5F4F64E270E0852DCE
:101DB0000E946E04F50186899789800F911F978B89
:101DC000868BC8010F900F90DF91CF911F910F91DB
:101DD000FF90EF90DF90CF90BF90AF909F908F904B
:101DE0007F906F905F904F903F9008957C017BCFE4
:101DF000A801B401CFCFCF93DF93EC01888D84305D
:101E000010F40E94C60B84E0888F80E0DF91CF91B0
:101E100008956F927F928F929F92AF92BF92CF92CE
:101E2000DF92EF92FF920F931F93CF93DF93CDB783
:101E3000DEB7EC970FB6F894DEBF0FBECDBF4C01F6
:101E40008B013A018AE691E09A8389831C861B867E
:101E500048EE53E060E070E04D875E876F87788BD7
:101E600020E431E03A872987988F8F8B198E1A8E5C
:101E70001B8E1C8E24E029A399AB88AB1AAA1BAA3F
:101E80001CAA1DAA8091A8039091A903A091AA035E
:101E9000B091AB038EA39FA3A8A7B9A78B839C8304
:101EA000AD83BE8318861F82F80120E090E080E0B9
:101EB0006AE03191332309F47AC040ED430F4A3090
:101EC00008F064C0689FA001699F500D1124CA01E9
:101ED000C097830F911D37FD9A958F3F910549F368
:101EE00040F34B815C816D817E818091B403909140
:101EF000B503A091B603B091B703481759076A0715
:101F00007B0709F428C20E9489026F7077277C5FE3
:101F1000CE0109960E94FB0E813009F01FC28AE6AD
:101F200091E09DA38CA38B819C81AD81BE818EA30A
:101F30009FA3A8A7B9A745E350E0BE016C5D7F4F02
:101F4000CE0109960E94C004892B09F04EC010E012
:101F500000E0CE0109960E94D20B0130110559F123
:101F6000C801EC960FB6F894DEBF0FBECDBFDF916F
:101F7000CF911F910F91FF90EF90DF90CF90BF9086
:101F8000AF909F908F907F906F9008953E3209F0B0
:101F9000A8CF233009F4A5CFA2E3B0E0AC0FBD1F5A
:101FA000A20FB11D8C932F5F90E080E082CF233091
:101FB00009F097CF8DABD401ED91FC910488F589A0
:101FC000E02D8AE691E09DA38CA38AA99BA9ACA9E8
:101FD000BDA98EA39FA3A8A7B9A7A301BE016C5D4D
:101FE0007F4FC40109958C01BBCF0E94890278877D
:101FF0006F8342E050E0BE01695F7F4FCE010996DA
:102000000E94440E81E090E09DA38CA342E050E04A
:10201000BE016C5D7F4FCE0109960E94440E80E0A8
:1020200091E09DA38CA342E050E0BE016C5D7F4F28
:10203000CE0109960E94440E1DA21CA242E050E06F
:10204000BE016C5D7F4FCE0109960E94440E42E0B6
:1020500050E0BE016C5D7F4FCE0109960E94440E98
:1020600042E050E0BE016C5D7F4FCE0109960E94B8
:10207000440E7801D8018C91882311F18701F80171
:1020800081916F01882311F08E32C1F45801AE188E
:10209000BF081A141B0484F4AEAA41E050E0BE014C
:1020A0006A5C7F4FCE0109960E94440EA501B701DC
:1020B000CE0109960E94440E7601DCCF8601DFCF67
:1020C0001EAA41E050E0BE016A5C7F4FCE01099636
:1020D0000E94440E00E011E01DA30CA342E050E07A
:1020E000BE016C5D7F4FCE0109960E94440E1DA378
:1020F0000CA342E050E0BE016C5D7F4FCE0109961B
:102100000E94440ECE0109960E94DF0B892B09F430
:102110001ECF83E0E82EF12CD7C04B815C816D810E
:102120007E81898D9A8DAB8DBC8D481759076A07C2
:102130007B0709F00AC18D8D9E8DC59709F005C1F9
:102140008AA19BA10DEF1FEF0C970CF4B4C04CE0DB
:1021500050E0BE016C5D7F4FCE0109960E947E0D5E
:102160008EA19FA19827892798279BAF8AAF4F817F
:1021700058852CA13DA14217530709F0E9C097FFEC
:10218000E7C08F7092700BEF1FEF892B09F093C09F
:10219000AAA4BBA4BA24AB24BA240AEF1FEFA1144B
:1021A000B10409F488C010E000E088A599A598273B
:1021B000892798270817190708F541E050E0BE0164
:1021C0006A5C7F4FCE0109960E947E0D4EA9442382
:1021D00039F050E070E060E0CE0109960E947E0D7B
:1021E0008EA98111EACF44E050E070E060E0CE01BA
:1021F00009960E947E0D0F5F1F4FD7CFD12CC12CA7
:1022000041E050E0BE01645C7F4FCE0109960E9420
:102210007E0D4CAD842F807C09F074C0442339F0CE
:1022200050E070E060E0CE0109960E947E0D8CAD1A
:102230008111E6CF42E050E0BE01685C7F4FCE01E5
:1022400009960E947E0D42E050E0BE016A5C7F4F1D
:10225000CE0109960E947E0D44E050E070E060E0FF
:10226000CE0109960E947E0D42E050E0BE01665C00
:102270007F4FCE0109960E947E0D88AD99AD4AAD83
:102280005BAD8115914009F047C00EA91FA9102729
:10229000012710270130110509F03EC041155440B7
:1022A00009F04DC044E050E0BE016E5C7F4FCE01AE
:1022B00009960E947E0DF1E0EF1AF10809F449CE6B
:1022C0000F3F100709F045CE0E9489025B016C01A7
:1022D000CE0109960E94C70D181619060CF41DCFE1
:1022E0000E9489026A197B098C099D09693873412A
:1022F0008105910538F562E370E080E090E00E948E
:102300005602E6CF41E050E070E060E0CE01099671
:102310000E947E0D1CAE8BCF54274527542770E0BA
:1023200060E0CE0109960E947E0DEFEFCE1ADE0A24
:10233000AC14BD0409F064CF06EF1FEFBCCF07EF6C
:102340001FEFB9CF0FEF1FEFB6CF0EEF1FEFB3CFD9
:102350000CEF1FEFB0CF0EEF1FEF02CE10E000E04A
:10236000FFCD2F923F924F925F926F927F928F920A
:102370009F92AF92BF92CF92DF92EF92FF920F9314
:102380001F93CF93DF93CDB7DEB7C151D1400FB6C6
:10239000F894DEBF0FBECDBF2DB73EB7C05FDE4F96
:1023A00039832883C051D1400E9400081092C50291
:1023B0002091C0043091C1044091C40264E02632EF
:1023C000360709F008F431C188E0E6E2F4E0A9EE4E
:1023D000B3E001900D928A95E1F780912E049091DF
:1023E0002F04009709F421C1411129C119821A82D1
:1023F0001B821C8244E050E0BE016F5F7F4F89EE7C
:1024000093E00E94610A8EEB93E00E94C70DC55FC6
:10241000DE4F99838883CB50D140181619060CF0F3
:1024200066C48DB79EB7C25FDE4F99838883CE5056
:10243000D1403E0199EC690E711C44E050E0B301BB
:102440008EEB93E00E947E0D0E948902CA5FDE4FF0
:10245000688379838A839B83C650D140D3018C9152
:10246000082F10E054E0159507955A95E1F7037091
:10247000182F1F701196BC91C35FDE4FB883CD50EB
:10248000D140F3019280838084E1D3011D928A952B
:10249000E9F7A12EB12CEDB7FEB7EA19FB090FB68B
:1024A000F894FEBF0FBEEDBF2DB73EB72F5F3F4F75
:1024B00019011123A9F0A501B3018EEB93E00E944D
:1024C0007E0DD101F30181918D93CF01861997097A
:1024D0008A159B05C4F384E1D3011D928A95E9F71F
:1024E000C12CCB5FDE4F1882C550D1407E01B9ECC4
:1024F000EB0EF11C2501E4E04E0E511C41E050E0D2
:10250000B7018EEB93E00E947E0D892B09F457C131
:10251000C2018C0D911DC55FDE4F28813981CB50E2
:10252000D140821793070CF04AC1D7018C91B82F84
:10253000B295BF70C65FDE4FB883CA50D1408F706E
:10254000D82EBD3081F441E050E0B7018EEB93E02E
:102550000E947E0DF7018081835FC65FDE4F888316
:10256000CA50D140C394C65FDE4FF881CA50D140F3
:10257000FE3009F01BC121E02093C50230E8309302
:10258000BC026AE771E0CE0183529F4F0E948B2309
:102590007DE0D7120DC041E050E0B7018EEB93E033
:1025A0000E947E0DD7018C914DE0D42ED80EC3949D
:1025B000BEE0DB12C7C1E1E0E093C502F0E8F093B2
:1025C000BC026EE871E0CE0183529F4F0E948B23C4
:1025D000CB5FDE4F3881C550D140C65FDE4F68818A
:1025E000CA50D140360FCB5FDE4F3883C550D14043
:1025F0003B3009F0CDC1D701E4E11D92EA95E9F73E
:102600004D2D50E0B7018EEB93E00E947E0DB70197
:1026100080E191E00E940B05882309F497C1F1E065
:10262000F093BB02CD0CC39469CF442309F4EBCEE5
:102630002652344009F008F4E6CE90E080E028E02D
:10264000E6E2F4E0A9EEB3E001900D922A95E1F7FD
:10265000892B09F4D8CE0E9489021092C0021092F0
:10266000C1021092C2021092C30244E050E060EC3A
:1026700072E089EE93E00E94610A8091C00290911D
:10268000C102A091C202B091C302892B8A2B8B2B6D
:1026900009F4B9CEF12CE12CD12CC12C6AE6862E9E
:1026A00061E0962E71E5272EE5E43E2EFAEA4F2EE4
:1026B000A2E75A2E8E010F5F1F4FBCE66B2EB1E0D2
:1026C0007B2E8091BF028C151D0409F00CF49BCE6B
:1026D000A090BD02B090BE02F501EE0DFF1D448139
:1026E0005581C753DF4F99828882C95CD04082856B
:1026F0009385A485B585C553DF4F88839983AA83C5
:10270000BB83CB5CD040BE0167537F4F8EEB93E021
:102710000E94C00429823A824B825C82D5018C914E
:102720008D83B1E6BE83E7E5EF83FFEFF88748E0EE
:1027300050E0B8018EEB93E00E94440ED801E0E136
:102740001D92EA95E9F78091C3028F938091C202AE
:102750008F938091C1028F938091C0028F937F925B
:102760006F921F930F930E949223F8010190002013
:10277000E9F73197AF01401B510BB8018EEB93E0A5
:102780000E94440E8EEB93E00E94DF0BFFEFCF1A06
:10279000DF0A20E1E20EF11C6DB77EB7685F7F4F64
:1027A0000FB6F8947EBF0FBE6DBF8BCFC65FDE4FF6
:1027B0006881CA50D1406F3009F0EACEC39480914D
:1027C000C50281110C94561CC35FDE4FB881CD50F9
:1027D000D140B13009F0ECC58091B8029091B902B6
:1027E00001969093B9028093B8028091BB02823027
:1027F00009F0A2C201113DC04091D2035091D30310
:102800008AE691E09A8389838091CE039091CF03E9
:10281000A091D003B091D1038B839C83AD83BE8301
:10282000BE016F5F7F4F8EEB93E00E94C00480E695
:10283000CF50DF4F8883C15FD040CE50DF4F18822A
:10284000C25FD040CD50DF4F9882C35FD040CC50A4
:10285000DF4F8882C45FD04044E050E0BE016F503B
:102860007F4F8EEB93E00E94440E8EEB93E00E942C
:10287000DF0B0E948902C0901C04D0901D04E090E0
:102880001E04F0901F046C197D098E099F0969319F
:1028900071058105910520F40E94000887FFE9CFAA
:1028A0008BE193E00197F1F78BE080932504809111
:1028B0002304909124049093DA038093D90388E051
:1028C000E9EDF3E0A8EFB3E001900D928A95E1F70E
:1028D00081E0809300048AE090E09093020480936A
:1028E000010460E08091DB039091DC030E949A096F
:1028F00081110AC00E94890260931C0470931D0418
:1029000080931E0490931F040E9489026B01770F2D
:10291000EE08FF088091C0049091C1048652944053
:1029200011F008F004C10E9489026C197D098E091A
:102930009F09603273408105910508F0EBC00E9449
:102940000008E8CF2FE0D21243CE39CFB7018BE099
:1029500091E00E940B05882321F022E02093BB0226
:1029600061CEB70186E091E00E940B05882321F03B
:1029700033E03093BB0256CEB70180E091E00E9475
:102980000B05882309F44ECE64E06093BB024ACE67
:10299000CB5FDE4F7881C550D140763009F06DC0F5
:1029A00084E08093BB024D2D50E0B3018EEB93E0A9
:1029B0000E947E0DD1103EC08091BD029091BE025A
:1029C000892B09F02FCE80E190E00E944422FC0187
:1029D0009093BE028093BD02D1018C9190E0B0E053
:1029E000A0E080839183A283B3838091CE039091F2
:1029F000CF03A091D003B091D1038B839C83AD838F
:102A0000BE8382879387A487B587178616868091B1
:102A1000D2039091D303B0E0A0E084839583A68392
:102A2000B7838091BF028F5F8093BF02B1E0B09304
:102A3000C402F8CDE1E0DE12F5CD8091BD029091A7
:102A4000BE020E94E0228091BF02882319F08150CB
:102A50008093BF028091BF028111E4CD1092C40225
:102A60001092BE021092BD021092C0021092C102DA
:102A70001092C2021092C302D5CDCB5FDE4FF88117
:102A8000C550D140F13121F5D701E4E11D92EA951D
:102A9000E9F74D2D50E0B7018EEB93E00E947E0DDB
:102AA000D7018C918093BA02882309F4BBCD883278
:102AB00009F4B8CD81E08093C50286E88093BC021A
:102AC00069EA71E0CE0183529F4F0E948B2377CE3B
:102AD000CB5FDE4FB881C550D140BC3009F0A2CDEC
:102AE000F70124E111922A95E9F74D2D50E0B70145
:102AF0008EEB93E00E947E0DD7018C91882309F420
:102B000091CD81E08093C5028FE88093BC026CEB8D
:102B100071E0D8CF81E08093C50281EA8093BC0246
:102B200067ED71E0CE0183529F4F0E948B2343E0FB
:102B300050E0BE016F5F7E4F89ED93E00E94610A15
:102B40004091D2035091D3038AE691E09A8389831E
:102B50008091CE039091CF03A091D003B091D10387
:102B60008B839C83AD83BE83BE016F5F7F4F8EEBF3
:102B700093E00E94C0049E012F503F4F7901011144
:102B80003FC080E4D9018C93D7018C91180F1C931E
:102B900085E411968C93119712969C921297139636
:102BA0008C9244E050E0B7018EEB93E00E94440E1B
:102BB0008091B6029091B70204969093B7028093E9
:102BC000B60280E1F70111928A95E9F78101C80107
:102BD000821993098A159B05BCF4D8016D918D016A
:102BE000F70160838EEB93E00E94A5048091B6020A
:102BF0009091B70201969093B7028093B602E7CF07
:102C000080E5F9018083C0CF81ECD7018C931196C8
:102C10001C9211978FEF12968C9343E050E0B7010E
:102C20008EEB93E00E94440E8091B6029091B70221
:102C300003969093B7028093B60280E1F701119258
:102C40008A95E9F7CD5FDE4F8881C350D1408F93DD
:102C5000CE5FDE4F8881C250D1408F9381EF91E0EB
:102C60009F938F93FF92EF920E949223F70101901E
:102C70000020E9F73197EE19FF098091B602909193
:102C8000B702E80FF91FF093B702E093B602F7011D
:102C900001900020E9F73197AF014E195F09B701A4
:102CA0008EEB93E00E94440E8EEB93E00E94DF0BCC
:102CB0000E948902CA5FDE4F28813981C650D14007
:102CC000621B730B7093B5026093B4020F900F9068
:102CD0000F900F900F900F90C25FDE4FE881F98147
:102CE000CE50D1400FB6F894FEBF0FBEEDBFC05F0F
:102CF000DE4FE881F981C051D1400FB6F894FEBF94
:102D00000FBEEDBFCF5EDE4F0FB6F894DEBF0FBE35
:102D1000CDBFDF91CF911F910F91FF90EF90DF908A
:102D2000CF90BF90AF909F908F907F906F905F906B
:102D30004F903F902F900895843009F091C1011178
:102D40003DC04091D2035091D3038AE691E09A832B
:102D500089838091CE039091CF03A091D003B0914D
:102D6000D1038B839C83AD83BE83BE016F5F7F4F96
:102D70008EEB93E00E94C00480E6CF50DF4F888343
:102D8000C15FD040CE50DF4F1882C25FD040CD50DF
:102D9000DF4F9882C35FD040CC50DF4F8882C45F42
:102DA000D04044E050E0BE016F507F4F8EEB93E087
:102DB0000E94440E8EEB93E00E94DF0B8DE490E0C6
:102DC000A0E0B0E0CF5FDE4F88839983AA83BB8306
:102DD000C150D1400E948902C0901C04D0901D04B3
:102DE000E0901E04F0901F046C197D098E099F0964
:102DF000693171058105910520F40E94000887FF63
:102E0000E9CF8BE193E00197F1F78CE08093250403
:102E100080912304909124049093E2038093E10332
:102E200088E0E1EEF3E0A8EFB3E001900D928A951F
:102E3000E1F7CF5FDE4F88819981AA81BB81C150C4
:102E4000D1408093000490930104A0930204B093B6
:102E5000030460E08091E3039091E4030E949A09E7
:102E600081110AC00E94890260931C0470931D04A2
:102E700080931E0490931F040E9489026B01770FB8
:102E8000EE08FF088091C0049091C10486529440DE
:102E900009F070F40E9489026C197D098E099F095E
:102EA000603273408105910518F40E940008EACF52
:102EB00044E050E0BE016F5F7E4F81EE93E00E94E0
:102EC000610A7E01B1EFEB0EF11C80E1F701119276
:102ED0008A95E9F7011155C080E4D7018C93D70199
:102EE0008C91180F1C9385E411968C931197129670
:102EF0009C92129713968C924091D2035091D303D7
:102F00008AE691E09A8389838091CE039091CF03E2
:102F1000A091D003B091D1038B839C83AD83BE83FA
:102F2000BE016F5F7F4F8EEB93E00E94C00444E0D0
:102F300050E0B7018EEB93E00E94440E8091B60200
:102F40009091B70204969093B7028093B6028101E4
:102F5000C801821993098A159B05BCF4F801619197
:102F60008F01D7016C938EEB93E00E94A5048091B2
:102F7000B6029091B70201969093B7028093B60281
:102F8000E7CF80E5F7018083AACF81ECF70180834A
:102F90008091BA0281838FEF828343E050E0B701D2
:102FA0008EEB93E00E94440E8091B6029091B7029E
:102FB00003969093B7028093B60280E1D7011D92E9
:102FC0008A95E9F78091C3028F938091C2028F9313
:102FD0008091C1028F938091C0028F938CE691E023
:102FE0009F938F93FF92EF920E949223F70101909B
:102FF0000020E9F73197EE19FF098091B602909110
:10300000B702E80FF91FF093B702E093B602F70199
:1030100001900020E9F73197AF014E195F09B70120
:103020008EEB93E00E94440E8EEB93E00E94DF0B48
:103030000E948902CA5FDE4FE881F981C650D14003
:103040006E1B7F0B7093B5026093B4022DB73EB731
:10305000285F3F4F0FB6F8943EBF0FBE2DBF3CCE4A
:10306000833009F00CC1BE016F507F4F7B0101110D
:1030700080C44091D2035091D3038AE691E09A83B1
:1030800089838091CE039091CF03A091D003B0911A
:10309000D1038B839C83AD83BE83605F71098EEB0C
:1030A00093E00E94C00480E6D7018C9311961C9295
:1030B000119712969C92129713968C9244E050E0CE
:1030C000B7018EEB93E00E94440E8EEB93E00E94DA
:1030D000DF0B80E4F7018083D7018C91180F1C93DC
:1030E00085E411968C93119712969C9212971396E1
:1030F0008C924091D2035091D3038AE691E09A8357
:1031000089838091CE039091CF03A091D003B09199
:10311000D1038B839C83AD83BE83BE016F5F7F4FE2
:103120008EEB93E00E94C00444E050E0B7018EEBC8
:1031300093E00E94440E8091B6029091B7020496EB
:103140009093B7028093B6028101C8018219930956
:103150008A159B059CF4F80161918F01D7016C934E
:103160008EEB93E00E94A5048091B6029091B70285
:1031700001969093B7028093B602E7CF81ECF701F6
:1031800080838091BA0281838FEF828343E050E095
:10319000B7018EEB93E00E94440E8091B6029091AD
:1031A000B70203969093B7028093B6022091B802BB
:1031B0003091B9024091B3024F934091B2024F93C4
:1031C000B9010E9416227F936F938091B40290916F
:1031D000B502B9010E9416227F936F938BEF91E0A5
:1031E0009F938F93FF92EF920E949223F701019099
:1031F0000020E9F73197EE19FF098091B60290910E
:10320000B702E80FF91FF093B702E093B602F70197
:1032100001900020E9F73197AF014E195F09B7011E
:103220008EEB93E00E94440E8EEB93E00E94DF0B46
:103230008091B8029091B90201969093B90280935F
:10324000B8020E948902CA5FDE4F28813981C650C8
:10325000D140621B730B8091B4029091B502680F4C
:10326000791F7093B5026093B4026DB77EB7665F45
:103270007F4F0FB6F8947EBF0FBE6DBF2DCD81304E
:1032800009F02ACD4091D2035091D3038AE691E010
:103290009A8389838091CE039091CF03A091D0032C
:1032A000B091D1038B839C83AD83BE83BE016F5FDE
:1032B0007F4F8EEB93E00E94C004011131C0105A81
:1032C000198385E48A839B828C8244E050E0BE01AE
:1032D0006F5F7F4F8EEB93E00E94440E8091B602A9
:1032E0009091B70204969093B7028093B602810141
:1032F000C801821993098A159B05B4F4D8016D9110
:103300008D0169838EEB93E00E94A5048091B60243
:103310009091B70201969093B7028093B602E8CFDE
:10332000013079F6105BCCCF81EC898388E28A8307
:103330008FEF8B8343E050E0BE016F5F7F4F8EEBDA
:1033400093E00E94440E0091B6021091B70248E249
:1033500050E060E272E08EEB93E00E94440E48E29F
:1033600050E068E472E08EEB93E00E94440E075850
:103370001F4F1093B7020093B60246E250E060E799
:1033800072E08EEB93E00E94440E8EEB93E00E947D
:10339000DF0B0E948902CA5FDE4FE881F981C650C7
:1033A000D1406E1B7F0B7093B5026093B40294CC36
:1033B000C35FDE4FF881CD50D140F33009F012C227
:1033C0008091B8029091B90201969093B9028093CE
:1033D000B8028091BB02823009F07ECC6DB67EB619
:1033E0008091B2029091B30201969093B3028093C0
:1033F000B20280E501113EC04091D2035091D30347
:103400008AE691E09A8389838091CE039091CF03DD
:10341000A091D003B091D1038B839C83AD83BE83F5
:10342000BE016F5F7F4F8EEB93E00E94C00480E689
:10343000CF50DF4F8883C15FD040CE50DF4F18821E
:10344000C25FD040CD50DF4F9882C35FD040CC5098
:10345000DF4F8882C45FD04044E050E0BE016F502F
:103460007F4F8EEB93E00E94440E8EEB93E00E9420
:10347000DF0B80E4CF50DF4F8883C15FD040CF5057
:10348000DF4F8881C15FD040810FCF50DF4F8883ED
:10349000C15FD04084E4CE50DF4F8883C25FD0400C
:1034A000CD50DF4F9882C35FD040CC50DF4F888231
:1034B000C45FD040C5010496C80ED92ED11CC55F8B
:1034C000DE4F28813981CB50D1402C193D0969014B
:1034D00084E1D7011D928A95E9F7A901B7018EEB26
:1034E00093E00E947E0DC55FDE4F88819981CB50AD
:1034F000D140880F991FEDB7FEB7E81BF90B0FB647
:10350000F894FEBF0FBEEDBF4DB75EB74F5F5F4F84
:103510009A01D701CD018E199F098C159D05F4F0F4
:10352000C601880F991FFA01E80FF91FF12CE12C51
:1035300090E080E0AAE08C159D052CF550E040E07D
:1035400021E030E08417950789F0B901A69F90012A
:10355000A79F300D11244F5F5F4FF4CF8D918053A3
:10356000990BF901819391939F01D4CF729162914C
:10357000269FA001279F500D369F500D1124E40E69
:10358000F51E0196D8CF79EEE71673E0F70608F03E
:1035900094C00E94890200911C0410911D04209186
:1035A0001E0430911F04601B710B820B930B693159
:1035B00071058105910520F40E94000887FFE9CF7D
:1035C0008BE193E00197F1F78BE0809325048091E4
:1035D0002304909124049093DA038093D90388E024
:1035E000E9EDF3E0A8EFB3E001900D928A95E1F7E1
:1035F00083E080930004F0920204E092010460E012
:103600008091DB039091DC030E949A0981110AC02A
:103610000E94890260931C0470931D0480931E0411
:1036200090931F044091D2035091D3038AE691E016
:103630009A8389838091CE039091CF03A091D00388
:10364000B091D1038B839C83AD83BE83BE016F5F3A
:103650007F4F8EEB93E00E94C00444E050E0BE0137
:103660006F507F4F8EEB93E00E94440E8091B60224
:103670009091B70204969093B7028093B6028101AD
:10368000C801821993098A159B050CF0A1C0D801C5
:103690006D918D01CF50DF4F6883C15FD0408EEBBD
:1036A00093E00E94A5048091B6029091B702019622
:1036B0009093B7028093B602E3CF7E01BDEDEB0E8F
:1036C000F11C66E972E0C7010E948B2380E88093B9
:1036D000BC024091D2035091D3038AE691E09A83D1
:1036E00089838091CE039091CF03A091D003B091B4
:1036F000D1038B839C83AD83BE83BE016F5F7F4FFD
:103700008EEB93E00E94C004011131C0105A19835E
:1037100080E88A839B828C8244E050E0BE016F5F28
:103720007F4F8EEB93E00E94440E8091B602909101
:10373000B70203969093B7028093B6028101C80145
:10374000821993098A159B05B4F4F80161918F01E0
:1037500069838EEB93E00E94A5048091B60290915C
:10376000B70201969093B7028093B602E8CF01307A
:1037700079F6105BCCCF81EC89831A828FEF8B8333
:1037800043E050E0BE016F5F7F4F8EEB93E00E94FD
:10379000440EF70101900020E9F73197EE19FF0977
:1037A0008091B6029091B70203968E0F9F1F90935F
:1037B000B7028093B602F70101900020E9F7319734
:1037C000AF014E195F09B7018EEB93E00E94440EE2
:1037D0008EEB93E00E94DF0B0FB6F8947EBE0FBE17
:1037E0006DBE7ACAC35FDE4FF881CD50D140F11172
:1037F00073CA8091B8029091B90201969093B90270
:103800008093B802011168CA80E4CF50DF4F8883EB
:10381000C15FD040CE50DF4F1882C25FD040CD5044
:10382000DF4F9882C35FD0404091D2035091D303C1
:103830008AE691E09A8389838091CE039091CF03A9
:10384000A091D003B091D1038B839C83AD83BE83C1
:10385000BE016F5F7F4F8EEB93E00E94C00443E098
:1038600050E0BE016F507F4F8EEB93E00E94440EFC
:103870008091B6029091B70203969093B70280931D
:10388000B6028EEB93E00E94DF0B0E948902CA5FB2
:10389000DE4F28813981C650D140621B730B809165
:1038A000B4029091B502680F791F7DCD4091D2038B
:1038B0005091D3038AE691E09A8389838091CE0365
:1038C0009091CF03A091D003B091D1038B839C83BF
:1038D000AD83BE83BE016F5F7F4F8EEB93E00E948E
:1038E000C004011120C0105A19838091BC028A8340
:1038F0009B828C8244E050E0BE016F5F7F4F8EEB75
:1039000093E00E94440E8101C801821993098A152F
:103910009B056CF4D8016D918D0169838EEB93E06A
:103920000E94A504F1CF013001F7105BDDCF81ECDF
:1039300089831A828FEF8B8343E050E0BE016F5F73
:103940007F4F8EEB93E00E94440EBE0163527F4F87
:10395000FB0101900020E9F73197AF01461B570B9F
:103960008EEB93E00E94440E8EEB93E00E94DF0BFF
:10397000B3C980E5DB018C93AFCB1F920F920FB6DA
:103980000F9211242F933F934F935F936F937F93E5
:103990008F939F93AF93BF93EF93FF938BEE92E040
:1039A0000E945601FF91EF91BF91AF919F918F912E
:1039B0007F916F915F914F913F912F910F900FBE2B
:1039C0000F901F9018951F920F920FB60F9211240F
:1039D0002F938F939F93EF93FF93E091FB02F091CE
:1039E000FC028081E0910103F091020382FD1BC083
:1039F0009081809104038F5F8F732091050382175C
:103A000041F0E0910403F0E0E551FD4F958F809384
:103A10000403FF91EF919F918F912F910F900FBE13
:103A20000F901F9018958081F4CF1F920F920FB6C0
:103A30000F9211242F933F938F939F93AF93BF9334
:103A40008091C7029091C802A091C902B091CA02A8
:103A50003091C60223E0230F2D3758F50196A11DA2
:103A6000B11D2093C6028093C7029093C802A09311
:103A7000C902B093CA028091CB029091CC02A0916E
:103A8000CD02B091CE020196A11DB11D8093CB0253
:103A90009093CC02A093CD02B093CE02BF91AF9190
:103AA0009F918F913F912F910F900FBE0F901F907C
:103AB000189526E8230F0296A11DB11DD2CF0F93B2
:103AC0001F93CF93DF93EBEEF2E01382128248EE66
:103AD00053E060E070E044835583668377838EE231
:103AE00091E09183808385EC90E09587848784ECD6
:103AF00090E09787868780EC90E0918B808B81ECBB
:103B000090E0938B828B82EC90E0958B848B86EC9B
:103B100090E0978B868B118E128E138E148EE8E8B0
:103B2000F3E08AE691E0918380831282138214820B
:103B30001582EEE8F3E0918380831282138214826F
:103B40001582E4E9F3E09183808312821382148268
:103B50001582EAE9F3E09183808312821382148252
:103B60001582E0EAF3E0918380831282138214824B
:103B70001582ECEAF3E0918380831282138214822F
:103B80001582E6EAF3E09183808312821382148225
:103B90001582E2EBF3E09183808312821382148218
:103BA0001582E8EBF3E09183808312821382148202
:103BB0001582EBE7F5E091838083128213821482F1
:103BC0001582E3E6F5E027E030E03183208328E04A
:103BD00030E033832283168220E22783108625E09B
:103BE000268705E010E020E030E0048B158B268B63
:103BF000378B1186A1EFB3E0D096FC93EE939F979D
:103C000026E234E03093C1042093C0042EEC34E06B
:103C10003093CD042093CC0422EC34E098963C936E
:103C20002E9397979B961D921D921D921C929E9784
:103C30009A961C929A9799961C9299971C92E9EEE3
:103C4000F3E0A1E0B0E0B383A28320911B013091A7
:103C50001C01358324831682E1EEF3E0B383A28353
:103C6000E9012196D583C483C0E3C683E9EDF3E07F
:103C7000B383A283D9011396B0931C01A0931B01B7
:103C80002E5F3F4F3583248321E32683EEEBF3E061
:103C900013821282448355836683778320E431E064
:103CA0003183208397878687108A118A128A138A24
:103CB00084E0808FDF91CF911F910F910895CF9372
:103CC000DF9300D000D000D0CDB7DEB7789484B5B4
:103CD000826084BD84B5816084BD85B5826085BD08
:103CE00085B5816085BD80916E00816080936E0096
:103CF0001092810080918100826080938100809188
:103D00008100816080938100809180008160809338
:103D100080008091B10084608093B1008091B000F8
:103D200081608093B00080917A00846080937A00F3
:103D300080917A00826080937A0080917A0081601D
:103D400080937A0080917A00806880937A00109244
:103D5000C100E091FB02F091FC0282E08083E091DF
:103D6000F702F091F8021082E091F902F091FA0264
:103D700080E1808310920303E091FF02F091000341
:103D800086E08083E091FD02F091FE0280818061F7
:103D90008083E091FD02F091FE0280818860808343
:103DA000E091FD02F091FE02808180688083E091C5
:103DB000FD02F091FE0280818F7D808362EA72E0D5
:103DC0008BEE92E00E94A10A6AEA72E08BEE92E02A
:103DD0000E94A10A6DEA72E08BEE92E00E94A10AB5
:103DE0006AEA72E08BEE92E00E94A10A04EB10E016
:103DF000F8016491662341F08BEE92E00E94780115
:103E00000F5F1F4F892BA1F78AE691E09A83898380
:103E10001B821C821D821E8280E591E00E9491001F
:103E200044E050E0BE016D5F7F4F8FE090E00E9464
:103E3000460B6BEE72E0CE0101960E94FC0A6AEA24
:103E400072E08BEE92E00E94A10A65E379E08EEBCE
:103E500093E00E94FB0E6CED75E080E090E00E9424
:103E6000560200E010E00E94B11101151105D9F3CE
:103E70000E9442018823B9F30E940000F4CFABE016
:103E8000B0E0E5E4FFE10C94BD217C013B018A0137
:103E9000FC0117821682838181FFC8C1CE01019681
:103EA0005C01F7019381F30193FD859193FF81916B
:103EB0003F01882309F453C1853239F493FD85917C
:103EC00093FF81913F01853229F4B70190E00E9470
:103ED0002F21E7CF912C212C312CFFE1F31538F065
:103EE0008B3211F190F4803209F1833229F137FCE1
:103EF0003CC020ED280F2A3050F536FE20C08AE065
:103F0000989E200D1124922E06C08D3291F08033A0
:103F100071F7689430F8F30193FD859193FF8191D7
:103F20003F018111DACF21C0689431F8689432F8EA
:103F3000F2CF689433F8EFCF689434F8ECCFEAE02E
:103F40002E9E200D1124222E689435F8E4CF8E3257
:103F500029F436FC04C1689436F8DDCF8C3619F4A8
:103F6000689437F8D8CF8836B1F2982F9F7D955452
:103F70009330E0F08336A1F18337C1F1833509F046
:103F800063C02801F2E04F0E511CF801C080D180BF
:103F9000692D70E036FC02C06FEF7FEFC6010E9412
:103FA00019214C01689437F882010AC00C5F1F4F39
:103FB000FFE3F98388248394912C6501E89437F812
:103FC00033FE2DC0522C8114910471F5552009F453
:103FD00068CFB70180E290E00E942F215A94F6CF7B
:103FE000F801808189830E5F1F4FE4CF2801F2E042
:103FF0004F0E511CF801C080D180692D70E036FC55
:1040000002C06FEF7FEFC6010E9424214C018201A4
:10401000D5CFB70180E290E00E942F212A94281486
:10402000190409F0B0F7CECFF60137FC859137FEC1
:1040300081916F01B70190E00E942F2151105A9495
:10404000F1E08F1A9108BFCF843619F0893609F054
:1040500077C0F80137FE6BC06081718182819381E6
:104060000C5F1F4FF32DFF763F2E97FF09C09095F1
:104070008095709561957F4F8F4F9F4F689437F86B
:104080002AE030E0A5010E945F21C82ECA188C2CBE
:10409000432C36FE0CC0E89440F8C91440F434FEBA
:1040A00005C032FC03C0F32DFE7E4F2E892C44FE4A
:1040B00095C0FE01EC0DF11D8081803309F087C0B1
:1040C000242D297E422E842D8870582E43FC95C0C5
:1040D00040FE8FC09C2C821418F42C0C922C981843
:1040E00044FE91C0B70180E390E00E942F2142FE80
:1040F00009C088E790E041FE02C088E590E0B70182
:104100000E942F21C91408F48AC0CA94D12C9FEFB1
:10411000C91AD90ACA0CDB1CF60182916F01B701DA
:1041200090E00E942F21AC14BD04B1F74FCF608105
:104130007181072E000C880B990B0E5F1F4F92CFD9
:10414000D32CE894D4F82AE030E0853739F1232DD8
:10415000297FD22E8F3601F148F48835A9F0F70176
:10416000868197812B96E2E10C94D921803749F022
:104170008837A9F7D4FE02C06894D2F820E130E075
:104180000DC06894D4F8F6CF34FE03C0822F866049
:10419000D82E20E132E002C028E030E0F801D7FE5E
:1041A0000FC060817181828193810C5F1F4FA501D7
:1041B0000E945F21C82ECA183D2CE89437F867CFBB
:1041C0006081718190E080E00E5F1F4FF0CF42FC74
:1041D00002C0839478CF8394839475CF842D86789E
:1041E00009F471CFF6CFB70180E290E00E942F2151
:1041F00083948214C0F3512C73CF522C581882141C
:1042000008F46ECFF8CF842D867809F47BCF8BE24B
:1042100041FE80E247FC8DE2B70190E071CFB7012B
:1042200080E390E00E942F219A946CCF8FEF9FEF54
:1042300099CFFC010590615070400110D8F780952E
:1042400090958E0F9F1F0895FC0161507040019062
:104250000110D8F7809590958E0F9F1F08950F93AA
:104260001F93CF93DF93182F092FEB018B8181FDD3
:1042700009C01FEF0FEF812F902FDF91CF911F917A
:104280000F91089582FF14C02E813F818C819D8102
:10429000281739073CF4E881F981CF010196998309
:1042A000888310838E819F8101969F838E83E3CFC5
:1042B000E885F985812F0995892BA1F3DACFFA01D9
:1042C000AA27283051F1203181F1E8946F936E7F55
:1042D0006E5F7F4F8F4F9F4FAF4FB1E03ED0B4E046
:1042E0003CD0670F781F891F9A1FA11D680F791F87
:1042F0008A1F911DA11D6A0F711D811D911DA11D98
:1043000020D009F468943F912AE0269F11243019A7
:10431000305D3193DEF6CF010895462F4770405D42
:104320004193B3E00FD0C9F7F6CF462F4F70405DF1
:104330004A3318F0495D31FD4052419302D0A9F74C
:10434000EACFB4E0A6959795879577956795BA9546
:10435000C9F700976105710508959B01AC010A2E0C
:1043600006945795479537952795BA95C9F7620FE3
:10437000731F841F951FA01D08952F923F924F9287
:104380005F926F927F928F929F92AF92BF92CF92E5
:10439000DF92EF92FF920F931F93CF93DF93CDB7EE
:1043A000DEB7CA1BDB0B0FB6F894DEBF0FBECDBF66
:1043B00009942A88398848885F846E847D848C8437
:1043C0009B84AA84B984C884DF80EE80FD800C8140
:1043D0001B81AA81B981CE0FD11D0FB6F894DEBF23
:1043E0000FBECDBFED010895A1E21A2EAA1BBB1B83
:1043F000FD010DC0AA1FBB1FEE1FFF1FA217B307B1
:10440000E407F50720F0A21BB30BE40BF50B661FC6
:10441000771F881F991F1A9469F76095709580958A
:1044200090959B01AC01BD01CF01089597FB072E2C
:1044300016F4009407D077FD09D00E942A2207FCC9
:1044400005D03EF4909581959F4F089570956195A4
:104450007F4F0895AA1BBB1B51E107C0AA1FBB1FBA
:10446000A617B70710F0A61BB70B881F991F5A9500
:10447000A9F780959095BC01CD010895EE0FFF1F1F
:104480000590F491E02D09940F931F93CF93DF9340
:104490008230910510F482E090E0E0918305F09184
:1044A000840530E020E0B0E0A0E0309799F42115D9
:1044B000310509F44AC0281B390B24303105D8F5E1
:1044C0008A819B816115710589F1FB019383828348
:1044D000FE0111C0408151810281138148175907A3
:1044E000E0F04817590799F4109761F012960C9371
:1044F000129713961C933296CF01DF91CF911F91A3
:104500000F9108950093830510938405F4CF21152E
:10451000310551F04217530738F0A901DB019A0128
:10452000BD01DF01F801C1CFEF01F9CF9093840500
:1045300080938305CDCFFE01E20FF31F819391930A
:104540002250310939832883D7CF209181053091BA
:104550008205232B41F420911F01309120013093DB
:1045600082052093810520911D0130911E012115A6
:10457000310541F42DB73EB7409121015091220100
:10458000241B350BE0918105F0918205E217F307BA
:10459000A0F42E1B3F0B2817390778F0AC014E5FB3
:1045A0005F4F2417350748F04E0F5F1F5093820569
:1045B00040938105819391939FCFF0E0E0E09CCF01
:1045C000CF93DF930097E9F0FC01329713821282B8
:1045D000A0918305B0918405ED0130E020E01097B3
:1045E000A1F420813181820F931F209181053091A8
:1045F00082052817390709F061C0F0938205E0931E
:104600008105DF91CF910895EA01CE17DF07E8F524
:104610004A815B819E0141155105B1F7E901FB8398
:10462000EA8349915991C40FD51FEC17FD0761F436
:10463000808191810296840F951FE9019983888377
:10464000828193819B838A83F0E0E0E012968D91D2
:104650009C9113970097B9F52D913C911197CD013D
:104660000296820F931F20918105309182052817B1
:10467000390739F6309751F5109284051092830569
:10468000B0938205A0938105BCCFD383C2834081C0
:104690005181840F951FC817D90761F44E5F5F4F92
:1046A00088819981480F591F518340838A819B815A
:1046B000938382832115310509F0B0CFF0938405EF
:1046C000E09383059ECFFD01DC01C0CF13821282EF
:1046D000D7CFFB01DC0102C001900D924150504048
:1046E000D8F708956817790768F4FB01DC01E40F37
:1046F000F51FA40FB51F02C002900E92415050400A
:10470000D8F708950C946923DC0101C06D934150E2
:104710005040E0F70895FB01DC0101900D9200206C
:10472000E1F70895AEE0B0E0E8E9F3E20C94CB21C4
:104730000D891E8986E08C831A8309838FEF9FE79A
:104740009E838D83AE01475E5F4F6F89788DCE016A
:1047500001960E943F1F2F813885020F131FF80119
:0E47600010822E96E4E00C94E721F894FFCF2F
:10476E00627574746F6E73746174736C6967687458
:10477E002E77656C6C2D6B6E6F776E010000008569
:10478E00058000C33C33CE3EE3EC00000000780110
:10479E00D8000501C50136011401280100000000F2
:1047AE00A504440E3705A404BB049D0D100CFB0E8E
:1047BE004D0CD20BC004090FDF0BC70D7E0D30055B
:1047CE0020051C05180500000000FC0A54696D65E3
:1047DE007374616D703A202575004E6F7420737579
:1047EE0070706F727465642064656C7461004E6FD6
:1047FE007420737570706F72746564206F70746955
:10480E006F6E4C656E6774680057726F6E672063CB
:10481E006F6E74656E742D74797065004E6F7420B2
:10482E00737570706F7274656420636F6E74656EED
:10483E00742D747970650043616E6E6F7420636FB2
:10484E006E6E65637420746F204D696E6950726F61
:10485E00006C696768743A202575006176675F742D
:10486E00696D653A20257520422F6D3A20257520F9
:10487E005075745F636F756E7465723A202575009E
:10488E003C2F6C696768743E3B72743D226C69679D
:10489E0068742D696E74656E73697479223B6966EE
:1048AE003D226C616D7022003C2F627574746F6EC8
:1048BE003E3B72743D22627574746F6E2D636C692B
:1048CE00636B223B69663D22627574746F6E2200C3
:1048DE003C2F73746174733E3B72743D227374612A
:1048EE0074697374696373223B69663D226D6574E6
:1048FE0072696373220057726F6E6720696E7075EE
:10490E00740053455455503132000D0A006C6F6BD4
:02491E006F0028
:00000001FF
