:100000000C94BA000C94E2000C94E2000C94E20010
:100010000C94E2000C94E2000C94E2000C94E200D8
:100020000C94E2000C94E2000C94E2000C94E200C8
:100030000C94E2000C94E2000C94E2000C94E200B8
:100040000C945E040C94E2000C942C040C940604B2
:100050000C94E2000C94E2000C94E2000C94E20098
:100060000C94E2000C94E2004F626972457468657A
:10007000726E65745544503A3A626567696E5061B4
:10008000636B657428636F6E73742063686172209C
:100090002A686F73742C2075696E7431365F742012
:1000A000706F7274293B206973206E6F74207375B2
:1000B00070706F727465642120536F7272792100C1
:1000C0002E004D7920495020616464726573733A43
:1000D00020005D0032313A35313A3338002C2000AF
:1000E0004170722032352032303230002C200043F3
:1000F0003A5C55736572735C6164616D735C7465C1
:100100006D705C4164616D5F536D6F6C696E736B94
:10011000695C454253696D556E6F4574685C756ED8
:100120006F2D6F6269722D736F757263655C4F62BC
:1001300069724574685F7A6164322E696E6F5C4FD4
:100140006269724574685F7A6164322E696E6F2EDF
:10015000696E6F006F6269722065746820756470E3
:100160002073657276657220696E69742E2E2E205A
:100170005B00A80411241FBECFEFD8E0DEBFCDBFC7
:1001800011E0A0E0B1E0EEEAFDE002C005900D92C2
:10019000AE34B107D9F722E0AEE4B1E001C01D9260
:1001A000A939B207E1F710E0CAEBD0E004C021970B
:1001B000FE010E94C706C93BD107C9F70E941B0573
:1001C0000C94D5060C940000AF92BF92CF92DF92B0
:1001D000EF92FF920F931F93CF93DF936C017B01FC
:1001E0008B01040F151FEB015E01AE18BF08C0178D
:1001F000D10759F06991D601ED91FC910190F08100
:10020000E02DC6010995892B79F7C501DF91CF91C2
:100210001F910F91FF90EF90DF90CF90BF90AF9024
:100220000895FC01538D448D252F30E0842F90E0FC
:10023000821B930B541710F0CF96089501970895E1
:10024000FC01918D828D981761F0A28DAE0FBF2FAA
:10025000B11D5D968C91928D9F5F9F73928F90E000
:1002600008958FEF9FEF0895FC01918D828D98176F
:1002700031F0828DE80FF11D858D90E008958FEFAC
:100280009FEF0895FC01918D228D892F90E0805C75
:100290009F4F821B91098F73992708958BEB91E0F3
:1002A0000E94420121E0892B09F420E0822F089569
:1002B00080E090E0892B29F00E944E0181110C947E
:1002C00000000895FC01A48DA80FB92FB11DA35AF9
:1002D000BF4F2C91848D90E001968F739927848F66
:1002E000A689B7892C93A089B1898C918370806489
:1002F0008C93938D848D981306C00288F389E02D2A
:1003000080818F7D80830895EF92FF920F931F93DA
:10031000CF93DF93EC0181E0888F9B8D8C8D9813B8
:100320001AC0E889F989808185FF15C09FB7F894C4
:10033000EE89FF896083E889F98980818370806410
:1003400080839FBF81E090E0DF91CF911F910F915B
:10035000FF90EF900895F62E0B8D10E00F5F1F4F6A
:100360000F731127E02E8C8D8E110CC00FB607FC79
:10037000FACFE889F989808185FFF5CFCE010E9407
:100380006201F1CFEB8DEC0FFD2FF11DE35AFF4F12
:10039000F0829FB7F8940B8FEA89FB898081806295
:1003A000CFCFEF92FF920F931F93CF93DF938C01E8
:1003B0007B01D0E0C0E0F701EC0FFD1F64916623E4
:1003C00039F0C8010E948401892B11F02196F3CFE6
:1003D000CE01DF91CF911F910F91FF90EF90089583
:1003E000CF93DF93EC01888D8823B9F0AA89BB896C
:1003F000E889F9898C9185FD03C0808186FD0DC057
:100400000FB607FCF7CF8C9185FFF2CF808185FF77
:10041000EDCFCE010E946201E9CFDF91CF91089527
:1004200081E0089587E08CBF95EE9BBF1ABE8CBF1C
:1004300086EE8BBF1ABE089590E080E0089597E0A5
:100440009CBF87EE8BBF2AB79CBF88EE8BBF8AB755
:10045000322F282F9CBF85EE8BBF8AB79CBF96EEAC
:100460009BBF9AB7892798278927821B930B481728
:10047000590708F4CA01A9014751584FFB01DB0194
:10048000A80FB91FEA17FB0739F05CBF4BBF6AB76B
:1004900061934F5F5F4FF6CF280F391F47E04CBF86
:1004A00057EE5BBF3ABF4CBF38EE3BBF2ABF089543
:1004B000CF93DF931F92CDB7DEB7DC01ED91FC91B6
:1004C000028CF38DE02D41E050E0BE016F5F7F4F65
:1004D00009951816190634F4898190E00F90DF9180
:1004E000CF9108958FEF9FEFF9CFFC0197E09CBF6C
:1004F00085EE8BBF8AB79CBF26EE2BBF6AB79CBF29
:1005000027EE2BBF2AB79CBF98EE9BBF3AB71CBE05
:1005100090E19BBF9AB71CBE4FE04BBF4AB71CBED1
:100520005EE05BBF5AB71CBE7DE07BBF7AB7708BC5
:10053000518B428B938B1CBE91E19BBF4AB71CBE73
:1005400092E19BBF9AB7542F492F558B448B982F1C
:10055000862F232732272327821B930B08951CBE47
:1005600083E18BBF8AB71CBE94E19BBF9AB78927F2
:1005700098278927FB019C012B5E3F4FDB01A40FCD
:10058000B51FEA17FB0739F061913CBF2BBF6ABF6B
:100590002F5F3F4FF6CF480F591F1CBE83E18BBF23
:1005A0005ABF1CBE84E18BBF4ABF90E080E0089533
:1005B000CF93DF931F92CDB7DEB76983DC01ED9156
:1005C000FC910280F381E02D41E050E0BE016F5FBD
:1005D0007F4F09950F90DF91CF9108951CBE1BBEF0
:1005E0008FEF8ABF1CBE1BBE82E08ABF90E080E016
:1005F0000895FB0132812381948185811CBE1BBE3D
:1006000061E06ABF1CBE6DE06BBF3ABF1CBE3EE03E
:100610003BBF2ABF1CBE2FE02BBF9ABF1CBE90E180
:100620009BBF8ABF1CBE81E18BBF5ABF1CBE82E14B
:100630008BBF4ABF81E090E008950895DC01ED9101
:10064000FC91008CF18DE02D09941CBE8BE08BBFDA
:100650007ABF1CBE8CE08BBF6ABF1CBE1BBE83E092
:100660008ABF81E00895FC018489958908952EE36D
:1006700031E0FC0131832083FB014089518962898B
:100680007389FC0142835383648375830895DC017D
:10069000ED91FC91028CF38DE02D099490E080E0C7
:1006A0000895FB0101900020E9F73197AF01461B47
:1006B000570BDC01ED91FC910280F381E02D099450
:1006C0008F929F92AF92BF92EF92FF920F931F93E0
:1006D000CF93DF93CDB7DEB7A1970FB6F894DEBF07
:1006E0000FBECDBF7C01FA01CB0119A2223008F464
:1006F0002AE08E010F5D1F4F822E912CB12CA12C70
:10070000BF01A50194010E94A506F901CA016A3042
:100710000CF5605DD8016E938D01232B242B252BC6
:1007200079F790E080E0109721F0BD01C7010E94A9
:100730005103A1960FB6F894DEBF0FBECDBFDF9177
:10074000CF911F910F91FF90EF90BF90AF909F902E
:100750008F900895695CDECF8F929F92AF92BF9287
:10076000CF92DF92EF92FF920F931F93CF93DF937D
:100770007C01EB016C0182E0C80ED11C4701E5E071
:100780008E0E911C10E000E0F60141916F0150E0E7
:1007900070E060E02AE0CE010E9460035C01E88125
:1007A000F9810190F081E02D6EE2CE0109958A0D6C
:1007B0009B1D080F191FC814D90431F7F701458193
:1007C00050E070E060E02AE0CE010E946003800FFC
:1007D000911FDF91CF911F910F91FF90EF90DF90CC
:1007E000CF90BF90AF909F908F90089568E670E093
:1007F0008BEB91E00E94D10160E471E08BEB91E022
:100800000E945103989590E080E008951F920F9206
:100810000FB60F9211242F933F934F935F936F93D3
:100820007F938F939F93AF93BF93EF93FF938BEB44
:1008300091E00E946201FF91EF91BF91AF919F9172
:100840008F917F916F915F914F913F912F910F9079
:100850000FBE0F901F9018951F920F920FB60F9218
:1008600011242F938F939F93EF93FF93E091CB01EC
:10087000F091CC018081E091D101F091D20182FD13
:100880001BC090818091D4018F5F8F732091D5011F
:10089000821741F0E091D401F0E0E554FE4F958FCE
:1008A0008093D401FF91EF919F918F912F910F90A1
:1008B0000FBE0F901F9018958081F4CF1F920F925A
:1008C0000FB60F9211242F933F938F939F93AF9363
:1008D000BF938091530190915401A0915501B09123
:1008E00056013091520123E0230F2D3758F5019620
:1008F000A11DB11D20935201809353019093540187
:10090000A0935501B093560180914E0190914F01F3
:10091000A0915001B09151010196A11DB11D80938C
:100920004E0190934F01A0935001B0935101BF919C
:10093000AF919F918F913F912F910F900FBE0F908C
:100940001F90189526E8230F0296A11DB11DD2CF46
:10095000EBEBF1E01382128248EE53E060E070E0CE
:10096000448355836683778384E091E09183808319
:1009700085EC90E09587848784EC90E09787868764
:1009800080EC90E0918B808B81EC90E0938B828B5C
:1009900082EC90E0958B848B86EC90E0978B868B35
:1009A000118E128E138E148EE8E5F2E08EE391E044
:1009B000918380831282138214821582E6E6F2E02C
:1009C000918380831282138214821582EEE5F2E015
:1009D000918380831282138214821582ECE6F2E006
:1009E000918380831282138214821582E2E7F2E0FF
:1009F000918380831282138214821582E3E9F2E0EC
:100A0000918380831282138214821582E8E7F2E0D8
:100A100013821282448355836683778326E131E013
:100A20003183208397878687108A118A128A138AD6
:100A300084E0808F0895CF93DF9300D000D000D062
:100A4000CDB7DEB7789484B5826084BD84B581600B
:100A500084BD85B5826085BD85B5816085BD809189
:100A60006E00816080936E00109281008091810001
:100A700082608093810080918100816080938100F9
:100A8000809180008160809380008091B1008460BB
:100A90008093B1008091B00081608093B00080911C
:100AA0007A00846080937A0080917A0082608093DB
:100AB0007A0080917A00816080937A0080917A0038
:100AC000806880937A001092C100E091CB01F09190
:100AD000CC0182E08083E091C701F091C8011082CF
:100AE000E091C901F091CA0180E180831092D301A5
:100AF000E091CF01F091D00186E08083E091CD01BB
:100B0000F091CE01808180618083E091CD01F091F0
:100B1000CE01808188608083E091CD01F091CE018B
:100B2000808180688083E091CD01F091CE01808149
:100B30008F7D808364E571E08BEB91E00E94D101B1
:100B40006FEE70E08BEB91E00E94D1016CEE70E0F3
:100B50008BEB91E00E94D10160EE70E08BEB91E0B5
:100B60000E94D1016DED70E08BEB91E00E94D1010C
:100B700064ED70E08BEB91E00E94D10162ED70E0DA
:100B80008BEB91E00E94D10160E471E08BEB91E08E
:100B90000E94510388E080936002809361028093F9
:100BA00062028093630262EC70E08BEB91E00E9442
:100BB000D1018E010D5F1F4F7E0187E0E80EF11C11
:100BC0003AE0A32E49E0B42E58E0C52E67E0D62EB9
:100BD0001CBEABBE8AB71CBEBBBE9AB71CBECBBE8A
:100BE0002AB71CBEDBBE3AB73B832C839D838E8322
:100BF000D8014D918D0150E070E060E02AE08BEB70
:100C000091E00E94600360EC70E08BEB91E00E9449
:100C1000D1010E151F05E1F660E471E08BEB91E068
:100C20000E94510363E479E088E792E00E94250383
:100C300090E0E92E90E0F92E2EE3C22E21E0D22E94
:100C400088E792E00E947502181619060CF071C030
:100C500044E650E067E571E088E792E00E941F02F9
:100C60008C0163E471E08BEB91E00E945103F80189
:100C7000E95AFE4F108267E571E08BEB91E00E942C
:100C8000510360E471E08BEB91E00E94510387E532
:100C9000A82E81E0B82EC501875591408017910795
:100CA00054F4F50181915F0190E00E94CD06F501B9
:100CB00031978083F0CFF801EA5AFE4F47E551E0C3
:100CC0009A0127553140CF018755914028173907A0
:100CD00064F4DA018D91AD0190819D0121503109BB
:100CE000D9019C9380833197EBCF40918C02509136
:100CF0008D02DA82C9828091880290918902A09146
:100D00008A02B0918B028B839C83AD83BE83BE012C
:100D10006F5F7F4F88E792E00E94F902A80167E5C4
:100D200071E088E792E00E94AF0288E792E00E94BB
:100D3000EE02E114F10409F483CF0E944E018823EE
:100D400009F47ECF0E9400007BCFA1E21A2EAA1BDD
:100D5000BB1BFD010DC0AA1FBB1FEE1FFF1FA2176B
:100D6000B307E407F50720F0A21BB30BE40BF50B68
:100D7000661F771F881F991F1A9469F760957095F1
:100D8000809590959B01AC01BD01CF010895EE0FB8
:100D9000FF1F0590F491E02D09949111089581565B
:0E0DA0008A5108F4805285580895F894FFCFC8
:100DAE00000000008401E4001101F0014201200165
:100DBE00340100000000D802AF024E0312021E03DF
:100DCE0058021C0225031D03F902F603EE027502FA
:100DDE001F02470337033303100200000000AC0369
:0E0DEE000D0A0052656369657665643A20005F
:00000001FF
