:100000000C946A000C9492000C9492000C94920050
:100010000C9492000C9492000C9492000C94920018
:100020000C9492000C9492000C9492000C94920008
:100030000C9492000C9492000C9492000C949200F8
:100040000C947E040C9492000C944C040C942604A2
:100050000C9492000C9492000C9492000C949200D8
:100060000C9492000C9492004F626972457468651A
:10007000726E65745544503A3A626567696E5061B4
:10008000636B657428636F6E73742063686172209C
:100090002A686F73742C2075696E7431365F742012
:1000A000706F7274293B206973206E6F74207375B2
:1000B00070706F727465642120536F7272792100C1
:1000C0002E004D7920495020616464726573733A43
:1000D0002000C80411241FBECFEFD8E0DEBFCDBF83
:1000E00012E0A0E0B1E0E8ECF2E102C005900D9270
:1000F000A633B107D9F723E0A6E3B2E001C01D9211
:10010000AF3EB207E1F710E0CAE6D0E004C02197A5
:10011000FE010E943708C936D107C9F70E9443057E
:100120000C9462090C940000AF92BF92CF92DF92C0
:10013000EF92FF920F931F93CF93DF936C017B019C
:100140008B01040F151FEB015E01AE18BF08C0172D
:10015000D10759F06991D601ED91FC910190F081A0
:10016000E02DC6010995892B79F7C501DF91CF9163
:100170001F910F91FF90EF90DF90CF90BF90AF90C5
:100180000895FC01538D448D252F30E0842F90E09D
:10019000821B930B541710F0CF9608950197089582
:1001A000FC01918D828D981761F0A28DAE0FBF2F4B
:1001B000B11D5D968C91928D9F5F9F73928F90E0A1
:1001C00008958FEF9FEF0895FC01918D828D981710
:1001D00031F0828DE80FF11D858D90E008958FEF4D
:1001E0009FEF0895FC01918D228D892F90E0805C16
:1001F0009F4F821B91098F73992708958FE392E097
:100200000E94F20021E0892B09F420E0822F08955A
:1002100080E090E0892B29F00E94FE0081110C946F
:1002200000000895FC01A48DA80FB92FB11DA35A99
:10023000BF4F2C91848D90E001968F739927848F06
:10024000A689B7892C93A089B1898C918370806429
:100250008C93938D848D981306C00288F389E02DCA
:1002600080818F7D80830895EF92FF920F931F937B
:10027000CF93DF93EC0181E0888F9B8D8C8D981359
:100280001AC0E889F989808185FF15C09FB7F89465
:10029000EE89FF896083E889F989808183708064B1
:1002A00080839FBF81E090E0DF91CF911F910F91FC
:1002B000FF90EF900895F62E0B8D10E00F5F1F4F0B
:1002C0000F731127E02E8C8D8E110CC00FB607FC1A
:1002D000FACFE889F989808185FFF5CFCE010E94A8
:1002E0001201F1CFEB8DEC0FFD2FF11DE35AFF4F03
:1002F000F0829FB7F8940B8FEA89FB898081806236
:10030000CFCFEF92FF920F931F93CF93DF938C0188
:100310007B01D0E0C0E0F701EC0FFD1F6491662384
:1003200039F0C8010E943401892B11F02196F3CFD6
:10033000CE01DF91CF911F910F91FF90EF90089523
:10034000CF93DF93EC01888D8823B9F0AA89BB890C
:10035000E889F9898C9185FD03C0808186FD0DC0F7
:100360000FB607FCF7CF8C9185FFF2CF808185FF18
:10037000EDCFCE010E941201E9CFDF91CF91089518
:1003800081E0089587E08CBF95EE9BBF1ABE8CBFBD
:1003900086EE8BBF1ABE089590E080E0089597E046
:1003A0009CBF87EE8BBF2AB79CBF88EE8BBF8AB7F6
:1003B000322F282F9CBF85EE8BBF8AB79CBF96EE4D
:1003C0009BBF9AB7892798278927821B930B4817C9
:1003D000590708F4CA01A9014751584FFB01DB0135
:1003E000A80FB91FEA17FB0739F05CBF4BBF6AB70C
:1003F00061934F5F5F4FF6CF280F391F47E04CBF27
:1004000057EE5BBF3ABF4CBF38EE3BBF2ABF0895E3
:10041000CF93DF931F92CDB7DEB7DC01ED91FC9156
:10042000028CF38DE02D41E050E0BE016F5F7F4F05
:1004300009951816190634F4898190E00F90DF9120
:10044000CF9108958FEF9FEFF9CFFC0197E09CBF0C
:1004500085EE8BBF8AB79CBF26EE2BBF6AB79CBFC9
:1004600027EE2BBF2AB79CBF98EE9BBF3AB71CBEA6
:1004700090E19BBF9AB71CBE4FE04BBF4AB71CBE72
:100480005EE05BBF5AB71CBE7DE07BBF7AB7708B66
:10049000518B428B938B1CBE91E19BBF4AB71CBE14
:1004A00092E19BBF9AB7542F492F558B448B982FBD
:1004B000862F232732272327821B930B08951CBEE8
:1004C00083E18BBF8AB71CBE94E19BBF9AB7892793
:1004D00098278927FB019C012B5E3F4FDB01A40F6E
:1004E000B51FEA17FB0739F061913CBF2BBF6ABF0C
:1004F0002F5F3F4FF6CF480F591F1CBE83E18BBFC4
:100500005ABF1CBE84E18BBF4ABF90E080E00895D3
:10051000CF93DF931F92CDB7DEB76983DC01ED91F6
:10052000FC910280F381E02D41E050E0BE016F5F5D
:100530007F4F09950F90DF91CF9108951CBE1BBE90
:100540008FEF8ABF1CBE1BBE82E08ABF90E080E0B6
:100550000895FB0132812381948185811CBE1BBEDD
:1005600061E06ABF1CBE6DE06BBF3ABF1CBE3EE0DF
:100570003BBF2ABF1CBE2FE02BBF9ABF1CBE90E121
:100580009BBF8ABF1CBE81E18BBF5ABF1CBE82E1EC
:100590008BBF4ABF81E090E008950895DC01ED91A2
:1005A000FC91008CF18DE02D09941CBE8BE08BBF7B
:1005B0007ABF1CBE8CE08BBF6ABF1CBE1BBE83E033
:1005C0008ABF81E00895FC0184899589089524E417
:1005D00031E0FC0131832083FB014089518962892C
:1005E0007389FC0142835383648375830895DC011E
:1005F000ED91FC91028CF38DE02D099490E080E068
:100600000895FB0101900020E9F73197AF01461BE7
:10061000570BDC01ED91FC910280F381E02D0994F0
:100620008F929F92AF92BF92EF92FF920F931F9380
:10063000CF93DF93CDB7DEB7A1970FB6F894DEBFA7
:100640000FBECDBF7C01FA01CB0119A2223008F404
:100650002AE08E010F5D1F4F822E912CB12CA12C10
:10066000BF01A50194010E941508F901CA016A3071
:100670000CF5605DD8016E938D01232B242B252B67
:1006800079F790E080E0109721F0BD01C7010E944A
:100690000103A1960FB6F894DEBF0FBECDBFDF9168
:1006A000CF911F910F91FF90EF90BF90AF909F90CF
:1006B0008F900895695CDECFCF92DF92EF92FF9228
:1006C000CF93DF936B017C016DE28FE392E00E9498
:1006D0003401EC0144275527BA014C195D096E0914
:1006E0007F092AE08FE392E00E9410038C0F9D1F88
:1006F000DF91CF91FF90EF90DF90CF9008958F9290
:100700009F92AF92BF92CF92DF92EF92FF920F93A0
:100710001F93CF93DF937C01EB016C0182E0C80E45
:10072000D11C4701E5E08E0E911C10E000E0F601BF
:1007300041916F0150E070E060E02AE0CE010E943C
:1007400010035C01E881F9810190F081E02D6EE2F7
:10075000CE0109958A0D9B1D080F191FC814D904D5
:1007600031F7F701458150E070E060E02AE0CE010A
:100770000E941003800F911FDF91CF911F910F9165
:10078000FF90EF90DF90CF90BF90AF909F908F90B1
:100790000895BC018FE392E00C94010366E471E0DC
:1007A0000C940103CF93DF93D0E0C0E0009731F0C9
:1007B000BC018FE392E00E940103EC018FE392E021
:1007C0000E94CE038C0F9D1FDF91CF910895CF9390
:1007D000DF93AC01990F660B770B77FF0EC0CB014F
:1007E000BA010E945C03EC018FE392E00E94CE0309
:1007F0008C0F9D1FDF91CF9108952AE08FE392E047
:100800000E941003F0CFCF93DF93482F50E070E0A9
:1008100060E02AE08FE392E00E941003EC018FE396
:1008200092E00E94CE038C0F9D1FDF91CF9108951F
:1008300068E670E08FE392E00E9481018FE392E02E
:100840000E94CE03989590E080E008951F920F9249
:100850000FB60F9211242F933F934F935F936F9393
:100860007F938F939F93AF93BF93EF93FF938FE308
:1008700092E00E941201FF91EF91BF91AF919F9181
:100880008F917F916F915F914F913F912F910F9039
:100890000FBE0F901F9018951F920F920FB60F92D8
:1008A00011242F938F939F93EF93FF93E0914F0227
:1008B000F09150028081E0915502F091560282FD44
:1008C0001BC09081809158028F5F8F7320915902D5
:1008D000821741F0E0915802F0E0E15CFD4F958F06
:1008E00080935802FF91EF919F918F912F910F90DC
:1008F0000FBE0F901F9018958081F4CF1F920F921A
:100900000FB60F9211242F933F938F939F93AF9322
:10091000BF9380913B0290913C02A0913D02B09127
:100920003E0230913A0223E0230F2D3758F501960D
:10093000A11DB11D20933A0280933B0290933C028B
:10094000A0933D02B0933E0280913602909137020F
:10095000A0913802B09139020196A11DB11D80937A
:10096000360290933702A0933802B0933902BF91B8
:10097000AF919F918F913F912F910F900FBE0F904C
:100980001F90189526E8230F0296A11DB11DD2CF06
:10099000EFE3F2E01382128248EE53E060E070E091
:1009A00044835583668377838AE091E091838083D3
:1009B00085EC90E09587848784EC90E09787868724
:1009C00080EC90E0918B808B81EC90E0938B828B1C
:1009D00082EC90E0958B848B86EC90E0978B868BF5
:1009E000118E128E138E148EECEDF2E084E491E001
:1009F000918380831282138214821582EAEEF2E0E0
:100A0000918380831282138214821582E2EEF2E0D7
:100A1000918380831282138214821582E0EFF2E0C8
:100A2000918380831282138214821582E6EFF2E0B2
:100A3000918380831282138214821582EFEDF3E09A
:100A4000918380831282138214821582ECEFF2E08C
:100A50001382128244835583668377832CE131E0CD
:100A60003183208397878687108A118A128A138A96
:100A700024E0208FE5EEF3E09183808312821382DD
:100A8000148215820895CF93DF93CDB7DEB7CE538E
:100A9000D1400FB6F894DEBF0FBECDBF789484B5B9
:100AA000826084BD84B5816084BD85B5826085BD6A
:100AB00085B5816085BD80916E00816080936E00F8
:100AC00010928100809181008260809381008091EA
:100AD000810081608093810080918000816080939B
:100AE00080008091B10084608093B1008091B0005B
:100AF00081608093B00080917A00846080937A0056
:100B000080917A00826080937A0080917A0081607F
:100B100080937A0080917A00806880937A001092A6
:100B2000C100E0914F02F091500282E08083E09199
:100B30004B02F0914C021082E0914D02F0914E0276
:100B400080E1808310925702E0915302F0915402A9
:100B500086E08083E0915102F091520280818061B1
:100B60008083E0915102F0915202808188608083FD
:100B7000E0915102F0915202808180688083E0917F
:100B80005102F091520280818F7D808389E491E04F
:100B90000E94D20388E08093E4028093E502809370
:100BA000E6028093E70262EC70E08FE392E00E943D
:100BB00081018E010D5F1F4F7E0127E0E20EF11CC7
:100BC0003AE0A32E49E0B42E58E0C52E67E0D62EB9
:100BD0001CBEABBE8AB71CBEBBBE9AB71CBECBBE8A
:100BE0002AB71CBEDBBE3AB73B832C839D838E8322
:100BF000D8014D918D0150E070E060E02AE08FE374
:100C000092E00E94100360EC70E08FE392E00E949B
:100C10008101E016F106E1F68FE392E00E94CE0337
:100C200062ED74E08CEF92E00E94D5028E01035FCA
:100C30001E4F3801BFE16B0E711C8CEF92E00E94D9
:100C400025025C01181619060CF0E2C18EE491E051
:100C50000E94D203C5010E94D20344E650E067E13E
:100C600073E08CEF92E00E94CF017C018BE591E074
:100C70000E94C903F701E450FD4F138EE158FF4F66
:100C8000108287E193E00E94D203F8011182128260
:100C9000158216821186128615861686118A128A88
:100CA000108E178A138E128E158E148E168E8091CA
:100CB0001703982F93709083958B8F70818F8091FD
:100CC0001803868B90E025E0959587952A95E1F7A6
:100CD00084A386E691E00E94D203D80194968C9179
:100CE0000E940304809118038F71F80185A38FE699
:100CF00091E00E94D203D80195968C910E94030442
:100D00008091190390911A03982789279827F80151
:100D1000958F848FE18CF12CF4E0EF0EF11C6801CB
:100D2000F701E450FD4F838D8F70D60111968C939F
:100D3000119712968C9312978D3071F4848D835F86
:100D400011968C93B2E0EB0EF11CF701E450FD4FCD
:100D5000838D835FF601828387E791E00E94C90358
:100D6000D60111968C910E9403048FE791E00E94B6
:100D7000C903F60182810E9403044701FFEF8F1A25
:100D80009F0AD60112968C918823E9F090E00E9488
:100D90003D08F60194838383D701A85EBC4F90E0A1
:100DA00080E07401E80EF91E2D91F60132813817AA
:100DB000190651F04CF043815481FA01E80FF91FF4
:100DC00020830196EECF7401F701E450FD4F938C20
:100DD0009A9488E891E00E94D203F4E0CF0ED11CEF
:100DE0002DEF291508F09CCF6801212C312C210111
:100DF00086E991E00E94C9032AE0B201A1018FE3D4
:100E000092E00E94100387EA91E00E94C903D60194
:100E100011964C9150E070E060E02AE08FE392E0A0
:100E20000E94100389EB91E00E94C903F601428100
:100E300050E070E060E02AE08FE392E00E9410034F
:100E40008FE392E00E94CE03FFEF2F1A3F0A4F0A72
:100E50005F0A24E0C20ED11C85E02816310441044B
:100E6000510431F685ED91E00E94C903C5010E944D
:100E7000E70381EE91E00E94C903C7010E94E703E6
:100E800090E080E0FC01E450FD4F238D2F3F89F47A
:100E9000DC01A95EBC4FF8019C01201B310BC9018C
:100EA0008E0F9F1F4D913196442319F08C91868FA0
:100EB000F6CF01968A159B052CF3D80194968C9158
:100EC0009497811165C095968C91813009F060C02E
:100ED0008EEE91E00E94D203C75CDE4F1982188229
:100EE000C953D140F801848D958DF0E6F98325E44E
:100EF0002A839B838C8381EC8D83C65CDE4F888143
:100F0000CA53D1408E8391EB9F83A2E0A88781E5ED
:100F1000898783E08A878FEF8B8786E38C8789E3D5
:100F20008D8784E38E8782E38F8780E3888B198A9D
:100F30004091100350911103E4E4F1E0CD5CDE4FE9
:100F4000F983E883C353D14080910C0390910D0342
:100F5000A0910E03B0910F03CB5CDE4F8883998381
:100F6000AA83BB83C553D140BE016D5C7E4F8CEF1D
:100F700092E00E94A90240E150E0BE016F5F7F4F06
:100F80008CEF92E00E945F028CEF92E00E949E0242
:100F90008FE392E00E94CE0384E092E00E94C903B6
:100FA000D8018C910E9403048DE092E00E94C90355
:100FB000F80186890E94030483E192E00E94C9033C
:100FC000D80159968C910E9403048DE192E00E9411
:100FD000C903F801858990E00E94E70383E292E06B
:100FE0000E94C903D8015C964D915C9170E060E06D
:100FF0002AE08FE392E00E9410038FE392E00E94C8
:10100000CE038EE292E00E94D203C3010E94D2037B
:10101000E0E0F0E0EF2B09F410CE0E94FE00882300
:1010200009F40BCE0E94000008CEA1E21A2EAA1BE2
:10103000BB1BFD010DC0AA1FBB1FEE1FFF1FA21788
:10104000B307E407F50720F0A21BB30BE40BF50B85
:10105000661F771F881F991F1A9469F7609570950E
:10106000809590959B01AC01BD01CF010895EE0FD5
:10107000FF1F0590F491E02D09940F931F93CF93D8
:10108000DF938230910510F482E090E0E091ED036F
:10109000F091EE0330E020E0B0E0A0E0309799F46A
:1010A0002115310509F44AC0281B390B24303105BC
:1010B000D8F58A819B816115710589F1FB019383C4
:1010C0008283FE0111C04081518102811381481742
:1010D0005907E0F04817590799F4109761F01296F4
:1010E0000C93129713961C933296CF01DF91CF91F8
:1010F0001F910F9108950093ED031093EE03F4CF29
:101100002115310551F04217530738F0A901DB01D1
:101110009A01BD01DF01F801C1CFEF01F9CF909332
:10112000EE038093ED03CDCFFE01E20FF31F819319
:1011300091932250310939832883D7CF2091EB0333
:101140003091EC03232B41F42091020130910301F3
:101150003093EC032093EB032091000130910101C7
:101160002115310541F42DB73EB74091040150914E
:101170000501241B350BE091EB03F091EC03E21722
:10118000F307A0F42E1B3F0B2817390778F0AC01AA
:101190004E5F5F4F2417350748F04E0F5F1F509387
:1011A000EC034093EB03819391939FCFF0E0E0E059
:1011B0009CCFCF93DF930097E9F0FC013297138225
:1011C0001282A091ED03B091EE03ED0130E020E03A
:1011D0001097A1F420813181820F931F2091EB039E
:1011E0003091EC032817390709F061C0F093EC0344
:1011F000E093EB03DF91CF910895EA01CE17DF076B
:10120000E8F54A815B819E0141155105B1F7E9017D
:10121000FB83EA8349915991C40FD51FEC17FD0751
:1012200061F4808191810296840F951FE901998371
:101230008883828193819B838A83F0E0E0E0129629
:101240008D919C9113970097B9F52D913C91119731
:10125000CD010296820F931F2091EB033091EC0396
:101260002817390739F6309751F51092EE0310928E
:10127000ED03B093EC03A093EB03BCCFD383C28305
:1012800040815181840F951FC817D90761F44E5FC3
:101290005F4F88819981480F591F518340838A810C
:1012A0009B81938382832115310509F0B0CFF093A0
:1012B000EE03E093ED039ECFFD01DC01C0CF13826E
:0812C0001282D7CFF894FFCF92
:1012C8000000EF0380000000000034019400C1001A
:1012D800A001F200D000E4000000000088025F02D4
:1012E800FE02C201CE020802CC01D502CD02A9023B
:1012F80018049E022502CF01F702E702E302C001AB
:10130800000000007F030D0A0045737361005061FF
:10131800636B65742073697A65200052656365693B
:101328007665643A2000626974636C617373006265
:101338006974636F64650044656C74613A20004C9D
:10134800656E6768743A20004C6F4F6F4F6F4F6F30
:10135800502E2E2E2E00436F6170206F7074696FAF
:101368006E206E723A200044656C7461206F6620AE
:101378006F7074696F6E3A20004C656E67687420F0
:101388006F66206F7074696F6E2076616C7565206A
:101398006973203A0053697A65206F642075647018
:1013A8000043757272656E74204279746500446FEB
:1013B800737461C582656D204745542072657175E7
:1013C80065737400636F61707665722000636F6483
:1013D800652000746F6B656E6C656E2000747970A3
:1013E8006520006D657373616765496420007061ED
:0613F800796C6F616400D6
:00000001FF
