:100000000C946A000C9492000C9492000C94920050
:100010000C9492000C9492000C9492000C94920018
:100020000C9492000C9492000C9492000C94920008
:100030000C9492000C9492000C9492000C949200F8
:100040000C947E040C9492000C944C040C942604A2
:100050000C9492000C9492000C9492000C949200D8
:100060000C9492000C9492004F626972457468651A
:10007000726E65745544503A3A626567696E5061B4
:10008000636B657428636F6E73742063686172209C
:100090002A686F73742C2075696E7431365F742012
:1000A000706F7274293B206973206E6F74207375B2
:1000B00070706F727465642120536F7272792100C1
:1000C0002E004D7920495020616464726573733A43
:1000D0002000C80411241FBECFEFD8E0DEBFCDBF83
:1000E00012E0A0E0B1E0E6ECF2E102C005900D9272
:1000F000AA3AB107D9F724E0AAEAB2E001C01D92FA
:10010000A336B207E1F710E0CAE6D0E004C02197B9
:10011000FE010E943608C936D107C9F70E9443057F
:100120000C9461090C940000AF92BF92CF92DF92C1
:10013000EF92FF920F931F93CF93DF936C017B019C
:100140008B01040F151FEB015E01AE18BF08C0172D
:10015000D10759F06991D601ED91FC910190F081A0
:10016000E02DC6010995892B79F7C501DF91CF9163
:100170001F910F91FF90EF90DF90CF90BF90AF90C5
:100180000895FC01538D448D252F30E0842F90E09D
:10019000821B930B541710F0CF9608950197089582
:1001A000FC01918D828D981761F0A28DAE0FBF2F4B
:1001B000B11D5D968C91928D9F5F9F73928F90E0A1
:1001C00008958FEF9FEF0895FC01918D828D981710
:1001D00031F0828DE80FF11D858D90E008958FEF4D
:1001E0009FEF0895FC01918D228D892F90E0805C16
:1001F0009F4F821B91098F739927089583EB92E09B
:100200000E94F20021E0892B09F420E0822F08955A
:1002100080E090E0892B29F00E94FE0081110C946F
:1002200000000895FC01A48DA80FB92FB11DA35A99
:10023000BF4F2C91848D90E001968F739927848F06
:10024000A689B7892C93A089B1898C918370806429
:100250008C93938D848D981306C00288F389E02DCA
:1002600080818F7D80830895EF92FF920F931F937B
:10027000CF93DF93EC0181E0888F9B8D8C8D981359
:100280001AC0E889F989808185FF15C09FB7F89465
:10029000EE89FF896083E889F989808183708064B1
:1002A00080839FBF81E090E0DF91CF911F910F91FC
:1002B000FF90EF900895F62E0B8D10E00F5F1F4F0B
:1002C0000F731127E02E8C8D8E110CC00FB607FC1A
:1002D000FACFE889F989808185FFF5CFCE010E94A8
:1002E0001201F1CFEB8DEC0FFD2FF11DE35AFF4F03
:1002F000F0829FB7F8940B8FEA89FB898081806236
:10030000CFCFEF92FF920F931F93CF93DF938C0188
:100310007B01D0E0C0E0F701EC0FFD1F6491662384
:1003200039F0C8010E943401892B11F02196F3CFD6
:10033000CE01DF91CF911F910F91FF90EF90089523
:10034000CF93DF93EC01888D8823B9F0AA89BB890C
:10035000E889F9898C9185FD03C0808186FD0DC0F7
:100360000FB607FCF7CF8C9185FFF2CF808185FF18
:10037000EDCFCE010E941201E9CFDF91CF91089518
:1003800081E0089587E08CBF95EE9BBF1ABE8CBFBD
:1003900086EE8BBF1ABE089590E080E0089597E046
:1003A0009CBF87EE8BBF2AB79CBF88EE8BBF8AB7F6
:1003B000322F282F9CBF85EE8BBF8AB79CBF96EE4D
:1003C0009BBF9AB7892798278927821B930B4817C9
:1003D000590708F4CA01A9014751584FFB01DB0135
:1003E000A80FB91FEA17FB0739F05CBF4BBF6AB70C
:1003F00061934F5F5F4FF6CF280F391F47E04CBF27
:1004000057EE5BBF3ABF4CBF38EE3BBF2ABF0895E3
:10041000CF93DF931F92CDB7DEB7DC01ED91FC9156
:10042000028CF38DE02D41E050E0BE016F5F7F4F05
:1004300009951816190634F4898190E00F90DF9120
:10044000CF9108958FEF9FEFF9CFFC0197E09CBF0C
:1004500085EE8BBF8AB79CBF26EE2BBF6AB79CBFC9
:1004600027EE2BBF2AB79CBF98EE9BBF3AB71CBEA6
:1004700090E19BBF9AB71CBE4FE04BBF4AB71CBE72
:100480005EE05BBF5AB71CBE7DE07BBF7AB7708B66
:10049000518B428B938B1CBE91E19BBF4AB71CBE14
:1004A00092E19BBF9AB7542F492F558B448B982FBD
:1004B000862F232732272327821B930B08951CBEE8
:1004C00083E18BBF8AB71CBE94E19BBF9AB7892793
:1004D00098278927FB019C012B5E3F4FDB01A40F6E
:1004E000B51FEA17FB0739F061913CBF2BBF6ABF0C
:1004F0002F5F3F4FF6CF480F591F1CBE83E18BBFC4
:100500005ABF1CBE84E18BBF4ABF90E080E00895D3
:10051000CF93DF931F92CDB7DEB76983DC01ED91F6
:10052000FC910280F381E02D41E050E0BE016F5F5D
:100530007F4F09950F90DF91CF9108951CBE1BBE90
:100540008FEF8ABF1CBE1BBE82E08ABF90E080E0B6
:100550000895FB0132812381948185811CBE1BBEDD
:1005600061E06ABF1CBE6DE06BBF3ABF1CBE3EE0DF
:100570003BBF2ABF1CBE2FE02BBF9ABF1CBE90E121
:100580009BBF8ABF1CBE81E18BBF5ABF1CBE82E1EC
:100590008BBF4ABF81E090E008950895DC01ED91A2
:1005A000FC91008CF18DE02D09941CBE8BE08BBF7B
:1005B0007ABF1CBE8CE08BBF6ABF1CBE1BBE83E033
:1005C0008ABF81E00895FC0184899589089524E417
:1005D00031E0FC0131832083FB014089518962892C
:1005E0007389FC0142835383648375830895DC011E
:1005F000ED91FC91028CF38DE02D099490E080E068
:100600000895FB0101900020E9F73197AF01461BE7
:10061000570BDC01ED91FC910280F381E02D0994F0
:100620008F929F92AF92BF92EF92FF920F931F9380
:10063000CF93DF93CDB7DEB7A1970FB6F894DEBFA7
:100640000FBECDBF7C01FA01CB0119A2223008F404
:100650002AE08E010F5D1F4F822E912CB12CA12C10
:10066000BF01A50194010E941408F901CA016A3072
:100670000CF5605DD8016E938D01232B242B252B67
:1006800079F790E080E0109721F0BD01C7010E944A
:100690000103A1960FB6F894DEBF0FBECDBFDF9168
:1006A000CF911F910F91FF90EF90BF90AF909F90CF
:1006B0008F900895695CDECFCF92DF92EF92FF9228
:1006C000CF93DF936B017C016DE283EB92E00E949C
:1006D0003401EC0144275527BA014C195D096E0914
:1006E0007F092AE083EB92E00E9410038C0F9D1F8C
:1006F000DF91CF91FF90EF90DF90CF9008958F9290
:100700009F92AF92BF92CF92DF92EF92FF920F93A0
:100710001F93CF93DF937C01EB016C0182E0C80E45
:10072000D11C4701E5E08E0E911C10E000E0F601BF
:1007300041916F0150E070E060E02AE0CE010E943C
:1007400010035C01E881F9810190F081E02D6EE2F7
:10075000CE0109958A0D9B1D080F191FC814D904D5
:1007600031F7F701458150E070E060E02AE0CE010A
:100770000E941003800F911FDF91CF911F910F9165
:10078000FF90EF90DF90CF90BF90AF909F908F90B1
:100790000895BC0183EB92E00C94010366E471E0E0
:1007A0000C940103CF93DF93D0E0C0E0009731F0C9
:1007B000BC0183EB92E00E940103EC0183EB92E029
:1007C0000E94CE038C0F9D1FDF91CF910895CF9390
:1007D000DF93482F50E070E060E02AE083EB92E086
:1007E0000E941003EC0183EB92E00E94CE038C0F79
:1007F0009D1FDF91CF910895CF93DF93AC01990FA7
:10080000660B770B77FF0EC0CB01BA010E945C0329
:10081000EC0183EB92E00E94CE038C0F9D1FDF91D1
:10082000CF9108952AE083EB92E00E941003F0CF6D
:1008300068E670E083EB92E00E94810183EB92E036
:100840000E94CE03989590E080E008951F920F9249
:100850000FB60F9211242F933F934F935F936F9393
:100860007F938F939F93AF93BF93EF93FF9383EB0C
:1008700092E00E941201FF91EF91BF91AF919F9181
:100880008F917F916F915F914F913F912F910F9039
:100890000FBE0F901F9018951F920F920FB60F92D8
:1008A00011242F938F939F93EF93FF93E091C302B3
:1008B000F091C4028081E091C902F091CA0282FDE8
:1008C0001BC090818091CC028F5F8F732091CD02ED
:1008D000821741F0E091CC02F0E0ED54FD4F958F8E
:1008E0008093CC02FF91EF919F918F912F910F9068
:1008F0000FBE0F901F9018958081F4CF1F920F921A
:100900000FB60F9211242F933F938F939F93AF9322
:10091000BF938091AF029091B002A091B102B091CB
:10092000B2023091AE0223E0230F2D3758F5019625
:10093000A11DB11D2093AE028093AF029093B0022F
:10094000A093B102B093B2028091AA029091AB023F
:10095000A091AC02B091AD020196A11DB11D809392
:10096000AA029093AB02A093AC02B093AD02BF91E8
:10097000AF919F918F913F912F910F900FBE0F904C
:100980001F90189526E8230F0296A11DB11DD2CF06
:10099000E3EBF2E01382128248EE53E060E070E095
:1009A00044835583668377838AE091E091838083D3
:1009B00085EC90E09587848784EC90E09787868724
:1009C00080EC90E0918B808B81EC90E0938B828B1C
:1009D00082EC90E0958B848B86EC90E0978B868BF5
:1009E000118E128E138E148EE0E5F3E084E491E014
:1009F000918380831282138214821582EEE5F3E0E4
:100A0000918380831282138214821582E6E5F3E0DB
:100A1000918380831282138214821582E4E6F3E0CC
:100A2000918380831282138214821582EAE6F3E0B6
:100A3000918380831282138214821582E3E5F4E0AD
:100A4000918380831282138214821582E0E7F3E09F
:100A50001382128244835583668377832CE131E0CD
:100A60003183208397878687108A118A128A138A96
:100A700024E0208FE9E5F4E09183808312821382E1
:100A8000148215820895CF93DF93CDB7DEB7CE538E
:100A9000D1400FB6F894DEBF0FBECDBF789484B5B9
:100AA000826084BD84B5816084BD85B5826085BD6A
:100AB00085B5816085BD80916E00816080936E00F8
:100AC00010928100809181008260809381008091EA
:100AD000810081608093810080918000816080939B
:100AE00080008091B10084608093B1008091B0005B
:100AF00081608093B00080917A00846080937A0056
:100B000080917A00826080937A0080917A0081607F
:100B100080937A0080917A00806880937A001092A6
:100B2000C100E091C302F091C40282E08083E091B1
:100B3000BF02F091C0021082E091C102F091C202A6
:100B400080E180831092CB02E091C702F091C8024D
:100B500086E08083E091C502F091C60280818061C9
:100B60008083E091C502F091C60280818860808315
:100B7000E091C502F091C602808180688083E09197
:100B8000C502F091C60280818F7D808389E491E067
:100B90000E94D20388E08093580380935903809386
:100BA0005A0380935B0362EC70E083EB92E00E9457
:100BB00081018E010D5F1F4F7E0127E0E20EF11CC7
:100BC0003AE0A32E49E0B42E58E0C52E67E0D62EB9
:100BD0001CBEABBE8AB71CBEBBBE9AB71CBECBBE8A
:100BE0002AB71CBEDBBE3AB73B832C839D838E8322
:100BF000D8014D918D0150E070E060E02AE083EB78
:100C000092E00E94100360EC70E083EB92E00E949F
:100C10008101E016F106E1F683EB92E00E94CE033B
:100C200062ED74E080E793E00E94D5028E01035FDD
:100C30001E4F3801BFE16B0E711C80E793E00E94EC
:100C400025025C01181619060CF0E1C18BE691E053
:100C50000E94D203C5010E94D20344E650E06BE833
:100C600073E080E793E00E94CF017C0188E791E088
:100C70000E94C903F701E059FC4F138EE158FF4F62
:100C800010828BE893E00E94D203F8011182128255
:100C9000158216821186128615861686118A128A88
:100CA000108E178A138E128E158E148E168E8091CA
:100CB0008B03982F93709083958B8F70818F809189
:100CC0008C03868B90E025E0959587952A95E1F732
:100CD00084A383E891E00E94D203D80194968C917A
:100CE0000E94E70380918C038F71F80185A38CE843
:100CF00091E00E94D203D80195968C910E94E7035F
:100D000080918D0390918E03982789279827F80169
:100D1000958F848FE18CF12CF4E0EF0EF11C6801CB
:100D2000F701E059FC4F838D8F70D60111968C939B
:100D3000119712968C9312978D3071F4848D835F86
:100D400011968C93B2E0EB0EF11CF701E059FC4FC9
:100D5000838D835FF601828384E991E00E94C90359
:100D6000D60111968C910E94E7038CE991E00E94D4
:100D7000C903F60182810E94E7034701FFEF8F1A42
:100D80009F0AD60112968C918823E9F090E00E9488
:100D90003C08F60194838383D701A457BC4F90E0AD
:100DA00080E07401E80EF91E2D91F60132813817AA
:100DB000190651F04CF043815481FA01E80FF91FF4
:100DC00020830196EECF7401F701E059FC4F938C1C
:100DD0009A9485EA91E00E94D203F4E0CF0ED11CF0
:100DE0002DEF291508F09CCF6801212C312C210111
:100DF00088ED91E00E94C9032AE0B201A10183EBD2
:100E000092E00E94100389EE91E00E94C903D6018E
:100E100011964C9150E070E060E02AE083EB92E0A4
:100E20000E9410038BEF91E00E94C903F6014281FA
:100E300050E070E060E02AE083EB92E00E94100353
:100E400083EB92E00E94CE03FFEF2F1A3F0A4F0A76
:100E50005F0A24E0C20ED11C85E02816310441044B
:100E6000510431F687E192E00E94C903C5010E9456
:100E7000FC0383E292E00E94C903C7010E94FC03C5
:100E800090E080E0FC01E059FC4F238D2F3F89F476
:100E9000DC01A557BC4FF8019C01201B310BC90197
:100EA0008E0F9F1F4D913196442319F08C91868FA0
:100EB000F6CF01968A159B052CF3D80194968C9158
:100EC0009497811165C095968C91813009F060C02E
:100ED00080E392E00E94D203C75CDE4F1982188241
:100EE000C953D140F801848D958DF0E6F98325E44E
:100EF0002A839B838C8381EC8D83C65CDE4F888143
:100F0000CA53D1408E8391EB9F83A2E0A88781E5ED
:100F1000898783E08A878FEF8B8786E38C8789E3D5
:100F20008D8784E38E8782E38F8780E3888B198A9D
:100F30004091840350918503E4E4F1E0CD5CDE4F01
:100F4000F983E883C353D14080918003909181035A
:100F5000A0918203B0918303CB5CDE4F8883998399
:100F6000AA83BB83C553D140BE016D5C7E4F80E731
:100F700093E00E94A90240E150E0BE016F5F7F4F05
:100F800080E793E00E945F0280E793E00E949E0268
:100F900083EB92E00E94CE0388E492E00E94C903B2
:100FA000D8018C910E94E70387E592E00E94C90373
:100FB000F80186890E94E70383E692E00E94C90354
:100FC000D80159968C910E94E70386E792E00E942F
:100FD000C903F80185890E94E70389E892E00E942D
:100FE000C903D8015C964D915C9170E060E02AE005
:100FF00083EB92E00E94100383EB92E00E94CE0309
:101000008AE992E00E94D203C3010E94D203E0E089
:10101000F0E0EF2B09F411CE0E94FE00882309F4C2
:101020000CCE0E94000009CEA1E21A2EAA1BBB1B07
:10103000FD010DC0AA1FBB1FEE1FFF1FA217B307A4
:10104000E407F50720F0A21BB30BE40BF50B661FBA
:10105000771F881F991F1A9469F76095709580957E
:1010600090959B01AC01BD01CF010895EE0FFF1FCC
:101070000590F491E02D09940F931F93CF93DF9384
:101080008230910510F482E090E0E0916104F091EB
:10109000620430E020E0B0E0A0E0309799F4211540
:1010A000310509F44AC0281B390B24303105D8F525
:1010B0008A819B816115710589F1FB01938382838C
:1010C000FE0111C0408151810281138148175907E7
:1010D000E0F04817590799F4109761F012960C93B5
:1010E000129713961C933296CF01DF91CF911F91E7
:1010F0000F9108950093610410936204F4CF2115B9
:10110000310551F04217530738F0A901DB019A016C
:10111000BD01DF01F801C1CFEF01F9CF9093620467
:1011200080936104CDCFFE01E20FF31F8193919371
:101130002250310939832883D7CF20915F04309121
:101140006004232B41F4209102013091030130937C
:10115000600420935F04209100013091010121156A
:10116000310541F42DB73EB740910401509105017E
:10117000241B350BE0915F04F0916004E217F30744
:10118000A0F42E1B3F0B2817390778F0AC014E5FF7
:101190005F4F2417350748F04E0F5F1F50936004D0
:1011A00040935F04819391939FCFF0E0E0E09CCF68
:1011B000CF93DF930097E9F0FC01329713821282FC
:1011C000A0916104B0916204ED0130E020E010973D
:1011D000A1F420813181820F931F20915F0430910F
:1011E00060042817390709F061C0F0936004E093A8
:1011F0005F04DF91CF910895EA01CE17DF07E8F58C
:101200004A815B819E0141155105B1F7E901FB83DC
:10121000EA8349915991C40FD51FEC17FD0761F47A
:10122000808191810296840F951FE90199838883BB
:10123000828193819B838A83F0E0E0E012968D9116
:101240009C9113970097B9F52D913C911197CD0181
:101250000296820F931F20915F043091600428173B
:10126000390739F6309751F51092620410926104F3
:10127000B0936004A0935F04BCCFD383C28340814A
:101280005181840F951FC817D90761F44E5F5F4FD6
:1012900088819981480F591F518340838A819B819E
:1012A000938382832115310509F0B0CFF093620456
:1012B000E09361049ECFFD01DC01C0CF1382128256
:0612C000D7CFF894FFCF28
:1012C6000000630480000000000034019400C100A7
:1012D600A001F200D000E4000000000088025F02D6
:1012E600FE02C201CE020802CC01D502CD02A9023D
:1012F60018049E022502CF01F702E702E302C001AD
:10130600000000007F030D0A00576974616D7920A3
:10131600772070526F4772416D496520634F615067
:1013260020734572566552202121005061636B651A
:10133600742073697A652000526563656976656411
:101346003A2000626974636C617373006269746346
:101356006F64650044656C74613A20004C656E6785
:1013660068743A200057796AC59B636965207A20BC
:1013760070C499746C69204C6F4F6F4F6F4F6F50EC
:101386002C206B74C3B37261207370726177647AB8
:1013960061206F70636A6500436F6170206F7074BF
:1013A600696F6E206E723A200044656C7461206F1E
:1013B60066206F7074696F6E3A20004C656E6768C0
:1013C60074206F66206F7074696F6E2076616C751D
:1013D60065206973203A0053697A65206F64207529
:1013E60064700043757272656E742042797465008C
:1013F600446F737461C582656D20C5BCC485646124
:101406006E69652047455400436F4150205665720A
:1014160073696F6E3A2000436F415020436F6465D5
:101426003A2000436F415020546F6B656E4C656ED9
:101436006774683A2000436F4150204D65737361AD
:101446006765547970653A2000436F4150204D65B9
:10145600737361676549443A2000436F41502050D9
:0A14660061796C6F61643A200000A8
:107E0000112484B714BE81FFF0D085E080938100F7
:107E100082E08093C00088E18093C10086E0809377
:107E2000C20080E18093C4008EE0C9D0259A86E02C
:107E300020E33CEF91E0309385002093840096BBD3
:107E4000B09BFECF1D9AA8958150A9F7CC24DD24C4
:107E500088248394B5E0AB2EA1E19A2EF3E0BF2EE7
:107E6000A2D0813461F49FD0082FAFD0023811F036
:107E7000013811F484E001C083E08DD089C08234E0
:107E800011F484E103C0853419F485E0A6D080C0E4
:107E9000853579F488D0E82EFF2485D0082F10E0AE
:107EA000102F00270E291F29000F111F8ED06801E7
:107EB0006FC0863521F484E090D080E0DECF843638
:107EC00009F040C070D06FD0082F6DD080E0C81688
:107ED00080E7D80618F4F601B7BEE895C0E0D1E017
:107EE00062D089930C17E1F7F0E0CF16F0E7DF06D8
:107EF00018F0F601B7BEE89568D007B600FCFDCFD4
:107F0000A601A0E0B1E02C9130E011968C91119780
:107F100090E0982F8827822B932B1296FA010C0160
:107F200087BEE89511244E5F5F4FF1E0A038BF0790
:107F300051F7F601A7BEE89507B600FCFDCF97BE46
:107F4000E89526C08437B1F42ED02DD0F82E2BD052
:107F50003CD0F601EF2C8F010F5F1F4F84911BD097
:107F6000EA94F801C1F70894C11CD11CFA94CF0C13
:107F7000D11C0EC0853739F428D08EE10CD085E9AC
:107F80000AD08FE07ACF813511F488E018D01DD067
:107F900080E101D065CF982F8091C00085FFFCCF94
:107FA0009093C60008958091C00087FFFCCF809118
:107FB000C00084FD01C0A8958091C6000895E0E648
:107FC000F0E098E1908380830895EDDF803219F02E
:107FD00088E0F5DFFFCF84E1DECF1F93182FE3DFCA
:107FE0001150E9F7F2DF1F91089580E0E8DFEE27F6
:047FF000FF270994CA
:027FFE00040479
:0400000300007E007B
:00000001FF
